:020000040800F2
:1000000058480020D90200081F480008FB44000897
:100010001D480008152000088B5100080000000052
:10002000000000000000000000000000CD490008B2
:10003000532000080000000021480008CF490008B4
:10004000F3020008F3020008F3020008F3020008BC
:10005000F3020008F3020008F3020008F3020008AC
:10006000F3020008F3020008F30200081920000858
:10007000F3020008F3020008F3020008F30200088C
:10008000F3020008F3020008611E0008F3020008F2
:10009000F3020008F3020008F3020008F30200086C
:1000A000F3020008F3020008F3020008F30200085C
:1000B000F30200080000000000000000F302000846
:1000C000F30200080000000000000000F302000836
:1000D00000000000F3020008F30200080000000026
:1000E000F3020008F3020008000000000000000016
:1000F0000000000000000000000000000000000000
:10010000000000000000000000000000F3020008F2
:100110000000000000000000F3020008F3020008E5
:10012000F3020008F3020008F3020008F3020008DB
:10013000F3020008000000000000000000000000C2
:10014000F3020008F3020008F3020008F3020008BB
:10015000F3020008F3020008F3020008F3020008AB
:10016000F3020008F3020008F30200080000000098
:10017000F3020008F3020008000000000000000085
:10018000F3020008F3020008F302000800F002F88E
:1001900000F092F80AA090E8000C82448344AAF18F
:1001A0000107DA4501D100F087F8AFF2090EBAE88D
:1001B0000F0013F0010F18BFFB1A43F0010318479B
:1001C000D0970000F0970000103A24BF78C878C19B
:1001D000FAD8520724BF30C830C144BF04680C604D
:1001E000704700000023002400250026103A28BF95
:1001F00078C1FBD8520728BF30C148BF0B60704799
:100200006E2900F08582702900F0D383662906F0FC
:10021000F683652906F0F383672906F0F0836129E8
:1002200006F0EF8303681B0A28BF41F080016929AB
:1002300000F03282642900F02F82752900F02C82B0
:100240006F2900F06083782900F09F83E92900F08E
:10025000FB82E42900F0F882F52900F0F582EF290D
:1002600000F05D83F82900F09E830368DB0928BF56
:1002700041F08001632901F0AE80732901F0B38061
:10028000E32901F0BE80F32901F0C380002070470C
:100290001FB506F0AAFB01F013F9040000200021AD
:1002A00006F07CF8401C60600020002106F060F839
:1002B000E0601FBD10B510BD01F0D4F81146FFF786
:1002C000E7FF05F0E9FF01F0B1F903B4FFF7F2FF32
:1002D00003BC01F0F5F900000948804709480047D0
:1002E000FEE7FEE7FEE7FEE7FEE7FEE7FEE7FEE7E6
:1002F000FEE7FEE704480549054A064B7047000043
:10030000454A00088D010008584200205848002046
:10031000584400205844002053EA020C00F0698041
:100320002DE9F04B4FF00006002B1FBFB3FA83F509
:1003300003FA05F424FA05F65E4012BF1643B2FA3A
:1003400082F502FA05F4C5F120051EBF22FA05FC6C
:1003500044EA0C04203556EA044C4FEA144418BF12
:10036000641C4FF000084FF00009904271EB030C41
:1003700039D3002919BFB1FA81F701FA07F6B0FAAB
:1003800080F700FA07F6C7F120071EBF20FA07FC26
:1003900046EA0C062037B6FBF4FCA7EB0507103F36
:1003A00007F01F0BCBF120060CFA0BFB2CFA06F61C
:1003B00044BFB3460026202FA4BF5E464FF0000B7B
:1003C0005BEA060C08BF4FF0010B19EB0B09ABFB06
:1003D000027C48EB0608C01B06FB02CC0BFB03CCDF
:1003E00071EB0C01C1E70B46024641464846BDE8A9
:1003F000F08B13B54FF000004FF00001AFF3008019
:10040000BDE81C40704700007CB51D4616460C0038
:10041000009001D02044401E074B7B442A46694689
:100420000190304600F08DF905461CB10020694668
:1004300000F09AF928467CBD5503000010B5431C16
:1004400002E010F8011B71B18107FAD14FF00132BF
:1004500002C88C1A8C4314EAC211F9D0C01A0A06D9
:1004600003D0C01E10BDC01A10BD0A0401D0801EEA
:1004700010BD0902FCD0401E10BD032A40F230809E
:1004800010F0030C00F0158011F8013BBCF1020FD5
:10049000624498BF11F801CB00F8013B38BF11F856
:1004A000013BA2F1040298BF00F801CB38BF00F86D
:1004B000013B11F0030300F02580083AC0F00880EA
:1004C00051F8043B083A51F804CBA0E80810F5E7CE
:1004D000121D5CBF51F8043B40F8043BAFF30080B1
:1004E000D20724BF11F8013B11F801CB48BF11F826
:1004F000012B24BF00F8013B00F801CB48BF00F8F6
:10050000012B704710B5203AC0F00B80B1E81850AD
:10051000203AA0E81850B1E81850A0E81850BFF4ED
:10052000F5AF5FEA027C24BFB1E81850A0E818508C
:1005300044BF18C918C0BDE810405FEA827C24BFE0
:1005400051F8043B40F8043B08BF7047D20728BF6E
:1005500031F8023B48BF11F8012B28BF20F8023BBD
:1005600048BF00F8012B70474FF0000200B513465A
:1005700094469646203922BFA0E80C50A0E80C50C3
:10058000B1F12001BFF4F7AF090728BFA0E80C5074
:1005900048BF0CC05DF804EB890028BF40F8042B6D
:1005A00008BF704748BF20F8022B11F0804F18BFDA
:1005B00000F8012B704770477047704710B500F086
:1005C000CBFA006810BD10B5044600F0C5FA04600F
:1005D00010BD70B5044685690068C10601D5302696
:1005E00000E02026C00707D070BDD4E901213046C5
:1005F0009047206A401C20626D1EF6D570BD70B514
:10060000044685690078C00707D170BDD4E901218F
:1006100020209047206A401C20626D1EF6D570BDD8
:1006200009684A0501D540B27047C905FCD500B23A
:10063000704709684A0501D5C0B27047C905FCD5A5
:1006400080B2704770B50C460546012A05D028785F
:10065000800600D5EA69002302E0012305E05B1C67
:10066000934202D2E05C0028F9D1A869E618C01ACA
:10067000A861286A184428622846FFF7AAFF04E008
:10068000D5E9012114F8010B9047B442F8D328466C
:10069000FFF7B5FF70BD00002DE9F04106460024CC
:1006A00010687529314616A510D0FFF7B9FF00284C
:1006B00002DA404213A507E031688A0701D512A586
:1006C00002E0490704D511A5012401E0FFF7B1FFBD
:1006D00000210A2206F1240709E0B0FBF2FCB0FB7E
:1006E000F2F302FB1C00303078541846491C0028F5
:1006F000F3D123462A463046BDE8F04100F075BAF2
:10070000000000002D0000002B0000002000000071
:1007100011680268006A530501D508700AE0D30524
:1007200001D5088006E0130603D5C217C1E900020F
:1007300000E008600120704701694A1C02610878E6
:10074000704700B58FB0CDE9013100210591054911
:100750007944CDE903101146684600F035F90FB031
:1007600000BD0000E5FFFFFF0A6802F8010B0A6008
:100770007047D1E900239A4202D2531C0B601070DB
:10078000704700002DE9FF5F15468A460446DFF8F2
:10079000AC80F8440027D8E900103E46CDE90010AF
:1007A00010E03AF816106A4602A800F036FE411C26
:1007B00007D02178890603D5E269391891420DD80E
:1007C0000744761C2078800602D5E069B84205DD32
:1007D000AE42E6DB3AF816000028E2D1A069C01B61
:1007E000A0612046FFF7F5FED8E90010CDE9001022
:1007F000002017E03AF818106A4602A800F00DFE33
:10080000B0F1FF3F81460BD000250DF1080B05E04C
:10081000D4E901211BF8050090476D1C4D45F7D325
:1008200008F10100B0428046E4DB206A38442062CF
:100830002046FFF7E4FE00F003B80000DA90000065
:100840003FBCBDE8C09F00002DE9F0418046D21DAD
:1008500022F007020025D2E90002F52915A614D0DE
:10086000011E72F1000106DA0023D0EB030063EBF6
:10087000020211A608E0D8F800108B0701D50FA6D8
:1008800002E0490701D50EA601251146002408F112
:10089000240704E000F064F930323A55641C50EA51
:1008A0000102F7D12B46324621464046BDE8F041D1
:1008B00000F09BB9000000002D0000002B0000009C
:1008C0002000000030B4002100F1240408E002F010
:1008D0000705D208303542EA4372DB086554491CEB
:1008E00052EA0305F3D10468002310A2250707D5B7
:1008F000A40600D421B1C46901230DA2641EC46101
:1009000030BC00F072B910B5044621461068FFF7FC
:1009100090FE02462046BDE810400023D2E7D21DDB
:1009200022F00701D1E90023CCE70000000000001D
:1009300030000000F0B40D460188090502D5214CB5
:100940007C4402E01F4C7C440E34002100F124065C
:1009500008E002F00F071209E75D42EA03721B0983
:100960007754491C52EA0307F3D102780023120797
:1009700004D5702D06D009B1022311342246F0BCF3
:1009800000F033B901231034F8E770B504460D4682
:1009900021461068FFF74DFE024629462046BDE875
:1009A00070400023C6E7D21D22F00703D3E90023DD
:1009B000C0E70368126843F0200303600823C361A3
:1009C0000023B7E7348F00002DE9F05F8946044625
:1009D0004FF0000ADFF874B1FB44C0F820A02046B5
:1009E000E1688847002874D0252806D0D4E9012181
:1009F0009047206A401C2062F1E700265F462046AF
:100A0000E16888472028054607DB312D05D2781993
:100A100010F8200C08B10643F1E7B00701D526F025
:100A20000406C4F81CA00027C4F818A02A2D09D079
:100A3000284604F031FD38B304EB8708303DC8F890
:100A4000185019E059F8041B204604EB8702916105
:100A5000E1688847012F054618D1E069002820DAAF
:100A600026F020061DE0D8F8180000EB800005EB0A
:100A700040003038C8F818002046E168884705462D
:100A800004F00AFD0028EED1012F0AD02E2D08D146
:100A90002046E16888477F1C0546022F46F0200665
:100AA000C4DBA069002803DA404246F00106A061D9
:100AB000F00701D026F010066C2D0BD0682D09D060
:100AC0004C2D39D06A2D35D0742D35D07A2D33D0B8
:100AD00016E038E0E1682F4620468847B8420546D0
:100AE00009D16C2F26D04FF48060E1680643204680
:100AF0008847054604E06C2F1AD04FF480700643F7
:100B00000DB3A5F14100192802D8203546F400663E
:100B10004A462946204626604E46FFF771FB80B1C3
:100B200001280BD0F61D26F0070000F1080956E752
:100B30004020E4E78020D8E70020D6E706F104094A
:100B40004DE7284652E7206A00F002B8C48E000044
:100B500030BCBDE8C09F000000487047F84100204D
:100B600030B5B0F10A024FEA900E71F100034EEA7F
:100B7000817EB0EB0E0061EB91014FEA101E4EEA50
:100B8000017E10EB0E0041EB11114FEA102E4EEAE0
:100B9000016E10EB0E0041EB11214FEA104E4EEAB0
:100BA000014E10EB0E0041EB1141401841F10001E4
:100BB0004FEAD00040EA41704FEAD10110EB8005C6
:100BC0004FEA810444EA907444EB01046D1944EB4C
:100BD0000404521BA3414FF0000348BF0A3200D562
:100BE00030BD401C41F1000130BD2DE9F0470D46FC
:100BF00099469246044600F124080168880604D507
:100C0000E06921F01001216000E00120A84201DD2F
:100C1000471B00E00027A1697A1902EB0900081AB6
:100C2000A0612078C00602D42046FFF7D2FC00263F
:100C300008E0D4E901211AF806009047206A401C18
:100C4000761C20624E45F4DB2078C0060AD520468B
:100C5000FFF7BFFC06E0D4E9012130209047206A6D
:100C6000401C2062381EA7F10107F4DC07E0D4E93C
:100C7000012118F805009047206A401C2062281EB8
:100C8000A5F10105F3DC2046FFF7B9FC207800064A
:100C900002D50220BDE8F0870120FBE770472DE96F
:100CA000FF4F0C461E464FF0FF378BB0D2E90001D4
:100CB000DDF860800A908A46C1F30A5505B93D46C1
:100CC000002108464FF00000BAF1000F00F4400088
:100CD00005DA00EB80004FF4400101EA50004FEAD2
:100CE0009059B9F1010F00DDB9460A9850EA4A005F
:100CF0000ED044F61050A5F2FF3545432F14B8F13D
:100D0000000F1ED07542291E1EDDC9F100021CE035
:100D1000B8F1010F4FF0000001D0302103E0F243A1
:100D200005E02154401CB042FBDB3046002200218C
:100D300021540B99C1F80880C1E900200FB000F0E0
:100D4000BCB9BD1B6D1CDEE74A4600DA694206A845
:100D500000F0FAFB06AB93E8070003AB83E807005B
:100D600050460A9900F0B3FC8DE80700A0F500504A
:100D70001F3800900398002D0ADD42F21F014A46F9
:100D80000844002303A90390684600F01CFF09E013
:100D9000A0F500504A461F38002303A90390684677
:100DA00000F026FF8DE807000004000C03D04FF090
:100DB000FF30410800E01046B8F1000F03D00022D8
:100DC000009215461EE0751E05D4FFF7C9FE3032AD
:100DD00062556D1EF9D5B3460122084302D00022A8
:100DE0007F1C04E02078302801D100227F1E002AD9
:100DF000099784D01DE0112D07DAFFF7B1FE3032DC
:100E000062556D1C50EA0102F5D1084302D00098EA
:100E1000C8B10EE00021681E05E0235C625C6354EB
:100E20002254401E491C8142F7DBAB46A81B401EE2
:100E30000990002004F80B000B98099AC0F808806C
:100E4000C0E9002B7AE711264FF0000857E72DE99B
:100E5000F04F88460446D21D22F0070191B0D1E937
:100E60000001CDE90A0104F091F902460B98C00F88
:100E700001D02D2007E02068810701D52B2002E05A
:100E8000202101EAC000032A099001D0072A05DBCE
:100E900003464146204600F017FB0BE12078800610
:100EA00001D5E06900E00620B8F1650F814606D063
:100EB000B8F1660F18D0B8F1670F70D131E000209B
:100EC000B9F1110F009001DB112301E009F10103D9
:100ED0000AAA01A90CA8FFF7E2FEDDE90C700026C2
:100EE00009F10105834647E001204B4600904FF091
:100EF00000470AAA01A90CA8FFF7D1FEDDE90DB051
:100F00000C995D46002610B909F101000D18B9EBE6
:100F1000050003D4C0F1FF3609F10105A5EB090076
:100F20002BE0B9F1010F01DA4FF001090020B9F10E
:100F3000110F0090484601DD112300E003460AAA84
:100F400001A90CA8FFF7ABFEDDE90C704D460026A9
:100F50008346207800070AD4AB4500DA5D4601A835
:100F6000012D04DD411911F8011C302907D04F452E
:100F700002DA17F1040F04DA012082460FE06D1E39
:100F8000EEE7002F02DCED1B3E4403E0781CA84294
:100F900000DD7D1CB81B00F1010A4FF000472078EE
:100FA000000703D4AA4501DB4FF0FF3A0021B7F157
:100FB000004F0DF143088DF8431024D002202B235D
:100FC000002F01DA7F422D230A21021EA0F1010029
:100FD00000DC5FB197FBF1FC97FBF1F201FB1C7C9D
:100FE00017460CF1300C08F801CDEEE7A8F101002E
:100FF00003702188090501D5452100E06521A0F194
:10100000010800F8011C09980FA9A1EB0807FF1DB2
:1010100000B10120411901EBEA70A1693844081AB6
:10102000401EA0612078C00602D42046FFF7D1FA06
:10103000099828B1D4E901219047206A401C206218
:101040002078C00622D52046FFF7C3FA1EE0002E06
:1010500004DBB34502DD01A8805D00E03020D4E967
:1010600001219047206A401C2062761CAAF10100F1
:101070005FEA000A0AD100F023FAC0680168405C08
:10108000D4E901219047206A401C2062281EA5F166
:101090000105DCDC07E0D4E9012118F8010B9047D9
:1010A000206A401C2062381EA7F10107F3DC2046AD
:1010B000FFF7A5FA032011B041E630BCBDE8C08FB0
:1010C0002DE9F04F04460D46D21D22F0070089B0ED
:1010D000D0E900974846394604F058F80246F80F20
:1010E00001D02D2307E02068810701D52B2302E0E2
:1010F000202101EAC0038DF820300BB1012000E06F
:101100000020032A824601D0072A04DB2946204614
:1011100000F0DAF93FE12078800601D40D2500E0E7
:10112000E569C7F30A560D2D49DA00214FEA175B2E
:1011300008464FF00000002F00F4400007DA00EBF3
:1011400080004FF4400100EBD07001EA600081158F
:10115000012901DD4FF0FF3100224FEA850CBCF17F
:10116000180F06D31346ACF118004FF08052C2405E
:1011700003E04FF4801323FA0CF30CF10C0CBCF1D8
:10118000200F04D3ACF1200C09FA0CF001E007FAAF
:101190000CF000294FF0004801DD18B90FE00ED126
:1011A00040450CD319EB02095F4121B9404502D1FA
:1011B0009F4329EA0209BBEB175F00D0761C208809
:1011C000000502D57B48784402E07A487844193813
:1011D00008AA302302F80A30037C0AF10101002E2C
:1011E0000AF1020A53546A4602DC4FF0300101E072
:1011F0004FF031014FF001088DF8001002D0A6F237
:10120000FF3603E059EA470100D06B4E002D02DCA7
:101210002178090704D54FF002082E218DF801101E
:10122000C44600210BE0C7F303433F01C35C491CE4
:101230006D1E02F80830052908F1010801DA002DB9
:10124000F1DC00210CE000EB1973491C1B786D1ECA
:10125000082902F808304FEA091908F1010801DAF3
:10126000002DF0DC21688B0602D516E0A8F10108FC
:10127000E04505DD02EB080313F8013C302BF5D007
:10128000B8F1000F09DD02EB080313F8013C2E2B27
:1012900003D1090701D4A8F10108002D05DD3E2185
:1012A00002F808106D1E08F10108407C002E02F8BB
:1012B000080008F1010804DA2D20764202F808003F
:1012C00002E02B2002F808000A214FF47A708642CF
:1012D00008F101080BDB96FBF0F3303302F808301D
:1012E00096FBF0F308F1010800FB136601E0642EA1
:1012F0000CDB642096FBF0F3303302F8083096FBE9
:10130000F0F308F1010800FB136601E00A2E06DB8A
:1013100096FBF1F0303002F8080008F1010896FB66
:10132000F1F001FB1060303002F80800A16908F10B
:10133000010808EB050202EB0A00081AA0612078F8
:10134000C00602D42046FFF744F9216A08AE01EB3B
:101350000A00206204E0D4E9012116F8010B90474D
:10136000BAF1010AF7D22078C00602D52046FFF76D
:1013700030F96E4609E016F8010B3E280FD0D4E98B
:1013800001219047206A401C2062B8F10108F2D286
:101390002046FFF734F909B0032000F00FB8206AA7
:1013A0002844206203E0D4E90121302090476D1EDB
:1013B000EBD3F8E71D87000002FCFFFF30BCBDE85F
:1013C000C08F10B5436913B1AFF3008001E0FFF7A0
:1013D00039F9012010BD127800F124010A700022B1
:1013E0004A700122EDE711684FF0FF32E9E710B5CE
:1013F000436913B1AFF3008001E0FFF7C3F90120A7
:1014000010BD128800F1240182840022C2840122CE
:10141000EDE711684FF0FF32E9E770B516460C466C
:10142000054600F045F8036893F80101012806D04D
:10143000FF2C0FD8185D68B101202C7070BDD3F857
:1014400007013246214603F2071303442846BDE84C
:10145000704018474FF0FF3070BD000000487047E3
:10146000F84100207546FFF7F9FFAE4605006946D2
:10147000534620F00700854618B020B5FEF73AFF26
:10148000BDE820404FF000064FF000074FF0000885
:101490004FF0000B21F00701AC46ACE8C009ACE806
:1014A000C009ACE8C009ACE8C0098D46704700002F
:1014B00010B500F005F8001D10BD00BFE14E0000A2
:1014C00000487047184200202DE9F0411F460446AD
:1014D00003260168072A01F4006004DB08B116A5A1
:1014E00005E016A503E008B115A500E015A521F05B
:1014F00010002060A069C01EA0610FB1401EA06155
:101500002046FFF766F84FB1D4E9012138469047ED
:10151000206A401C2062C01C206206E0206AFAE7B4
:10152000D4E9012115F8010B9047761EF8D2204628
:10153000FFF765F8BDE8F0814E414E006E616E0028
:10154000494E4600696E66002DE9F0478146164611
:101550008AB0354878440DC88DE80D00324878448B
:10156000801C03AC0DC884E80D0041F69B30084494
:10157000372190FBF1F290FBF1F5A5F1800501FB1D
:1015800012041B3C02D56442012000E00020DFF879
:1015900098A080460027FA44AAF1BE0A0EE0E007B0
:1015A0000AD03246684607EB470101230AEB810166
:1015B00000F01EFB8DE8070064107F1C002CEED1AC
:1015C000194F7F44AE3F19E0E80715D007EB041030
:1015D0000DF1180A90E80E008AE80E00C068F0428B
:1015E00001D1981908903246012306A903A800F0FA
:1015F000FFFA03AB83E807006D10641C002DE3D1F4
:101600004FF0010332466946B8F1000F03A802D03B
:1016100000F0D9FA01E000F0EBFAC9E90001C9F8DD
:1016200008200AB0BDE8F0872084000010B5044609
:10163000AFF300802046BDE81040FEF746BE000034
:101640004FF0013C50F8042B51F8043B9A4221D151
:10165000A2EB0C03934313EACC1317D150F8042BDD
:1016600051F8043B9A4215D1A2EB0C03934313EAC1
:10167000CC130BD150F8042B51F8043B9A4209D1FA
:10168000A2EB0C03934313EACC13DBD04FF0000022
:10169000704700BFD01A01BAB1FA81F101F0180108
:1016A00022FA01F0CB40C1F12001DBB2C0B2C01A76
:1016B0002CFA01F3D11A914311EAC311E6D1704714
:1016C00001491820ABBEFEE72600020070475FEA22
:1016D000400C08BF91F0000F4FEA8C234FEAC12263
:1016E00043EA51514FEA1C5018BF00F5F0404FEA51
:1016F000300018BF41F000415FEA6C5C00F02980C7
:10170000BCF1FF3F08BF40F080407047130C06BF9C
:1017100012044FF0100C4FF0000C130E04BF120215
:101720000CF1080C130F04BF12010CF1040C930F01
:1017300004BF92000CF1020CD30F04BF52000CF155
:10174000010C11464FF00002A0F11F00A0EB0C00AD
:10175000704711F0004F08BF704731F000413FF46F
:10176000D5AF0B0C06BF09044FF0100C4FF0000C66
:101770000B0E04BF09020CF1080C0B0F04BF09018A
:101780000CF1040C8B0F04BF89000CF1020CCB0F81
:1017900004BF49000CF1010CCCF12003A0EB0C00BC
:1017A00022FA03F302FA0CF241EA030100F101000C
:1017B000704720F07F4C80EA030023F07F47ACEBBA
:1017C000070303F57C5300F0004003F1FF032DE90C
:1017D00080494FEA154B09B44FEA144325EA0B4EF2
:1017E00024EA03480FF2042606EB132749083E7843
:1017F0005FEA320203FB0667C7F5000707FB06F640
:101800004FEA54374FEAD64606F1020607FB066C4C
:10181000CCF1005C4FEA1C472CEA074C07FB06F4AE
:101820000CFB06F504EB15464FEA961634BF002074
:101830004FF000404FEAD13706FB07FC4FEA1C4C43
:101840000CFB0BF7D21B03FB0CF761EB07010CFB46
:101850000EF7B0EB074072EB17420CFB08F734BFF2
:10186000A2EB0742B2EB074261EB17414FEA0C448F
:101870004FEA910706FB07FC4FEA1C4C0CFB0BF7E9
:10188000B0EBC74072EB573203FB0CF734BFA2EB4F
:10189000C742B2EBC74261EB57310CFB0EF7B0EB1E
:1018A000C70072EB57720CFB08F734BFA2EBC702FC
:1018B000B2EBC70261EB5771039F4FEA816141EAC6
:1018C000921104EBCC044FEAD1374FEA826206FB57
:1018D00007FC42EA90124FEA80604FEA1C4C0CFB76
:1018E0000BF7D21B03FB0CF761EB07010CFB0EF7A8
:1018F000B0EB074072EB17420CFB08F734BFA2EBCA
:101900000742B2EB074261EB17414FEA8C554FEAB1
:10191000910704EB9C2406FB07FC4FEA1C4C0CFBD4
:101920000BF7B0EBC74072EB573203FB0CF734BF39
:10193000A2EBC742B2EBC74261EB57310CFB0EF78B
:10194000B0EBC70072EB57720CFB08F734BFA2EB89
:10195000C702B2EBC70261EB577115EB4C254FEA9A
:10196000816141EA92114FEA82624FEAD13742EA3D
:10197000901206FB07FC44F100044FEA80604FEA36
:101980001C4C0CFB0BF7D21B03FB0CF761EB0701A4
:101990000CFB0EF7B0EB074072EB17420CFB08F79D
:1019A00034BFA2EB0742B2EB074261EB174115EBE4
:1019B0001C154FEA813141EA92414FEA823242EAF4
:1019C00090424FEA80304FEA0C7644F1000448EA36
:1019D00003434EEA0B484FF0000EB2EB080C71EBDC
:1019E000030724BF624639464EEB0E0E4FF0000B44
:1019F0000018524149414BEB0B0BB2EB080C71EB59
:101A000003077BF1000B24BF624639464EEB0E0EF6
:101A10004FF0000B0018524149414BEB0B0BB2EB5E
:101A2000080C71EB03077BF1000B24BF62463946BB
:101A30004EEB0E0E51EA020718BF46F0010616EBF8
:101A40000E7655F1000254F1000103D5BDE889017D
:101A5000BDE80088BDE88901BDE80048B6195241DB
:101A600041EB0101A3F10103704780807F7E7D7C03
:101A70007B7A7978777676757473727171706F6E20
:101A80006E6D6C6C6B6A6A696868676666656464CB
:101A9000636362616160605F5F5E5E5D5D5C5C5B55
:101AA0005B5A5A59595858575756565555555454C4
:101AB000535352525251515050504F4F4F4E4E4D22
:101AC0004D4D4C4C4C4B4B4B4A4A4A49494948486E
:101AD00048474747474646464545454444444443AE
:101AE00043434342424242414141002B9C4630D451
:101AF00077002BD01CB54FEA370703B44FF0100026
:101B00004FF01001BAF1000F06D0BCF1000FDCBF9E
:101B100040F0080040F008014FF000000FBCBDE8A5
:101B200010400BF1010BBBF1010F08BF5FEA170773
:101B300022BF12F1010211F101014FF0004143F106
:101B4000000300F0004043EA00007047F9D3570853
:101B5000D0E746EA064613F1400F4FEA16461FDD6E
:101B600013F1200FDFBF16430A46002120335B42EA
:101B7000BED0C3F1200746EA064602FA07F74FEA4D
:101B8000164646EA0706C3F1200722FA03F201FAD5
:101B900007F721FA03F14FF0000342EA0702A7E733
:101BA00046EA020646EA06464FEA164646EA0106B5
:101BB000BCBF46EA0646360C4FF000034FF0000269
:101BC0004FF0000194E72DE9804C9A46934670B49B
:101BD00091E8380007C831EA400C48BF34EA430CAA
:101BE00003D5FFF7E6FDFFF780FFF0BCBDE8008CF2
:101BF0002DE9804C9A46934670B491E8380007C8A6
:101C000010F0804F08BF13F0804F03D100F005F8AB
:101C1000FFF76BFFF0BCBDE8008C20F07F4780EA47
:101C2000030023F07F4C07EB0C03A3F57C5300F07B
:101C30000040A3F1FE0392F0000F00F0B38095F096
:101C4000000F00F077802DE901494FEA11404FEA7B
:101C5000144621EA004800FB06FC24EA064708FB7C
:101C600006F607FB08F800FB07F718EB06484CEBF5
:101C7000164C4FEA124B18EB07484FEA15464CEB4F
:101C8000174022EA0B4E0BFB06FC25EA06470EFB2B
:101C900006F607FB0EFE0BFB07F71EEB064E4CEBA2
:101CA000164C4FF000061EEB074E4CEB174B18EB93
:101CB0000B0840F1000018EB0E0B58EB000840F148
:101CC00000008F1A4FF000013CBFC943661B14BFD0
:101CD000B5EB040C00213CBFC943F61B4FEA174487
:101CE0004EEA8E0E27EA04454FEA1C4704FB0762C2
:101CF0002CEA074C05FB07F70CFB05F604FB0CFC74
:101D000016EB074642EB174216EB0C4642EB1C4221
:101D10001BEB060658EB0202414146EA9E0601D53E
:101D2000BDE80189B619524141EB0101A3F101035C
:101D3000BDE801894FEA14454FEA114724EA0546F8
:101D400021EA074C05FB07F406FB07F70CFB06F13D
:101D500005FB0CFC11EB074144EB17444FEA12471B
:101D600011EB0C4144EB1C4422EA074C05FB07F243
:101D700006FB07F70CFB06F605FB0CFC16EB07460B
:101D800042EB174216EB0C4642EB1C456A1854F125
:101D9000000148BF7047B619524141EB0101A3F160
:101DA0000103704795F0000F37D04FEA11424FEA18
:101DB000144721EA024624EA074C02FB07F106FB1E
:101DC00007F70CFB06F402FB0CFC14EB074441EB99
:101DD00017414FEA154714EB0C4441EB1C4125EA2F
:101DE000074C02FB07F506FB07F70CFB06F602FBA8
:101DF0000CFC16EB074645EB174516EB0C4645EB7E
:101E00001C42121951F1000148BF7047B6195241E6
:101E100041EB0101A3F1010370474FEA14454FEA7A
:101E2000114724EA054621EA074C05FB07F106FBAA
:101E300007F70CFB06F24FF0000605FB0CFC12EB5B
:101E4000074241EB174112EB0C4251EB1C4148BFDA
:101E50007047921841EB0101A3F1010370470000A4
:101E6000014800F063BB00001000002010B5846A38
:101E7000616D11F0500F06D0616DC90625D5204661
:101E800000F053FB10BD606D40F400706065206889
:101E90000168090716D502F03FFB78B12068C068D9
:101EA000800400280ADB606D20F480706065606D3E
:101EB000C00403D4606D40F001006065204600F06E
:101EC00013FB10BDC0688007EBE7E16C496BBDE810
:101ED0001040084710B5806A416D41F040014165EE
:101EE000816D41F00401816500F01FFB10BD10B54C
:101EF000806A00F019FB10BD70B504460068816867
:101F00008268C1F3400112F0010F28D039BB81680B
:101F100001F00D01012914D18168124A1140891C78
:101F2000816021680320086001F080F8054612E016
:101F300001F07CF8401B02280DD920688068C0079A
:101F400009D0606D40F010006065A06D40F00100A8
:101F5000A065012070BD20688068C007E8D100201E
:101F600070BD0000C0FFFF7FF8B504460020009060
:101F70002068816811F0010F41D18168214A114226
:101F80002ED18168D5432940491C81601E48806854
:101F900000F0E07000020DD51C481D490068B0FB40
:101FA000F1F0401C00EB4000800000E0401E00907B
:101FB0000028FBD101F03AF806461BE0816811F0D9
:101FC000010F03D181682940491C816001F02EF87E
:101FD000801B02280ED920680068C043C00709D0C2
:101FE000606D40F010006065A06D40F00100A065DC
:101FF0000120F8BD20680168C943C907DED100206F
:10200000F8BD00003F000080000304500C000020D9
:10201000400D0300FEE70000014800F0F9BD00009C
:102020007400002030B590F8444004F01C050124F1
:10203000AC40056C6C60046863608368102B0368B7
:1020400003D099600068C26030BD9A600068C160CA
:1020500030BD704772B6FEE7F8B50026044600961C
:1020600090F850000D4601280BD0012084F8500054
:102070002046FFF741FF0100606D04D040F01000E2
:102080002BE00220F8BD20F4885040F0020060658B
:1020900020688268134B1A4005F080431A4342F0CF
:1020A000004282604FF4912320680EE0009A521C97
:1020B00000929A4209D3606D20F0020040F01000B7
:1020C000606584F850600120F8BD8268D20FEDD1C0
:1020D000606D20F0020040F00100606584F85060FF
:1020E0000846F8BDC0FFFF3F704770477047704714
:1020F000704700002DE9F84F00270446009790F83C
:102100005000DFF8B0930D46B846012811D00126E3
:1021100084F85060206802F0FBF960B1606D40F017
:10212000200060655FF0010784F85080384600F0B9
:10213000D7B90220FBE769680C20052912D80229CB
:1021400007D0032907D0042907D0052907D0062185
:1021500007E0686006E0122103E0182101E04FF477
:1021600080716960D5E90021236800EA9110184464
:10217000036B01F01F014FF01F0C0CFA01FCC2F3BE
:10218000846223EA0C038A4013430363206802F04D
:10219000BFF98246206802F0B7F95AEA00001DD163
:1021A000AA682968206802F0BFF920686969C268D6
:1021B000C2F3C102520091402A69042A0FD000EBF9
:1021C00082002B68026EDFF8F0C203F0F84302EAE7
:1021D0000C020B431A4342F00041016672E00021F9
:1021E00002F08CF9400320684FF0000172D002F039
:1021F00085F990FAA0F0B0FA80F1286842036ED019
:1022000090FAA0F0B0FA80F0814204D10022114689
:10221000206802F098F90121206802F06FF940036C
:1022200020684FF001015DD002F068F990FAA0F04B
:10223000B0FA80F12868420359D090FAA0F0B0FAC1
:1022400080F0814204D100220121206802F07BF954
:102250000221206802F052F9400320684FF0020189
:1022600048D002F04BF990FAA0F0B0FA80F128685B
:10227000420344D090FAA0F0B0FA80F0814204D139
:1022800000220221206802F05EF90321206802F09A
:1022900035F9400320684FF0030133D002F02EF9E6
:1022A00090FAA0F0B0FA80F1286842032FD090FA9B
:1022B000A0F0B0FA80F0814204D10022032120680E
:1022C00002F041F92068816811F0010F22D0ACE0E2
:1022D00000E004E002F012F9C0F384618DE7C0F37E
:1022E000846091E702F00AF9C0F38461A2E7C0F3C9
:1022F0008460A6E702F002F9C0F38461B7E7C0F397
:102300008460BBE702F0FAF8C0F38461CCE7C0F365
:102310008460D0E72A7B296850F8B03FC1F3120CE3
:1023200023EA0C0302F0180C644A22FA0CF20A4069
:1023300013430360E968494577D1286841031CD0FD
:1023400090FAA0F1B1FA81F1491C01F01F010929AD
:102350004FEA403132D8002912D000BF90FAA0F1E4
:10236000B1FA81F101F1010101F01F0106FA01F654
:1023700009D100BFC0F3846109E0C0F38461E3E7E1
:10238000C0F38461EEE790FAA0F1B1FA81F101F1B6
:10239000010101F01F0146EA816102D1C0F38460AE
:1023A00003E090FAA0F0B0FA80F000F1010000F034
:1023B0001F0000EB400041EA005132E000290ED03E
:1023C00090FAA0F1B1FA81F101F1010101F01F01D0
:1023D00006FA01F606D100BFC0F3846106E0C0F33F
:1023E0008461F1E790FAA0F1B1FA81F101F1010104
:1023F00001F01F0146EA816102D1C0F3846003E06D
:1024000090FAA0F0B0FA80F000F1010000F01F0097
:102410002B4A00EB400002EB005041EA000141F082
:102420000071AA68206802F07FF826482A680242F4
:102430003FF47AAE24488168244D254B01F0E071C9
:10244000AA421BD10D0219D422689A427FF46CAEC5
:10245000826841F4000122F0E0720A4382601D4864
:102460001D490068B0FBF1F0401C00EB400080000B
:1024700000E0401E00900028FBD155E6174DAA420F
:1024800007D1CD0105D422689A42F6D141F080717E
:102490000AE06FF00045EA42EFD14A02EDD422682B
:1024A0009A42EAD141F48001826822F0E0720A4344
:1024B000826039E600007F4000F0FF03FFFF070065
:1024C000000020FE0000088000030450000052C7F6
:1024D000000004500C000020400D0300000084CBDD
:1024E00018BCBDE8E08F000010B500680B498842B9
:1024F00013D10B494FF4006201F2FE70FDF7BDFFEE
:1025000003F0C4FD03F030FE0549BDE8104040F281
:102510000142091F034800F04FBA10BD00000450EB
:10252000F801002010000020704770472DE9F041AD
:102530000446006806684568B0070ED5A8070CD5A4
:10254000606DC00603D4606D40F400606065204695
:10255000FFF7CAFD216802200860700701D56807EF
:1025600003D4300725D5280723D5606DC00603D4D2
:10257000606D40F400706065206801F0CDFF90B19F
:102580002068C16889040ED4016809070BD501F0E1
:10259000BFFF00287DD0606D40F010006065A06D29
:1025A00040F00100A0652046FFF79EFF21680C2047
:1025B0000860B00601D5A80603D4700631D56806B8
:1025C0002FD5606DC00603D4606D40F40050606587
:1025D0002068C16C11F0C00F7DD0002701F09CFF76
:1025E00021680246C868B7B1830102D59AB1820456
:1025F00011D40A6852060ED580020CD4084601F0A8
:1026000083FF00287FD0606D40F010006065A06DF2
:1026100040F00100A0652046FFF767FD21686020BB
:10262000086030060BD5280609D5606D40F480306F
:102630006065204600F054F9216880200860F005AC
:102640000CD5E8050AD5606D40F400306065204681
:10265000FFF74DFD21684FF480700860B0050CD580
:10266000A8050AD5606D40F4802060652046FFF71C
:102670003FFD21684FF400700860F00617D5E806AA
:1026800015D5606B18B12068C068C0070CD0606DAC
:1026900000E024E040F480606065A06D40F002003E
:1026A000A0652046FFF741FF2168102008607005F3
:1026B0003BD5680539D5606D40F480406065A06DFC
:1026C00040F00800A06521684FF480600860204653
:1026D000BDE8F04101E014E015E0FFF707BD206818
:1026E000416821F00C014160606D20F480706065EC
:1026F000606DC0043FF557AF606D40F0010060654C
:1027000051E701276AE72068416821F060014160D4
:10271000606D20F480506065606DC0053FF57BAF53
:10272000606D40F00100606575E7BDE8F081000074
:10273000F8B54FF0000504002E46009502D0606DFC
:1027400010B107E00120F8BD204600F0CBF8A665E7
:1027500084F8506020688168C1F3407119B18168C4
:10276000574A1140816020688168C1F3007189B9BE
:102770008168544A114041F0805181605248534968
:102780000068B0FBF1F04000801C00E0401E0090AB
:102790000028FBD120688168C1F3007141B9616DE7
:1027A00041F010016165A16D41F00101A1650125B4
:1027B00001F0AEFE616DC90600D430B1606D40F02D
:1027C0001000606501252846F8BD606D20F480701A
:1027D00040F0020060652068806810F0010F0BD1A6
:1027E0003B48806810F0010F06D13A486168826862
:1027F00022F47C120A438260E168606B627E0843C7
:10280000A16841EA4231084394F8201040EA0140AF
:10281000012904D1A18C304A02EB41410843A16A4D
:1028200029B101F47071E26A014342EA01002168B2
:10283000CA682A4B1A400243CA60206801F068FE49
:102840000646206801F060FE304315D1207E94F8E2
:102850003010800340EA41002168CA6844F2020354
:102860009A430243CA6094F8380001280CD02068CB
:10287000016921F001010161206901282068016BD3
:1028800021F00F0111D013E0D4E90F010843D4E97E
:1028900011121143084321680A6940F2FC739A43FC
:1028A000104340F001000861E6E7E269521E11435F
:1028B0000163606D20F0020040F00100606582E776
:1028C000C0FFFF5FC0FFFF7F0C000020400D030032
:1028D00000000450000304500000FEFF07C0F0FF9A
:1028E0007047000070B59CB00646142115A8FDF78E
:1028F0003BFE54216846FDF737FE2B49306888427D
:1029000050D14FF4804000908003129001240A219E
:10291000CDE9024102200721CDE904100190069083
:10292000C0050790684600F043FD08B1FFF792FB31
:102930001E49C86C40F40050C864C86C00F40050D4
:102940001A90C86C40F00100C864C86C002500F003
:1029500001001A900B201795CDE9154015A94FF0ED
:10296000904000F05DFA134C1148C4E90005802046
:10297000A560C4E90350400060618000A061202090
:10298000C4E90705204600F0A1F908B1FFF762FB92
:10299000F464002211461220A66200F09BFC122073
:1029A00000F08AFC1CB070BD000004500010024012
:1029B000080002407400002070B5044615460E461B
:1029C000006801F0A5FDE0BB94F85000012842D05A
:1029D000012084F850002046FFF7C6FA002110B10C
:1029E00084F8501070BD606D40F60162904340F471
:1029F00080706065606DC00404D5A06D20F0060095
:102A0000A06500E0A165E26C1448D062E26C144855
:102A10001063E26C1348506322681C20106084F835
:102A200050102068416841F0100141602068C16881
:102A300041F00101C16021682B4632464031E06C13
:102A400000E008E000F0A2F921688A68064B1A400D
:102A5000121D8A6070BD022070BD00006D1E00084E
:102A6000EF1E0008D51E0008C0FFFF7F2DE9F047CC
:102A70000446407990460E4601280BD04FF00109DC
:102A800084F8059002202071316808F010050429AF
:102A900003D045E00220BDE8F08700F0C7FA074602
:102AA0005FEA08004FF0030805D01CE000F0BEFA12
:102AB000C01B01280FD82068406B0004F6D4012009
:102AC00000F09CF92168B069086416E000F0AEFAE5
:102AD000C01B012807D9206940F00800206184F854
:102AE00004800320D7E72068406B0028EEDB01203C
:102AF00000F084F92168B06948642068816C40F274
:102B0000FF32AA409143F269AA40114381642168CF
:102B1000C86CFF22AA409043326AAA401043C8649E
:102B20003069012808D12268916B1F20A840814399
:102B30007069A840084390632268D16B0720A840C1
:102B40008143B36830681843F3681843A8400843CA
:102B5000D063206801684FF48042AA40914301602D
:102B60002268106840F6FC71A94088437168A9404A
:102B70000143116020680168C022AA4091430160AE
:102B800084F804900020607185E770B5040003D0DC
:102B90002079002510B105E0012070BD6571204647
:102BA00000F008F80220207125610120207100202A
:102BB00070BD000010B586B0044614216846FDF7CC
:102BC000D3FC1149206888421BD11048816D41F027
:102BD00000518165816D01F000510591C16C41F09A
:102BE0000101C164C06C694600F00100059010202D
:102BF000009003200190002002904FF0904000F0E0
:102C00000FF906B010BD0000007400400010024033
:102C1000F0B4016C0C6801680D6890F8442002F073
:102C20001C06042202FA06F3234211D06B070FD5CB
:102C30000B689B0603D40B6823F004030B6090F829
:102C4000441001F01C018A40016C4A60016B1DE0D8
:102C5000022303FA06F727424FF0000C4FF001025F
:102C600018D0AF0716D50C68A40605D40C6824F05C
:102C70000A040C6080F8252090F8441001F01C0133
:102C80008B40016C4B6080F824C0C16A00291AD0C7
:102C9000F0BC08470823B340234214D02B0712D5B9
:102CA0000B6823F00E030B6090F84410036C01F0E6
:102CB0001C0102FA01F15960C26380F8252080F8F6
:102CC00024C0416BE2E7F0BC7047000070B568B10A
:102CD0002B4C036814212B4AA34209D22A4C1C44D2
:102CE000B4FBF1F18900C0E910210BE0012070BDB7
:102CF000234C64421C44B4FBF1F189004164204937
:102D000008390164022180F825101C6847F6F0712B
:102D10008C43D0E902152943D0E9045635432943B1
:102D200085692943C5692943056A294321431960F7
:102D30008168B1F5804F19D0036C0F21934202D105
:102D400052F8A83F02E00E4AA032136890F84440BF
:102D500004F01C04A1408B43136090F84430416898
:102D600003F01C0399401368194311600021C163EB
:102D7000012280F8252080F82410084670BD00004C
:102D80000804024000000240F8FFFDBF70B5044691
:102D900090F82400002501280CD0012084F824009C
:102DA00094F825600020012E06D084F82400022526
:102DB000284670BD022070BD022684F82560E063BD
:102DC0002068066826F0010606602046FFF72AF90B
:102DD000206B00282068016802D041F00E0106E057
:102DE00021F0040101602068016841F00A010160DE
:102DF0002068016841F001010160D9E770B504461F
:102E000000F014F90546601C02D004480078044420
:102E100000F00CF9401BA042FAD370BD0000002066
:102E20002DE9F04FDFF8E091002301270326A9F1F7
:102E3000040B85B00F2509F1040AABF1040EDBE0A9
:102E400007FA03FC12EA0C027ED00C7904F00304AA
:102E5000012C01D0022C20D1846800945C0006FA79
:102E600004F80494009C24EA08040094D1F80C802F
:102E7000049C08FA04F8009C48EA0408C0F808809A
:102E8000446824EA0C0491F804C0CCF3001C0CFA4A
:102E900003FC4CEA040CC0F804C00C79E443A4071A
:102EA0000DD0D0F80CC04FEA430806FA08F42CEA1B
:102EB000040C8C6804FA08F444EA0C04C4600C792D
:102EC00004F00304022C19D1DC0800EB8404029402
:102ED000246A4FEA437C4FEADC6CCDF810C005FA57
:102EE0000CFC24EA0C04D1F81080DDF810C008FABC
:102EF0000CF848EA0408029CC4F8208004684FEAF1
:102F0000430806FA08FC24EA0C0491F804C00CF00B
:102F1000030C0CFA08FC4CEA040CC0F800C04C6826
:102F200014F4403F67D0394CD4F860C04CF0010C29
:102F3000C4F860C0246E23F0030C04F00104009474
:102F4000334C6444029400E055E0A4684FEA837C6B
:102F50004FEA1C7805FA08FC24EA0C04B0F1904F03
:102F600006D0DFF8B0C0604505D14FF0010C0BE092
:102F70004FF0000C08E0DFF8A0C0604502D14FF030
:102F8000020C01E04FF0070C0CFA08FC4CEA040CB0
:102F9000029CC4F808C0D9F80040CC46D1F804809F
:102FA00094435FEAC82800D51443CCF80040DAF80F
:102FB0000040D446D1F8048094435FEA882800D5C5
:102FC0001443CCF80040DBF80040DC46D1F8048024
:102FD00094435FEA883800D51443CCF80040DEF80B
:102FE0000040F446D1F8048094435FEAC83800D525
:102FF0001443CCF800405B1C0C682246DC407FF494
:103000001FAF05B000F00AB80804014000100240EC
:1030100000000140000400480008004830BCBDE842
:10302000C08F0AB181617047816270470148806832
:10303000704700000000002090F84120202A24D191
:1030400090F84020012A20D0012280F8402024223C
:1030500080F841200268136823F0010313600268BE
:10306000136823F480531360026813680B431360E2
:1030700001680A6842F001020A60202180F84110CC
:10308000002180F84010084670470220704790F8F1
:103090004120202A22D190F84020012A1ED001226E
:1030A00080F84020242280F841200268136823F031
:1030B000010313600268136823F4706343EA01217B
:1030C000116001680A6842F001020A60202180F85C
:1030D0004110002180F840100846704702207047D8
:1030E00070B5040004D094F84100002510B106E04A
:1030F000012070BD84F84050204600F04DF8242097
:1031000084F841002068016821F0010101606068D5
:10311000216820F0706008612068816821F4004116
:103120008160E0680128A06807D040F4044021686D
:103130008860E068022803D006E040F40040F6E72B
:1031400021684FF40060486020684168114A1143CB
:1031500041602068C16821F40041C160D4E90401E4
:103160000843A16940EA01202168C860D4E9070149
:103170000843216808602068016841F0010101608E
:103180006564202084F84100256384F842500020C3
:1031900070BD00000080000230B59BB004461421D1
:1031A00015A8FDF7E1F954216846FDF7DDF9184946
:1031B0002068884229D14020002500900B95684660
:1031C00000F0F6F808B1FEF745FF124CE06C40F055
:1031D0000100E064E06C15A900F001001A904FF4C2
:1031E000C06015901220CDE9160503201890042028
:1031F00019904FF09040FFF713FEA06D40F40010BF
:10320000A065A06D00F400101A901BB030BD000046
:1032100000540040001002400248816802781144C6
:10322000816070470000002010B50024032000F0EA
:1032300071F80F2000F008F808B1012401E000F057
:1032400025F8204610BD000070B50E4E054600243E
:10325000307898B14FF47A71B1FBF0F00A490968FF
:10326000B1FBF0F000F0B2FD40B9102D06D2002203
:103270002946501E00F02EF8756000E0012420461B
:1032800070BD0000000000200C000020094808B5B7
:10329000016E41F001010166016E01F00101009132
:1032A000816D41F080518165806D00F0805000900B
:1032B00008BD000000100240002809DB00F01F02DA
:1032C000012191404009800000F1E020C0F8001188
:1032D00070470000F0B40E4B1B680C46C3F302238A
:1032E000C3F10705042D00D90425191D072901D2B2
:1032F000002300E0DB1E012606FA05F1491E2140ED
:1033000099409E40761E16403143F0BC01F056BFF6
:103310000CED00E0064900F0070208684FF6FF03D5
:10332000184040EA0220034A10430860704700003A
:103330000CED00E00000FA051649B0F5007F0868C2
:10334000C0F3412009D0022805D0086820F4C060ED
:1033500040F480600860002070470128FBD00868B6
:1033600020F4C06040F4007008600B48322200680E
:1033700050430A4AB0FBF2F0401C00E0401E4A698C
:10338000520501D50028F9D148694005E3D503204D
:1033900070470000007000400C00002040420F0009
:1033A0000248006800F4C0607047000000700040F0
:1033B0002DE9F84F0446002700889C4D3E46000545
:1033C00015D5E06B60B1B0F5000F04D0B0F5400F3B
:1033D0002BD001270AE0E86840F48030E86024E060
:1033E0000021201D01F01EFA07001ED03E46206875
:1033F000800338D5A86D4FF00008C00009D4A86D2F
:1034000040F08050A865A86D4FF0010800F0805092
:103410000090DFF81CA2DAF8001041F48071CAF8BD
:103420000010FFF703FE814610E0D5F88800E16B3D
:1034300020F440000843C5F88800D8E7FFF7F6FD00
:10344000A0EB0900022801D9032704E0DAF8000004
:10345000C005F3D5EFB33E46B8F1000F03D0A86D19
:1034600020F08050A8652078C00707D0D5F88800E4
:10347000216A20F003000843C5F8880020788007FF
:1034800007D5D5F88800616A20F00C000843C5F81C
:1034900088002078800607D5D5F88800A16A20F436
:1034A00040600843C5F888002088800507D5D5F816
:1034B0008800616B20F440200843C5F8880020880C
:1034C000400509D5D5F88800A16B20F440100843C9
:1034D00000E02EE0C5F888002078400607D5D5F832
:1034E0008800E16A20F440500843C5F8880020882D
:1034F000C00507D5D5F88800216B20F4403008437B
:10350000C5F8880020884FF0006780044FF080687D
:103510004ED5D5F88800216C20F040600843C5F8EE
:103520008800206CB8423BD1E86840F48010E86025
:103530003EE0D5F8900010F4407014D0216D814227
:1035400011D0D5F89000D5F8901020F4407041F4D7
:103550008031C5F89010D5F8901021F48031C5F86D
:103560009010C5F89000C00711D0FFF75FFD074627
:1035700041F2883907E000BFFFF758FDC11B4945FC
:1035800001D9032668E7D5F890008007F4D5D5F86F
:103590009000216D20F440700843C5F890005BE76F
:1035A000404505D10121201D01F03CF900B106463E
:1035B0002068400317D5D5F88800616C20F0406082
:1035C0000843C5F88800606CB84204D1E86840F44C
:1035D0008010E86007E0404505D10121201D01F081
:1035E00021F900B106462088400411D5D5F888009D
:1035F000A16C20F040500843C5F88800A06CB0F1E1
:10360000805F05D10221201D01F00CF900B10646B2
:103610002088000406D555F8880FE16C20F0804022
:1036200008432860304600F005B800000010024052
:103630000070004018BCBDE8E08F00002DE9F047A5
:103640000F4605006BD0494E306800F00700B842C5
:1036500009D2306820F0070038433060306800F04D
:103660000700B8425BD12878414C80070AD5A8688A
:10367000A16801F0F001884204D9A16821F0F001AD
:103680000143A1602878C0072CD06868032811D0B6
:10369000022812D0216898B1490500293FDAA168B3
:1036A00021F003010143A160FFF7C0FC804641F215
:1036B000883910E021688901EFE721688903ECE788
:1036C0008907EAE7FFF7B2FCA0EB0801494502D9F8
:1036D0000320BDE8F087A068696800F00C00B0EB3B
:1036E000810FEFD1287880070AD5A868A16801F07A
:1036F000F001884204D2A16821F0F0010143A160E9
:10370000306800F00700B8420BD9306820F007009D
:1037100038433060306800F00700B84201D0012023
:10372000D7E72878400705D5A068E96820F4E0606D
:103730000843A0602878000706D5A068296920F40E
:10374000605040EAC100A06000F03EF8A168094A5C
:10375000C1F30311515C01F01F01C8400649086024
:1037600006480068BDE8F047FFF76EBD0020024044
:1037700000100240086A00080C000020040000202D
:103780000548064900688968054AC1F30221515C71
:1037900001F01F01C84070470C00002000100240DB
:1037A000486A00080548064900688968054AC1F367
:1037B000C221515C01F01F01C84070470C0000207D
:1037C00000100240486A000870B5254900231846D9
:1037D0008A68CC6812F00C0204F00306214C4FEA10
:1037E000640509D00C2A05D0042A32D0082A00D159
:1037F000284670BD012E10D10B681B0704D4D1F8E8
:103800009430C3F3032302E00B68C3F30313164E93
:1038100056F82330DAB10C2AEBD1C86800F0030067
:10382000022818D0032818D01846CA68CB68C2F3FB
:103830000212C3F306234343521CB3FBF2F2C868DF
:10384000C0F34160401C4000B2FBF0F070BD184670
:1038500070BD204670BD2046E7E72846E5E700003A
:10386000001002400024F400186A00082DE9F84313
:1038700004006FD0FA4DA86800F00C06E86800F06C
:1038800003072078C00664D576B10C2E01D1012F34
:103890000AD0A069002828687AD040F0010028608A
:1038A000FFF7C4FB80465DE02868800702D5A06969
:1038B0000028DED0216A2868000703D5286800F0B8
:1038C000F00004E0D5F89400F02202EA10108142E2
:1038D00016D9084601F03CF800283BD1286840F092
:1038E000080028602868216A20F0F000084328605A
:1038F0006868E16920F47F4040EA0120686016E0D2
:10390000286840F0080028602868216A20F0F0004C
:10391000084328606868E16920F47F4040EA01209C
:10392000686026B9206A01F013F80028D5D1FFF7A6
:103930004BFFA968CB4AC1F30311515C01F01F0191
:10394000C840C9490860C9480068FFF77DFC0028E5
:103950007ED12EE0CAE000BFFFF768FBA0EB0800B5
:10396000022876D828688007F6D5286840F0080035
:1039700028602868216A20F0F00008432860686801
:10398000E16920F47F4040EA0120686011E0FFE730
:1039900020F001002860FFF749FB804606E000BFE9
:1039A000FFF744FBA0EB08000228DAD8286880075C
:1039B000F6D42078C00740D0082E18D00C2E01D1A4
:1039C000032F14D06068B0F5803F17D0B0F5A02F5A
:1039D000286817D020F480302860286820F48020E0
:1039E00028606068E0B1FFF721FB804614E028689A
:1039F000800322D56068002878D01EE0286840F453
:103A00008030EDE740F480202860F7E7FFF70EFBF9
:103A1000A0EB08006428A4D828688003F6D50CE041
:103A2000FFF704FB804605E0FFF700FBA0EB080072
:103A3000642896D828688003F6D4207880073BD580
:103A4000042E11D00C2E01D1022F0DD0E06801E020
:103A5000AAE1FFE0002828681ED040F480702860AA
:103A6000FFF7E4FA07460CE0286840050CD5E0684B
:103A70000028C1D008E000BFFFF7D8FAC01B022819
:103A800093D828684005F7D56868217C20F0F85065
:103A900040EA016068600FE020F480702860FFF762
:103AA000C5FA074605E000BFFFF7C0FAC01B0228B1
:103AB000B1D828684005F7D42078000729D5606977
:103AC0000028D5F8940012D040F00100C5F8940009
:103AD000FFF7ACFA074604E0FFF7A8FAC01B02287C
:103AE00099D8D5F894008007F6D512E02BE120F0A4
:103AF0000100C5F89400FFF799FA074605E000BFFA
:103B0000FFF794FAC01B022885D8D5F894008007E7
:103B1000F6D42078400766D5A86D0027C00008D4E9
:103B2000A86D40F08050A865A86D012700F0805076
:103B300000904F480168C90512D40168814641F4DC
:103B400080710160FFF772FA804605E0FFF76EFAB8
:103B5000A0EB080002287DD8D9F80000C005F5D5F3
:103B6000A068012816D00528D5F8900017D020F0BD
:103B70000100C5F89000D5F8900020F0040000BFC7
:103B8000C5F89000A06841F28839C0B1FFF74EFA3D
:103B900080460FE0D5F8900040F00100F0E740F0DB
:103BA0000400C5F89000F5E7FFF740FAA0EB080124
:103BB00049454FD8D5F890008007F5D50EE0FFF7BE
:103BC00035FA804606E000BFFFF730FAA0EB0801A7
:103BD00049453FD8D5F890008007F5D41FB1A86DAE
:103BE00020F08050A8652078800628D5606A0028DB
:103BF000D5F8980012D040F00100C5F89800FFF702
:103C000015FA074605E000BFFFF710FAC01B0228AF
:103C100020D8D5F898008007F6D510E020F00100F4
:103C2000C5F89800FFF702FA074604E0FFF7FEF92F
:103C3000C01B02280ED8D5F898008007F6D4A06AD9
:103C4000F0B3022816D00C2E7DD0286820F08070AA
:103C5000286000E0A7E0FFF7E9F90446A6E00000CD
:103C600000100240086A00080C0000200400002038
:103C700000700040E868E26A00F00301914228D138
:103C8000216B00F0700209011039914221D1626B61
:103C900000F4FE41B1EB022F1BD194F8382000F064
:103CA0007841B1EBC26F14D1A18F00F4C002490872
:103CB0004905A1F5001191420BD194F8401000E0A4
:103CC0006AE04908490600F0C060A1F10071814234
:103CD0004BD00C2E73D02868400170D4286820F097
:103CE00080702860FFF7A2F9064604E0FFF79EF90E
:103CF000801B022857D828688001F7D4F4E90B010B
:103D00006FF00F0202EB01110843218A52044908A7
:103D100002EB4151A26841EA02210843217D4FF0A4
:103D20007E42490802EB41610843217B40EAC160C1
:103D3000E968244A11400843E860286840F0807030
:103D40002860E86800E03AE040F08070E860FFF743
:103D50006DF9044605E000BFFFF768F9001B022873
:103D600021D828688001F7D527E02868800124D46D
:103D7000286840F080702860E86840F08070E86053
:103D8000FFF754F9044604E0FFF750F9001B02283E
:103D900009D828688001F7D50FE000BFFFF746F982
:103DA000001B022802D90320BDE8F883286880019F
:103DB000F4D4E86804490840E8600020F4E70120F2
:103DC000F2E700008C809D01FCFFEEFE10B5401E66
:103DD000B0F1807F01D3012010BD4FF0E02460617D
:103DE0000F21601701F0EAF90020A061072020618F
:103DF000002010BD30B590F83C20012A37D00122B8
:103E000080F83C20CA688C6822F4407222434C68D7
:103E100022F4806222430C6822F4006222430C697F
:103E200022F4805222434C6922F4005222438C6ACD
:103E300022F4804222430C8B22F4702242EA044294
:103E40000C4D04680023AC420CD18D8C22F470021E
:103E500042EA0552CD6922F080722A43096A22F0B3
:103E600000720A43626480F83C30002030BD0220BA
:103E700030BD0000002C0140F0B590F83C20012A34
:103E800029D0012480F83C40022280F83D200368BC
:103E90005A689D68114EB34203D122F470074A68F4
:103EA0003A4322F070070A683A435A600268B24205
:103EB00005D0B2F1804F02D0094B9A4204D18968F3
:103EC00025F080031943916080F83D40002180F87F
:103ED0003C100846F0BD0220F0BD0000002C01405F
:103EE0000040014010B5040003D094F83D0010B12B
:103EF00007E0012010BD002084F83C00204600F0BF
:103F000023F8022084F83D00211D206800F0A2FD66
:103F1000012084F8480084F83E0084F83F0084F8CB
:103F2000400084F8410084F8420084F8430084F89B
:103F3000440084F8450084F8460084F8470084F87B
:103F40003D00002010BD000008B500680649884209
:103F500008D10648016E41F400610166006E00F46C
:103F60000060009008BD0000002C014000100240DD
:103F700090F83D10012901D001207047022180F8FE
:103F80003D1000680B49884205D0B0F1804F02D047
:103F90000949884207D18168084A1140062906D09C
:103FA000B1F5803F03D0016841F0010101600020BC
:103FB00070470000002C0140004001400700010054
:103FC00070B5044690F83C000025012817D0012662
:103FD00084F83C60022084F83D00226890682F4BF2
:103FE000184020F47F4090600868502838D00DDCDD
:103FF00020284FD005DC90B3102811D14AE00220D0
:1040000070BD302846D040280AD13BE060282FD030
:1040100070280DD0B0F5805F03D0B0F5005F12D0EE
:10402000012584F83D60002084F83C00284670BDDE
:10403000CB68D1E90121206800F04FFD206881683C
:1040400041F0770109E0CB68D1E90121206800F057
:1040500044FD2068816841F480418160E1E719E016
:10406000CA684968206800F089FE5021206806E08F
:10407000CA684968206800F092FE6021206800F05C
:1040800036FDCEE7CA684968206800F077FE402117
:104090002068F4E7226801461046F0E788FFFEFF3B
:1040A00010B586B0044614216846FCF75DFA0F4946
:1040B0002068884217D10E48C16C41F00101C164EB
:1040C000C06C694600F0010005904FF480700090CC
:1040D00002200190002002900390012004904FF0F4
:1040E0009040FEF79DFE06B010BD0000002C014080
:1040F0000010024070B5044690F83C0000260D46C2
:1041000001280BD0012084F83C000C2A4AD007DC9F
:1041100082B1042A20D0082A06D131E0022070BDE5
:10412000102A53D0142A63D00126002084F83C00C2
:10413000304670BD206800F0E3FC2068816941F0E2
:10414000080181612068816921F004018161206892
:1041500081692A69114311E0206800F00DFD206893
:10416000816941F4006181612068816921F4806185
:104170008161206881692A6941EA02218161D4E76D
:10418000206800F035FD2068C16941F00801C16177
:104190002068C16921F00401C1612068C1692A69F0
:1041A000114311E0206800F05DFD2068C16941F411
:1041B0000061C1612068C16921F48061C16120682A
:1041C000C1692A6941EA0221C161AEE7206800F0B5
:1041D00079FD2068416D41F0080141652068416D1D
:1041E00021F0040141652068416D2A69114311E005
:1041F000206800F095FD2068416D41F40061416543
:104200002068416D21F4806141652068416D2A6913
:1042100041EA0221416588E710B5040003D094F813
:104220003D0010B107E0012010BD002084F83C00E3
:10423000204600F022F8022084F83D00211D20686D
:1042400000F008FC012084F8480084F83E0084F85F
:104250003F0084F8400084F8410084F8420084F86C
:10426000430084F8440084F8450084F8460084F84C
:10427000470084F83D00002010BD704710B504468B
:10428000022269B1042912D0082917D00C291CD0A8
:10429000102921D094F84300012824D0012010BD1A
:1042A00094F83E000128F9D184F83E201DE094F8EE
:1042B0003F000128F2D184F83F2016E094F8400036
:1042C0000128EBD184F840200FE094F84100012848
:1042D000E4D184F8412008E094F842000128DDD1BF
:1042E00084F8422001E084F843200122206800F095
:1042F000E7FB12492068124A884204D0904202D05B
:10430000104B984203D1436C43F40043436420684C
:10431000884204D0B0F1804F01D0904207D181682B
:10432000094A1140062906D0B1F5803F03D0016843
:1043300041F001010160002010BD0000002C01408F
:1043400000400140004401400700010010B5040096
:1043500002D0A06F10B107E0012010BD002084F84A
:104360007400204600F026F82420A0672068016829
:1043700021F001010160204600F0B6FD0128ECD0DB
:10438000606A10B1204600F01CFD2068416821F4ED
:10439000904141602068816821F02A018160206895
:1043A000016841F0010101602046BDE8104000F0C5
:1043B0006CBD0000F0B59BB00446142115A8FCF7B5
:1043C000D3F854216846FCF7CFF81C49206888428E
:1043D00032D102240026684609960094FEF7E8FFD1
:1043E00008B1FDF737FE1648816D41F40031816553
:1043F000816D01F400311A91C16C41F00101C16479
:10440000C06C15A900F001001A90042081E8510049
:1044100003250720CDE918504FF090473846FEF7A6
:10442000FFFCCDE917654FF400401995CDE915045F
:1044300015A93846FEF7F4FC1BB0F0BD004400405F
:10444000001002402DE9F8430446806F1F461646CF
:104450000D4620284FD1CDB1C6B194F87400012883
:1044600049D0012084F874004FF00008C4F880801F
:104470002120A067FEF7DAFDA4F850608146A4F879
:104480005260A068B0F5805F03D004E00120BDE871
:10449000F883206928B12E465FF0000584F8748007
:1044A00010E00026FAE78021204600F00BFEB8B9A4
:1044B000C6B116F8010B21680885B4F85200401EF9
:1044C000A4F85200B4F852004B464FF00002009797
:1044D0000028E8D14FF04001204600F0F3FD30B154
:1044E0000320D4E735F8020BC0F30800E3E72020EF
:1044F000A0670020CBE70220C9E7FEE700EB8100C0
:10450000006E00F0F84070478068C0F3C00070474C
:104510008068C0F380007047C06810F4406F01D01D
:104520000020704701207047042303EAD15310B5DF
:1045300018444369C1F3045107248C40A3438A40C3
:104540001343436110BD00EB8100016E21F0004177
:10455000114301667047000030B587B018216846E6
:10456000FCF702F8184817490024C0E900148460D9
:104570000425C460C0E90445047601214176C16187
:1045800080F820408462C46280F83040446380F840
:104590003840FEF7CDF808B1FDF75CFD0B48009000
:1045A0000620CDE901057F200594CDE90305694684
:1045B0000548FDF79FFD002801D0FDF74BFD07B032
:1045C00030BD000000000450100000202000F01456
:1045D00000B589B024216846FBF7C6FF0D490C4899
:1045E00008600846FEF7D1FA08B1FDF733FD002058
:1045F000009001900290039002460490694605489D
:10460000FEF734FA002801D0FDF724FD09B000BD03
:1046100000740040BC000020094808B5816C41F0DE
:1046200001018164806C002200F0010000901146BD
:104630000B20FEF74FFEBDE808400B20FEF73CBE06
:104640000010024010B586B014216846FBF78CFFBD
:104650001548C16C41F00401C164C16C01F0040152
:104660000591C16C41F00101C164C16C01F001010F
:104670000591C16C41F00201C164C06C0B4C00F0AB
:1046800002000590002208212046FEF7CAFC0820FF
:10469000009001200021CDE90101039169462046E7
:1046A000FEF7BEFB06B010BD00100240000400483B
:1046B000134810B5114901601249416000210122DF
:1046C000C0E90212016141618161C1610162FEF7CD
:1046D00007FD08B1FDF7BEFC00210948FEF7ACFC60
:1046E00008B1FDF7B7FC00210548FEF7D0FC002813
:1046F00003D0BDE81040FDF7ADBC10BD0054004034
:10470000D0000020EC9C901010B59AB000241794B3
:10471000189415941694129413941C210BA81494B5
:10472000FBF722FF2C216846FBF71EFF2B482A4986
:1047300001600721C0E901146321C0E90314446149
:104740008461FFF7CFFB08B1FDF784FC4FF4805084
:10475000159015A92148FFF733FC08B1FDF77AFC45
:104760001E48FFF759FD08B1FDF774FC129413942D
:1047700012A91A481494FFF77FFB08B1FDF76AFCF1
:1047800060200B903220CDE90C040E940F9410940D
:1047900000220BA911481194FFF7ACFC08B1FDF7FA
:1047A00059FC00944FF40050CDE904400194029468
:1047B000039400030694CDE907400994694607482D
:1047C0000A94FFF717FB08B1FDF744FC0348FFF715
:1047D00067FC1AB010BD0000002C0140240100202D
:1047E0000D4810B50B4901604FF461214160002173
:1047F00081600C22C160C0E904128161C161016263
:104800004162FFF7A3FD002803D0BDE81040FDF78B
:1048100021BC10BD0044004070010020FEE7FEE70F
:10482000704700002DE9F041444C05468846E06899
:104830000026810728680DD0E16801F0030181425C
:1048400016D1A8B1E0686968C0F30210401C884224
:104850000ED120E0012804D0022805D0032807D17A
:1048600008E02168890701E021684905002907DB84
:1048700001265FE02168890302D421684903F5E736
:10488000E1686A686FF00F0321F0730103EB021215
:1048900011430143E160206820F080602060FEF752
:1048A000C5FB074605E000BFFEF7C0FBC01B0228A2
:1048B00037D820680001F7D4B8F1000F18D0B8F14C
:1048C000010F1DD0287D4FF07E41400801EB406074
:1048D000A96840EA01202169194A11400843206172
:1048E000206840F080602060FEF7A0FB07461AE0D9
:1048F000A868297B000240EAC1602169114AECE7FF
:10490000288A1149400801EB4050A96840EA01207B
:1049100021690E4AE1E700BFFEF788FBC01B0228B1
:1049200001D9032606E020680001F5D52069A969B0
:10493000084320613046BDE8F081000000100240CD
:10494000FF80FFF9FF80FF070000E0FFFF809FFF6F
:10495000F8B51C4D06460024A86DC00002D5FEF730
:104960001FFD0DE0A86D40F08050A865A86D00F017
:1049700080500090FEF714FDA96D21F08051A965CB
:10498000B0F5007F04D0802E07D94FF003040AE071
:10499000802E08D9A02E01D804E001D1022402E023
:1049A000702E00D101240848016821F0070121433D
:1049B0000160006800F00700A04201D00120F8BDAE
:1049C0000020F8BD00100240002002407047FEF7B2
:1049D00023BC00B597B044216846FBF7C5FD142100
:1049E00011A8FBF7C1FD4FF40070FEF7A5FC08B15C
:1049F00072B6FEE70220C1010391102100900491DC
:104A00000A900121CDE90B010A210D910721CDE981
:104A10000E1010906846FEF729FF08B172B6FEE747
:104A20000F201190032012900020139014901590E5
:104A3000042111A8FEF702FE002801D072B6FEE79D
:104A400017B000BD0248016841F470010160704771
:104A500088ED00E070B50268164B4FF08046984232
:104A600001D0B04203D122F070044A682243124CB4
:104A7000124D984205D0B04203D0A04201D0A842C6
:104A800003D122F44076CA6832434E6922F0800294
:104A9000324302608A68C2620A688262984203D026
:104AA000A04201D0A84201D10969016301214161FD
:104AB00070BD0000002C0140004001400044014056
:104AC00010B501F01F030121046A99408C43046270
:104AD000016A9A401143016210BD10B5846842EA30
:104AE000032224F47F440A432243826010BD82687B
:104AF00022F070020A4342F0070181607047000013
:104B0000F0B5026A22F001020262056A4368826916
:104B1000154C25F0020522400C6822F003021443D4
:104B20008A68134E2A43114D124FA84203D0B04257
:104B300001D0B84206D122F0080CCA6842EA0C0241
:104B400022F00402A84203D0B04201D0B84205D1FD
:104B50004D6923F440731D438B692B43436084618B
:104B6000496841630262F0BD8FFFFEFF002C0140E7
:104B7000004001400044014030B5026A22F01002BA
:104B80000262046A42688369154D2B400D6823F464
:104B9000407343EA052524F020038C6843EA04139C
:104BA000104CA04207D1CC6823F0800343EA0413E1
:104BB00023F0400305E00C4CA04202D00B4CA04275
:104BC00007D14C6922F4406242EA84028C6942EACD
:104BD00084024260856149688163036230BD0000E0
:104BE000FF8FFFFE002C01400040014000440140C7
:104BF00030B5026A22F480720262046A4268C369B4
:104C0000144D2B400D6823F003031D4324F400735F
:104C10008C6843EA0423104CA04207D1CC6823F4EB
:104C2000006343EA042323F4806305E00B4CA042B5
:104C300002D00B4CA04207D14C6922F4405242EA08
:104C400004128C6942EA04124260C5614968C1637A
:104C5000036230BD8FFFFEFF002C01400040014089
:104C60000044014030B5026A22F480520262046AB4
:104C70004268C3690F4D24F400542B400D6823F49F
:104C8000407343EA05238D6844EA05340A4DA8427F
:104C900005D00A4DA84202D0094DA84204D14D6961
:104CA00022F4804242EA85124260C361496801648D
:104CB000046230BDFF8FFFFE002C01400040014028
:104CC0000044014030B5026A22F480320262046A74
:104CD0004268436D0E4D2B400D681D4324F4003394
:104CE0000C8943EA04430B4CA04205D00A4CA04275
:104CF00002D00A4CA04204D14C6922F4803242EA2C
:104D000004224260456549688165036230BD000048
:104D10008FFFFEFF002C0140004001400044014095
:104D200030B5026A22F480120262046A4268436D5E
:104D30000E4D24F400142B400D6843EA05230D8921
:104D400044EA05540A4DA84205D00A4DA84202D0B3
:104D5000094DA84204D14D6922F4802242EA8522FD
:104D6000426043654968C165046230BDFF8FFFFE44
:104D7000002C0140004001400044014010B5036A8E
:104D8000046A24F001040462846924F0F00444EA13
:104D9000021423F00A020A438461026210BD10B5B6
:104DA000036A23F0100303628369046A23F47043E7
:104DB00043EA023224F0A00343EA01118261016256
:104DC00010BD90F82410C90706D001684A68836AAC
:104DD00022F400321A434A6090F82410890706D55D
:104DE00001684A68C36A22F480321A434A6090F824
:104DF0002410490706D501684A68036B22F4802213
:104E00001A434A6090F82410090706D501684A68D9
:104E1000436B22F400421A434A6090F82410C906FA
:104E200006D501688A68836B22F480521A438A602F
:104E300090F82410890606D501688A68C36B22F4AD
:104E400000521A438A6090F82410490611D501686F
:104E50004A68036C22F480121A434A60016CB1F56F
:104E6000801F06D101684A68436C22F4C0021A43CD
:104E70004A6090F82410090606D501684A68806CDB
:104E800022F4002202434A607047F8B50026044627
:104E9000C0F88060FEF7CAF80546206800686FF029
:104EA0007E47000708D52B4600224FF4001120460C
:104EB000009700F007F960B92068006840070AD53C
:104EC0002B4600224FF480012046009700F0FAF8AC
:104ED00008B10320F8BD2020A067E067266684F8AB
:104EE00074600020F8BD00002DE9F041044601681F
:104EF00080682269E66910436269002532431043E5
:104F0000694B0A68694E324002430A602068416872
:104F1000E26821F44051114341602168A06999423F
:104F200001D0226A10438A6822F4306202438A6008
:104F30005F4927685F488F420DD1D0F8880010F094
:104F4000030006D0012838D0022834D0032821D10C
:104F500035E001211FE058498F420BD1D0F888007D
:104F600010F00C0025D0042827D0082823D00C28C6
:104F700010D124E09F420DD1D0F8880010F4406099
:104F800017D0B0F5806F18D0B0F5006F13D0B0F522
:104F9000406F14D01021494A00264FF400409F4230
:104FA0002FD171B102290FD004290FD0082973D154
:104FB0000FE00021EFE70221EDE70421EBE70821F4
:104FC000E9E7FEF7DDFB03E0104602E0FEF7FCFB3D
:104FD000F0B3626802EB420181425DD8B0EB023F60
:104FE0005AD8010E03025008181871410023FBF72C
:104FF00093F9334AA0F5407191424DD82168C860B9
:105000004BE0E3694FF6EF77834228D1092943D279
:10501000DFE801F005080B420D4242421000FEF7A6
:10502000AFFB06E0FEF7BEFB03E0104602E0FEF732
:10503000CBFB68B14100606801EB5001B1FBF0F0BF
:10504000A0F11001B94227D84FF6F071014000E0FD
:1050500023E0C0F3420001432068C1601DE009293C
:105060001AD2DFE801F005080B190D191919100003
:10507000FEF786FB06E0FEF795FB03E0104602E034
:10508000FEF7A2FB48B1616800EB5100B0FBF1F004
:10509000A0F11001B94205D9012566662846A66629
:1050A000BDE8F08180B2A9E700800040F369FFEF1E
:1050B0000038014000100240004400400024F40089
:1050C000FFFC0F002DE9F0479A4617460E460446AE
:1050D0004FF000094FF02008089D4AE0681C48D0B6
:1050E000FDF7A4FFA0EB0A00A8422AD84DB3206820
:1050F000016849073DD5C069C043000539D421681E
:105100004FF400600862206850E8001F21F4D0715D
:1051100040E80012002AF6D12068083050E8001F4D
:1051200021F0010140E80012002AF5D1C4F878808E
:10513000C4F87C80C4F8808084F874900320BDE8B3
:10514000F087216851E8000F20F4D07041E8000298
:10515000002AF6D12068083050E8001F21F0010134
:1051600040E80012002AF5D1C4F87880C4F87C80A9
:10517000E2E72068C06936EA000004D00020B842A7
:10518000ACD00020DBE70120F9E7FEE703B401988B
:105190004100009850EAC12018BF04204A0D18BFF2
:1051A00040F0010040F2FF72B2EB515F08BF40F0E7
:1051B0000200012808BF052002B070470907090E48
:1051C000002804DB00F1E02080F80014704700F0B4
:1051D0000F0000F1E02080F8141D704710EE101A47
:1051E00008B5444A6846B2EB410F28D94FF0E64073
:1051F000B0EB410F94BF00204FF0FF3000900098BB
:10520000002861DB60EE000A10F0010F45D010F0BD
:10521000020FDFED391A9FED391A00EEE11ADFEDCA
:10522000381A40EE811A21EEA01AF0EE400A40EE44
:10523000010A08BFF1EE600AB0EE600A08BD314B0A
:1052400021F0004293423CD911F0004FDFED2E0ACD
:1052500020EE201ADFED2D0A19BF31EE601A71EE33
:10526000200A31EE201A71EE600ABDEEE01A11EE4E
:10527000100A9FED271A00F0030000EEC10A9FED0F
:10528000251A009000EEC10A9FED231A00EEC10A14
:105290009FED221A00EEC10AB1E79FED211A9FEDA2
:1052A000210A10F0020F00EE810A9FED1F1A00EE96
:1052B000801AB7EE000A00EE810A18BFB1EE400A6C
:1052C00008BD00F03FF89AE710EE100A4000B0F178
:1052D0007F4F3CBFB7EE000A08BD07D14FF0010079
:1052E000FBF771F9BDE8084000F024B8BDE80840BC
:1052F00000F01CB8B61F927E336D4C39DA82083C40
:10530000A0AA2ABE490E494683F9223F0000004B5D
:105310000000C93F00A0FD390020A2331A61342CDF
:10532000B93AB2BACA9F2A3DDDFFFFBE30EE000A8D
:1053300070470000DFED020A80EEA00A704700000F
:10534000000000002DE9F0014FF07F42B2EB410F69
:105350009FBF4FF0FF310160BDE8F00170474FF093
:10536000004242EA0123C1F3C752783A551112F0C4
:105370001F0C434CCCF120067C44C1F3C752A2F170
:1053800078024FEA621204EB820254F8254008BF0B
:10539000D2E9015612D0556804FA0CF425FA06F742
:1053A0003C43976805FA0CF527FA06F8D26807FA25
:1053B0000CFCF24045EA08054CEA0206A4FB034C4B
:1053C000A5FB0352A6FB03631D449D4234BF012687
:1053D00000261319334416B1934202D903E09342D5
:1053E00001D2012200E00022624402F1200C920668
:1053F000DC0C42EA443200EE102A5B03DFED210AA6
:10540000F8EEC01A00EE103A4FEA9C1C11F0004F63
:10541000B8EE400AC0F800C020EE201A00EE105A84
:10542000DFED190AB8EE400A20EE200A71EE810A7B
:1054300070EE800A10EE902A02F500626FF30B0204
:1054400000EE902A70EEE11A31EEC11ADFED101A6B
:1054500030EE411A9FED0D0A20EE800A01EE210A7E
:105460009FED0C1A00EE810A04BFBDE8F001704701
:10547000CCF180510160BDE8F001B1EE400A704707
:1054800038450000000000360000802C22AAFD29CB
:10549000DB0FC92F0000C92F30380A2801D20120A4
:1054A0007047002070470000F0B5002318E000BFEF
:1054B00002EB430532F813406D88A408AD0850F89C
:1054C000246050F8257040F8247040F8256000EB07
:1054D000840400EB850566686F6867609B1C6E60DE
:1054E0008B42E5D3F0BD2DE9F0410588984617467B
:1054F0000C460646012A0CD1201D002107E090ED44
:10550000000AB1EE400A80ED000A0830491CA942A9
:10551000F5D3B5F5807F1BD008DC102D13D0202DDE
:1055200016D0402D19D0802D1DD10CE0B5F5007F8F
:1055300013D0B5F5806F06D0B5F5006F08D0B5F57E
:10554000805F10D109E02146304600F032F80AE0D1
:105550002146304600F0F1F805E0294601232046B7
:10556000726800F027FBB8F1000F04D0B189204623
:10557000B268FFF799FF012F19D100EE105AB7EE6C
:10558000001A0020F8EE400A81EE200A0DE0D4ED6A
:10559000000A401C60EE800AC4ED000AD4ED010A46
:1055A00060EEC00AC4ED010A0834A842EFD3BDE89A
:1055B000F0812DE9F04105462DED028B8C460288E5
:1055C0006E6801EB82005408804601EB840200EB18
:1055D0008403A7087CD091ED003AD0ED002A91ED2C
:1055E000015A90ED014A33EE228AD1ED027A91ED13
:1055F000031A90ED022AD0ED033A92ED007AD2ED33
:10560000016AD2ED021AD2ED034AD3ED000A93EDFE
:10561000010AD3ED025A93ED036A81ED008A35EE5B
:10562000048A33EE623A75EE442A81ED018A37EE40
:10563000828A31EE635A37EEC24A81ED028A31EE38
:10564000238A37EE201A30EEC72A81ED038A82EDD5
:10565000001A36EE801A76EE643A82ED011A31EEC7
:10566000A51A75EEE11A82ED021A34EE861A82ED61
:10567000031A30EE661A96ED000AD6ED010A63EEC3
:10568000004A62EEA05A62EE802A23EE203A74EEBF
:10569000A54A72EEC32AC0ED004A22EE203AC0EDC0
:1056A000012A61EE002A61EE200A22EE000A33EEA2
:1056B000621A30EE800A83ED001A83ED010A96ED3E
:1056C000020AD6ED030A24EE002A25EE201A00E095
:1056D00023E065EE002A24EE203A32EE011A23EE92
:1056E000802A21EE800A80ED021A32EEC31A1031B0
:1056F000103280ED031A21EEA01A63EEA00A1030DA
:10570000103631EE421A30EE800A83ED021A83ED34
:10571000030A10337F1E7FF45EAF214602236046EA
:105720006A6800F047FA6A682146BDEC028B404681
:10573000BDE8F041022300F03DBA2DE9F34F2DED15
:10574000048B87B00B9800884FEA500801EB880063
:1057500000EB880303EB8804CDE90043DDF82CC09F
:10576000221F02EB8807CDE902014FEA5808DCF856
:1057700004A0CDF810804FF00408CDF818804FF049
:105780000608CDF81480D1ED000A93ED000AD0EDA3
:10579000013A94ED013A30EE802A70EEC01AD1ED54
:1057A000010A93ED010A061F1D1F70EE802A30EEDC
:1057B000C01A33EEA10AD4ED000A71EEE31A0AF121
:1057C000080B70EE435A90ED000A71EE831A0AF14D
:1057D000100931EE404A72EE404A30EE011A30EEC6
:1057E000020A34EE204A34EEE05A31EE601A30EE0E
:1057F000200A72EEE34A0AF1180A81ED000A90EDE0
:10580000010AD4ED010A74EEC34A30EE220A30EEEA
:10581000200A81ED010AC0ED005A80ED014A83EDB6
:10582000005AC3ED014AC4ED001A84ED011ADDF8F7
:1058300010800830A8F10208083108334FEA580CEC
:105840000834D1ED000A93ED000A5FEA0C0E70EE09
:10585000804A70EEC01AD1ED010A93ED010A7ED0A4
:1058600090ED015A30EE802A30EEC01A35EE210A52
:10587000D4ED013AD0ED000A71EEC51A70EE635A0C
:1058800071EE602A94ED000A30EE811A71EEA31ACF
:1058900032EE804A74EEE02A70EEA40A31EE401A2D
:1058A00032EEC03A30EE800A72EE452A81ED000AEF
:1058B00090ED010AD4ED010A72EEE32A30EE020AFD
:1058C00030EE200A81ED010A56ED010A12ED010ABF
:1058D00015ED015A57ED017A70EE808A30EEC02A3C
:1058E000D6ED000A92ED000A95ED007A30EE808A3E
:1058F00030EEC00AD7ED000A70EE453A37EE609AF6
:1059000073EEA76A78EEC53A37EEC55A39EE026AE9
:1059100039EE422A73EEE74A35EE405A37EE080A6E
:1059200078EE473A30EE200A73EEE03A86ED000A50
:1059300015ED010A57ED010A30EE280A30EE200A73
:1059400006ED010A9BED000ADBED010A0BF1080BE5
:1059500025EE807A64EE207A24EE008A00E074E07E
:1059600025EEA04A77EE275A0831083EC0ED005ACE
:1059700038EE444A66EEA05A66EE200A80ED014AEF
:1059800026EE004A26EE800A0830AEF1010C35EE14
:10599000C44A30EE800A85ED004A05ED010AD9EDD2
:1059A000000A99ED010ADDF8188023EE204A62EE24
:1059B000805A62EEA02A23EE003A09EB880934EE01
:1059C000254A083D72EEC32A83ED004A23EEE03AF1
:1059D000C3ED012A64EE802A64EEA00A23EE800A59
:1059E000083373EE622A30EE600AC2ED002A02ED3F
:1059F000010ADAED000A9AED010ADDF8148021EEC1
:105A0000A03A61EE002A61EE203A21EE801A083AAF
:105A100073EE221A0AEB880A33EEC11AC4ED001A9B
:105A200062EE201A84ED011A25EE001A22EE000A19
:105A300065EE200A083431EE611A30EE200A87ED57
:105A4000001A07ED010A083FFBE630EE805A90EDA0
:105A5000011A70EEC05A94ED012A31EE210AD0ED00
:105A6000000A35EE414A31EEC11A70EE422A94ED39
:105A7000000A35EEE03A74EEE03A70EEA51A70EEE8
:105A8000A40A33EE003A73EEC03A71EEC01A30EE5B
:105A9000800A34EE424A31EE021A81ED000A90ED9E
:105AA000010AD4ED010A30EE050A30EE200A81ED3C
:105AB000010A9BEC020A62EE804A23EE202A23EEC2
:105AC000000A62EEA00A34EE822A30EE600A80ED0F
:105AD000002A80ED010AD9ED000A99ED010A23EEB2
