:020000040800F2
:100000005848002005030008D94900086546000843
:10001000D5490008511800084150000800000000B0
:100020000000000000000000000000002D4B000850
:100030006118000800000000DD490008314B00088D
:100040001F0300081F0300081F0300081F03000808
:100050001F0300081F0300081F0300081F030008F8
:100060001F0300081F0300081F030008551800089D
:100070001F0300081F0300081F0300081F030008D8
:100080001F0300081F0300084D1600081F03000887
:100090001F0300081F0300081F0300081F030008B8
:1000A0001F0300081F0300081F0300081F030008A8
:1000B0001F03000800000000000000001F030008EC
:1000C0001F03000800000000000000001F030008DC
:1000D000000000001F0300081F03000800000000CC
:1000E0001F0300081F0300080000000000000000BC
:1000F0000000000000000000000000000000000000
:100100000000000000000000000000001F030008C5
:1001100000000000000000001F0300081F0300088B
:100120001F0300081F0300081F0300081F03000827
:100130001F03000800000000000000000000000095
:100140001F0300081F0300081F0300081F03000807
:100150001F0300081F0300081F0300081F030008F7
:100160001F0300081F0300081F0300080000000011
:100170001F0300081F03000800000000000000002B
:100180001F0300081F0300081F03000800F002F807
:1001900000F0A8F814A696E8000CB244B344DA457F
:1001A00001D100F09FF8BAE80F000FA696E83000E2
:1001B000A5EB040504EB0607AAEB0704A7F101076A
:1001C0004FEA15154FEA3414A4F10104AC4201D3EF
:1001D00000F088F813F0010F18BFFB1A43F0010379
:1001E00000F001F8DBE71847B45C0000D45C0000C5
:1001F000103A24BF78C878C1FAD8520724BF30C853
:1002000030C144BF04680C607047000070470000B4
:100210000023002400250026103A28BF78C1FBD80F
:10022000520728BF30C148BF0B6070476E2900F0ED
:100230003982702900F08183662905F0818565295E
:1002400005F07E85672905F07B85612905F07A85B3
:1002500003681B0A28BF41F08001692900F0E6818C
:10026000642900F0E381752900F0E0816F2900F036
:100270000F83782900F04D83E92900F0A982E42951
:1002800000F0A682F52900F0A382EF2900F00C838C
:10029000F82900F04C830368DB0928BF41F0800196
:1002A000632901F05680732901F05B80E32901F096
:1002B0006680F32901F06B80002070471FB505F0C0
:1002C00032FD01F0B9F804000020002105F09EFC89
:1002D000401C60600020002105F082FCE0601FBD32
:1002E00010B510BD01F07BF81146FFF7E7FF04F0F1
:1002F00095FF01F057F903B4FFF7F2FF03BC01F0DB
:100300009DF900000948804709480047FEE7FEE7DD
:10031000FEE7FEE7FEE7FEE7FEE7FEE7FEE7FEE7B5
:1003200004480549054A064B70470000354B000854
:100330008D010008584200205848002058440020F1
:100340005844002053EA020C00F069802DE9F04B7C
:100350004FF00006002B1FBFB3FA83F503FA05F434
:1003600024FA05F65E4012BF1643B2FA82F502FA8D
:1003700005F4C5F120051EBF22FA05FC44EA0C0471
:10038000203556EA044C4FEA144418BF641C4FF061
:1003900000084FF00009904271EB030C39D300299B
:1003A00019BFB1FA81F701FA07F6B0FA80F700FA3F
:1003B00007F6C7F120071EBF20FA07FC46EA0C0625
:1003C0002037B6FBF4FCA7EB0507103F07F01F0B27
:1003D000CBF120062CFA06F60CFA0BFB44BFB34611
:1003E0000026202FA4BF5E464FF0000B5BEA060CF0
:1003F00008BF4FF0010B19EB0B0948EB0608ABFBEC
:10040000027C06FB02CC0BFB03CCC01B71EB0C0186
:10041000C1E70B46024641464846BDE8F08B13B59E
:10042000084318BF4FF0FF300146AFF30080BDE82E
:100430001C4070477CB51D4616460C00009007D046
:100440004142A14202D32044401E01E04FF0FF3060
:10045000064B7B442A4669460190304600F03BF942
:10046000002C02D0009A002111707CBDA702000070
:1004700010B5431C02E010F8011B71B18107FAD1DD
:100480004FF0013202C88C1A8C4314EAC211F9D021
:10049000C01A0A0603D0C01E10BDC01A10BD0A043F
:1004A00001D0801E10BD0902FCD0401E10BD10B549
:1004B000203AC0F00B80B1E81850A0E81850B1E81D
:1004C0001850A0E81850203ABFF4F5AF5FEA027C5C
:1004D00024BFB1E81850A0E8185044BF18C918C08C
:1004E000BDE810405FEA827C24BF51F8043B40F82D
:1004F000043B08BF7047D20728BF31F8023B48BF12
:1005000011F8012B28BF20F8023B48BF00F8012B4F
:1005100070474FF0000200B51346944696462039C6
:1005200022BFA0E80C50A0E80C50B1F12001BFF4AC
:10053000F7AF090728BFA0E80C5048BF0CC05DF812
:1005400004EB890028BF40F8042B08BF704748BF60
:1005500020F8022B11F0804F18BF00F8012B7047D4
:1005600070477047704770B5044685690068C106DA
:1005700001D5302600E02026C00707D070BDD4E9A1
:10058000012130469047206A401C20626D1EF6D53E
:1005900070BD70B5044685690078C00707D170BD8D
:1005A000D4E9012120209047206A401C20626D1E62
:1005B000F6D570BD09684A0501D540B27047C90536
:1005C000FCD500B2704709684A0501D5C0B2704732
:1005D000C905FCD580B2704770B50C460546012AA6
:1005E00005D02878800600D5EA69002302E00123BF
:1005F00005E05B1C934202D2E05C0028F9D1A869B7
:10060000E618C01AA861286A184428622846FFF72D
:10061000AAFF04E0D5E9012114F8010B9047B44288
:10062000F8D32846FFF7B5FF70BD00002DE9F04173
:100630000646002410687529314616A510D0FFF72C
:10064000B9FF002802DA404213A507E031688A07A3
:1006500001D512A502E0490704D511A5012401E046
:10066000FFF7B1FF00210A2206F1240709E0B0FBE1
:10067000F2FCB0FBF2F302FB1C0030307854184659
:10068000491C0028F3D123462A463046BDE8F041F4
:1006900000F06ABA000000002D0000002B000000EE
:1006A0002000000011680268006A530501D5087037
:1006B0000AE0D30501D5088006E0130603D5C2176A
:1006C000C1E9000200E008600120704701694A1C8E
:1006D00002610878704700B58FB0CDE90131002183
:1006E000059105497944CDE903101146684600F0AB
:1006F0002FF90FB000BD0000E5FFFFFFD1E9002397
:100700009A4202D2531C0B60107070472DE9FF5FB4
:1007100015468A460446DFF8AC80F8440027D8E93D
:1007200000103E46CDE9001010E03AF816106A4677
:1007300002A800F030FE411C07D02178890603D5BD
:10074000E269391891420DD80744761C207880065A
:1007500002D5E069B84205DDAE42E6DB3AF81600A4
:100760000028E2D1A069C01BA0612046FFF7FBFE74
:10077000D8E90010CDE90010002017E03AF8181071
:100780006A4602A800F007FEB0F1FF3F81460BD099
:1007900000250DF1080B05E0D4E901211BF8050047
:1007A00090476D1C4D45F7D308F10100B0428046DB
:1007B000E4DB206A384420622046FFF7EAFE00F0BE
:1007C00003B800002A5600003FBCBDE8C09F0000EF
:1007D0002DE9F0418046D21D22F007020025D2E922
:1007E0000002F52915A614D0011E72F1000106DAE7
:1007F0000023D0EB030063EB020211A608E0D8F857
:1008000000108B0701D50FA602E0490701D50EA6FF
:1008100001251146002408F1240704E000F05FF9E7
:1008200030323A55641C50EA0102F7D12B46324669
:1008300021464046BDE8F04100F096B900000000B6
:100840002D0000002B0000002000000030B400212B
:1008500000F1240408E002F00705D208303542EA2E
:100860004372DB086554491C52EA0305F3D104685E
:10087000002310A2250708D504F020040C4304D05F
:10088000C46901230CA2641EC46130BC00F06CB9C1
:1008900010B5044621461068FFF795FE0246204633
:1008A000BDE810400023D1E7D21D22F00701D1E9B5
:1008B0000023CBE70000000030000000F0B40D463C
:1008C0000188090502D5214C7C4402E01F4C7C4480
:1008D0000E34002100F1240608E002F00F0712098F
:1008E000E75D42EA03721B097754491C52EA030789
:1008F000F3D102780023120704D5702D06D009B178
:10090000022311342246F0BC00F02EB9012310342A
:10091000F8E770B504460D4621461068FFF753FE10
:10092000024629462046BDE870400023C6E7D21D96
:1009300022F00703D3E90023C0E70368126843F0FD
:10094000200303600823C3610023B7E78454000039
:100950002DE9F05F894604464FF0000ADFF874B1D4
:10096000FB44C0F820A02046E1688847002874D0E6
:10097000252806D0D4E901219047206A401C206236
:10098000F1E700265F462046E168884720280546B3
:1009900007DB312D05D2781910F8200C08B1064379
:1009A000F1E7B00701D526F00406C4F81CA0002723
:1009B000C4F818A02A2D09D0284605F009F938B343
:1009C00004EB8708303DC8F8185019E059F8041BAB
:1009D000204604EB87029161E1688847012F0546B4
:1009E00018D1E069002820DA26F020061DE0D8F8AA
:1009F000180000EB800005EB40003038C8F8180004
:100A00002046E1688847054605F0E2F80028EED167
:100A1000012F0AD02E2D08D12046E16888477F1C7F
:100A20000546022F46F02006C4DBA069002803DA41
:100A3000404246F00106A061F00701D026F0100602
:100A40006C2D0BD0682D09D04C2D39D06A2D35D0A6
:100A5000742D35D07A2D33D016E038E0E1682F467A
:100A600020468847B842054609D16C2F26D04FF45E
:100A70008060E168064320468847054604E06C2F05
:100A80001AD04FF4807006430DB3A5F14100192828
:100A900002D8203546F400664A462946204626609C
:100AA0004E46FFF7C3FB80B101280BD0F61D26F0A0
:100AB000070000F1080956E74020E4E78020D8E766
:100AC0000020D6E706F104094DE7284652E7206AE0
:100AD00000F002B81454000030BCBDE8C09F30B52F
:100AE000B0F10A0271F100034FEA900E4EEA817EE6
:100AF000B0EB0E0061EB91014FEA101E4EEA017E51
:100B000010EB0E0041EB11114FEA102E4EEA016E70
:100B100010EB0E0041EB11214FEA104E4EEA014E50
:100B200010EB0E0041EB1141401841F100014FEA7A
:100B3000D00040EA41704FEAD1014FEA810444EA13
:100B4000907410EB800544EB01046D1944EB040430
:100B5000521BA3414FF0000348BF0A3200D530BDFD
:100B6000401C41F1000130BD2DE9F0470D4699468A
:100B70009246044600F124080168880604D5E0691D
:100B800021F01001216000E00120A84201DD471B97
:100B900000E00027A1697A1902EB0900081AA06198
:100BA0002078C00602D42046FFF7DDFC002608E0CE
:100BB000D4E901211AF806009047206A401C761CEF
:100BC00020624E45F4DB2078C0060AD52046FFF7A8
:100BD000CAFC06E0D4E9012130209047206A401C7D
:100BE0002062381EA7F10107F4DC07E0D4E90121F7
:100BF00018F805009047206A401C2062281EA5F1C5
:100C00000105F3DC2046FFF7C4FC2078000602D57E
:100C10000220BDE8F0870120FBE72DE9FF4F0C46DD
:100C20001E464FF0FF378BB0D2E90001DDF860803F
:100C30000A908A46C1F30A5505B93D460021084687
:100C40004FF00000BAF1000F00F4400005DA00EBAD
:100C500080004FF4400101EA50004FEA9059B9F189
:100C6000010F00DDB9460A9850EA4A000ED044F65A
:100C70001050A5F2FF3545432F14B8F1000F1ED0D8
:100C80007542291E1EDDC9F100021CE0B8F1010FFA
:100C90004FF0000001D0302103E0F24305E0215481
:100CA000401CB042FBDB30460022002121540B994E
:100CB000C1F80880C1E900200FB000F0BCB9BD1B2D
:100CC0006D1CDEE74A4600DA694206A800F0F8FB30
:100CD00006AB93E8070003AB83E8070050460A9988
:100CE00004F096FB8DE80700A0F500501F38009037
:100CF0000398002D0ADD42F21F014A4608440023F2
:100D000003A90390684604F0FFFD09E0A0F5005038
:100D10004A461F38002303A90390684604F009FEE1
:100D20008DE807000004000C03D04FF0FF304108AD
:100D300000E01046B8F1000F03D0002200921546E3
:100D40001EE0751E05D4FFF7CAFE303262556D1ED7
:100D5000F9D5B3460122084302D000227F1C04E0EB
:100D60002078302801D100227F1E002A099784D0E4
:100D70001DE0112D07DAFFF7B2FE303262556D1C0F
:100D800050EA0102F5D1084302D00098C8B10EE044
:100D90000021681E05E0235C625C63542254401EFF
:100DA000491C8142F7DBAB46A81B401E099000207E
:100DB00004F80B000B98099AC0F80880C0E9002BD2
:100DC0007AE711264FF0000857E72DE9F04F8846E3
:100DD0000446D21D22F0070191B0D1E90001CDE90E
:100DE0000A0104F0DDFE02460B98C00F01D02D2051
:100DF00007E02068810701D52B2002E0202101EACD
:100E0000C000032A099001D0072A05DB03464146AA
:100E1000204600F015FB0BE12078800601D5E06943
:100E200000E00620B8F1650F814606D0B8F1660FE4
:100E300018D0B8F1670F70D131E00020B9F1110F6F
:100E4000009001DB112301E009F101030AAA01A9C5
:100E50000CA8FFF7E2FEDDE90C70002609F10105A0
:100E6000834647E001204B4600904FF000470AAA16
:100E700001A90CA8FFF7D1FEDDE90DB00C995D4684
:100E8000002610B909F101000D18B9EB050003D4D3
:100E9000C0F1FF3609F10105A5EB09002BE0B9F11E
:100EA000010F01DA4FF001090020B9F1110F009094
:100EB000484601DD112300E003460AAA01A90CA857
:100EC000FFF7ABFEDDE90C704D4600268346207827
:100ED00000070AD4AB4500DA5D4601A8012D04DD08
:100EE000411911F8011C302907D04F4502DA17F1DA
:100EF000040F04DA012082460FE06D1EEEE7002F9A
:100F000002DCED1B3E4403E0781CA84200DD7D1CA2
:100F1000B81B00F1010A4FF000472078000703D406
:100F2000AA4501DB4FF0FF3A0021B7F1004F0DF168
:100F300043088DF8431024D002202B23002F01DA20
:100F40007F422D230A21021EA0F1010000DC5FB1C7
:100F500097FBF1FC97FBF1F201FB1C7C17460CF1AF
:100F6000300C08F801CDEEE7A8F1010003702188EC
:100F7000090501D5452100E06521A0F1010800F82F
:100F8000011C09980FA9A1EB0807FF1D00B1012062
:100F9000411901EBEA70A1693844081A401EA061AA
:100FA0002078C00602D42046FFF7DDFA099828B160
:100FB000D4E901219047206A401C20622078C006B5
:100FC00022D52046FFF7CFFA1EE0002E04DBB34502
:100FD00002DD01A8805D00E03020D4E901219047C6
:100FE000206A401C2062761CAAF101005FEA000A18
:100FF0000AD100F021FAC0680168405CD4E90121FF
:101000009047206A401C2062281EA5F10105DCDC07
:1010100007E0D4E9012118F8010B9047206A401C31
:101020002062381EA7F10107F3DC2046FFF7B1FA72
:10103000032011B041E630BCBDE8C08F2DE9F04F70
:1010400004460D46D21D22F0070089B0D0E9009772
:101050004846394604F0A4FD0246F80F01D02D237E
:1010600007E02068810701D52B2302E0202101EA57
:10107000C0038DF820300BB1012000E00020032ACE
:10108000824601D0072A04DB2946204600F0D8F921
:101090003FE12078800601D40D2500E0E569C7F323
:1010A0000A560D2D49DA00214FEA175B08464FF02A
:1010B0000000002F00F4400007DA00EB80004FF43E
:1010C000400100EBD07001EA60008115012901DDCB
:1010D0004FF0FF3100224FEA850CBCF1180F06D308
:1010E0001346ACF118004FF08052C24003E04FF4B9
:1010F000801323FA0CF30CF10C0CBCF1200F04D379
:10110000ACF1200C09FA0CF001E007FA0CF0002910
:101110004FF0004801DD18B90FE00ED140450CD367
:1011200019EB02095F4121B9404502D19F4329EAE9
:101130000209BBEB175F00D0761C2088000502D5A2
:101140007B48784402E07A487844193808AA30236A
:1011500002F80A30037C0AF10101002E0AF1020AAA
:1011600053546A4602DC4FF0300101E04FF0310188
:101170004FF001088DF8001002D0A6F2FF3603E010
:1011800059EA470100D06B4E002D02DC2178090797
:1011900004D54FF002082E218DF80110C44600211D
:1011A0000BE0C7F303433F01C35C491C6D1E02F80B
:1011B0000830052908F1010801DA002DF1DC0021D1
:1011C0000CE000EB1973491C1B786D1E082902F80E
:1011D00008304FEA091908F1010801DA002DF0DCA6
:1011E00021688B0602D516E0A8F10108E04505DD6F
:1011F00002EB080313F8013C302BF5D0B8F1000FD7
:1012000009DD02EB080313F8013C2E2B03D109077B
:1012100001D4A8F10108002D05DD3E2102F80810D7
:101220006D1E08F10108407C002E02F8080008F14C
:10123000010804DA2D20764202F8080002E02B2093
:1012400002F808000A214FF47A70864208F101087A
:101250000BDB96FBF0F3303302F8083096FBF0F32B
:1012600008F1010800FB136601E0642E0CDB64202A
:1012700096FBF0F3303302F8083096FBF0F308F1F8
:10128000010800FB136601E00A2E06DB96FBF1F075
:10129000303002F8080008F1010896FBF1F001FB7C
:1012A0001060303002F80800A16908F1010808EB6D
:1012B000050202EB0A00081AA0612078C00602D4D9
:1012C0002046FFF750F9216A08AE01EB0A002062C0
:1012D00004E0D4E9012116F8010B9047BAF1010AA4
:1012E000F7D22078C00602D52046FFF73CF96E46BB
:1012F00009E016F8010B3E280FD0D4E901219047F0
:10130000206A401C2062B8F10108F2D22046FFF7A3
:1013100040F909B0032000F00FB8206A2844206289
:1013200003E0D4E90121302090476D1EEBD3F8E7AC
:10133000564C000002FCFFFF30BCBDE8C08F10B56A
:10134000436913B1AFF3008001E0FFF745F90120D5
:1013500010BD127800F124010A7000224A700122A7
:10136000EDE711684FF0FF32E9E710B5436913B1BB
:10137000AFF3008001E0FFF7C9F9012010BD12882A
:1013800000F1240182840022C2840122EDE7116869
:101390004FF0FF32E9E72DE9F04116460C460546CD
:1013A00000F042F8036893F80101012807D0FF2CF0
:1013B00012D8185D80B101202C70BDE8F081D3F8FF
:1013C00007013246214603F20713C7182846BC46D8
:1013D000BDE8F041002360474FF0FF30EDE7754670
:1013E00000F0EAF8AE4605006946534620F00700D3
:1013F000854618B020B5FEF793FFBDE820404FF0BA
:1014000000064FF000074FF000084FF0000BAC460D
:10141000ACE8C009ACE8C009ACE8C009ACE8C00958
:1014200021F007018D46704710B500F005F8001D4A
:1014300010BD00BFD94700000048704730000020B1
:101440002DE9F0411F46044603260168072A01F4EE
:10145000006004DB08B116A505E016A503E008B19D
:1014600015A500E015A521F010002060A069C01EA0
:10147000A0610FB1401EA0612046FFF774F84FB184
:10148000D4E9012138469047206A401C2062C01CE4
:10149000206206E0206AFAE7D4E9012115F8010B81
:1014A0009047761EF8D22046FFF773F8BDE8F0812A
:1014B0004E414E006E616E00494E4600696E6600F8
:1014C0002DE9F047814616468AB0354878440DC864
:1014D0008DE80D0032487844801C03AC0DC884E8C8
:1014E0000D0041F69B300844372190FBF1F290FB50
:1014F000F1F5A5F1800501FB12041B3C02D5644205
:10150000012000E00020DFF898A080460027FA4480
:10151000AAF1BE0A0EE0E0070AD03246684607EBA1
:10152000470101230AEB810104F003FA8DE807006B
:1015300064107F1C002CEED1194F7F44AE3F19E0A0
:10154000E80715D007EB04100DF1180A90E80E001B
:101550008AE80E00C068F04201D19819089032461E
:10156000012306A903A804F0E4F903AB83E807000C
:101570006D10641C002DE3D14FF001033246694623
:10158000B8F1000F03A802D004F0BEF901E004F0A6
:10159000D0F9C9E90001C9F808200AB0BDE8F08710
:1015A0005C49000010B50446AFF300802046BDE85A
:1015B0001040FEF7A0BE0000004870471000002059
:1015C00030B44FF0013C50F8042B51F8043BCCFAF6
:1015D00052F4D51A20D1FCB950F8042B51F8043B31
:1015E000CCFA52F4D51A17D1B4B950F8042B51F8EB
:1015F000043BCCFA52F4D51A0ED16CB950F8042B36
:1016000051F8043BCCFA52F4D51A05D1002CDAD0AB
:1016100030BC4FF00000704729BAB1FA81F111F0E7
:101620001801D1F120008440F2D1CA40CB4012F021
:10163000FF0213F0FF0330BCD01A70470149182095
:10164000ABBEFEE7260002007047000044F27000C7
:10165000C2F2000000F056BB0146806A436D426D45
:1016600013F0500F08D0D20648BF00F049BBC06C41
:10167000426B0846104700BF42F4007141650168A3
:101680000B68CA681B0703D4910707D500F012BB8B
:1016900012F4406FFAD1C9688904F7D4416D21F47E
:1016A00080714165416DC90448BF00F003BB416DC5
:1016B00041F00101416500F0FDBA0000806A416D12
:1016C00041F040014165816D41F00401816500F008
:1016D00017BB0000806A00F011BB0000B0B50168C4
:1016E00004468A688868C0074FF0000031D012F0C5
:1016F000020218BFB0BD886800F00D0001281FD19C
:1017000088684FF6C072C7F6FF72104002308860DA
:101710000320086001F0A4F821688968C90704BFA4
:101720000020B0BD054602E08068C00712D001F07D
:1017300097F8411B20680329F6D38168C907F3D0C5
:10174000606D40F010006065A06D40F00100A06584
:101750000120B0BD0020B0BD70B582B004460020AD
:10176000019021688A68D20711D14FF6C076C7F67A
:10177000FF76886806F17F0210420BD0606D40F062
:1017800010006065A06D40F00100A065012002B06E
:1017900070BD00BF8868304040F00100886040F2B2
:1017A0000830C5F204000068000221D401F058F8A6
:1017B00021680A68D20717D1054602E00868C00709
:1017C00012D18868C00704D18868304040F0010019
:1017D000886001F045F8401B21680328EED30868B3
:1017E000C007EBD1CAE700BF002002B070BD00BF48
:1017F00040F20800C2F20000006842F6635180091E
:10180000C0F23E51A0FB0101880900EB40000C2111
:1018100001EB8000019001980028C7D001980138A1
:10182000019001980028C1D00198013801900198D9
:101830000028BBD001980138019001980028B5D04C
:1018400001980138019001980028E7D1AEE7000027
:10185000FEE7000044F2E800C2F2000000F0FABD2A
:1018600070470000EFF3108072B600BFFEE7000083
:10187000B0B582B004460020019094F850000128D1
:1018800002D1022002B0B0BD012084F850002046F1
:101890000D46FFF723FF616D10B141F010014BE0E1
:1018A00041F2021291430231616521684FF6C07323
:1018B000D1F808C0C3F6FF7303EA0C0305F08045B6
:1018C00048F2FF722B44C0F2040203F100438B6024
:1018D0008B68B3F1FF3F2BDC019B01330193019B2C
:1018E00093421DD88B68B3F1FF3F21DC019B01338C
:1018F0000193019B934213D88B68B3F1FF3F17DC30
:10190000019B01330193019B934209D88B68B3F18A
:10191000FF3F0DDC019B01330193019B9342D7D91B
:10192000606D40F0100020F00201012004E000BFD3
:10193000616D012262F301016165002184F850109C
:1019400002B0B0BD70470000704700007047000053
:101950007047000070470000F0B581B0002200928F
:1019600090F85020012A03D10221084601B0F0BDB1
:101970000123076880F85030BB685B0700F19A804C
:101980004B68052B07D8023B032B9ABFC5A555F81A
:10199000233006234B60C3F3012407EB84040D6856
:1019A000226B03F01F031F269E40B243C5F38466DB
:1019B00006FA03F31A432263BA68BB6802F0040212
:1019C00003F00803D21840F090800A688B68C2F3D5
:1019D000406607EB86067569C2F3045207249440FB
:1019E000A54303FA02F22A437261D1E90435FC6887
:1019F000042B65D13A6E3A6E0B68C2F3846293FA97
:101A0000A3F6C3F3846C6FF3DF43B6FA86F5002BBD
:101A10002C464FF6FF7E08BF6446A242C0F2070E76
:101A20000CD13A6E22F000423A660A6802EA0E03CE
:101A3000C2F3846C92FAA2F2B2FA82F57A6E7A6EEE
:101A4000002BC2F384622C4608BF6446A2420CD12C
:101A50007A6E22F000427A660A6802EA0E03C2F346
:101A6000846C92FAA2F2B2FA82F5BA6EBA6E002BC8
:101A7000C2F384622C4608BF6446A2420CD1BA6EFF
:101A800022F00042BA660A6802EA0E03C2F3846CCE
:101A900092FAA2F2B2FA82F5FA6EFA6E002BC2F353
:101AA000846208BF6546AA421FD1FA6E22F0004246
:101AB000FA661AE0416D41F0200141650121EAE03A
:101AC000062202EA94020E6807EB830305FA02F28B
:101AD0001D6E4FF20004C0F2FF3406F0F8462540B8
:101AE00032432A4342F000421A66BA680D68D207B0
:101AF00050D1CA68D7F8B0602B466FF3DF4326EAAF
:101B0000030C4FF6FF7602F01804C0F20706E64019
:101B100000242E40C4F27F0446EA0C06A242C7F815
:101B2000B06037D193B195FAA5F2B2FA82F20132E0
:101B300002F01E03092B02F01F0310D801229A4065
:101B400003EB430342EA035315E000BF012202EB1B
:101B5000956202F01E030A2B02F01F03EED301224E
:101B600000269A4003EB4303CFF6206606EB0353AF
:101B70001A4342F00073C3F3406607EB86068A6897
:101B80007569C3F3045307249C40A5439A402A4334
:101B900072610D680021C8F208010D427AD040F24E
:101BA000083CC5F2040CDCF800400021CCF2527174
:101BB0008D4204F0E07E08BF14F4000116D000212D
:101BC000CCF684318D424DD10021B1EB1E6F49D14D
:101BD000ACF542718F425DD1DCF8001021F0E0716C
:101BE00041EA0E0141F0807152E000BFACF5427154
:101BF0008F424FD1DCF8001042F6635221F0E071C1
:101C000041EA0E0141F40001CCF8001040F2080155
:101C1000C2F200010968C0F23E528909A1FB02121A
:101C2000910901EB41010C2202EB81010091009925
:101C300081B3009901390091009959B30099013994
:101C40000091009931B3009901390091009909B3CD
:101C5000009901390091009900294FF00001E8D165
:101C600019E000BFACF542718F424FF0000112D174
:101C70000122C8F20002954208BF14F480020AD182
:101C8000DCF8001021F0E07141EA0E0141F480011E
:101C9000CCF800100021002280F85020084601B046
:101CA000F0BD00BF0C000000120000001800000092
:101CB0000001000000680021C5F20401884218BF3D
:101CC000704710B540F2700444F27000C2F2000494
:101CD000C2F2000021464FF4805200F08BFA42F22B
:101CE0007000C2F2000021464FF40052FEF7DFFB05
:101CF00003F0A8F9BDE810407047000070470000ED
:101D000070470000F0B581B0016804460E684F6866
:101D1000B0070FD517F002000CD0606DC00603D4D9
:101D2000606D40F4006060652046FFF70BFE21689F
:101D300002200860700702D517F0040004D13007B4
:101D400034D517F0080031D0204650F8542FD20671
:101D500003D4026842F400720260CA6812F4406F51
:101D60001ED1CA6892041BD40A68120718D58A6863
:101D700052070BD44A6822F00C024A60016821F431
:101D8000807101600168C90406D509E0606D40F00A
:101D90001000606504F15800016841F00101016024
:101DA0002046FFF787FF21680C200860B00602D5A7
:101DB00017F0200004D1700617D517F0400014D09A
:101DC000204650F8542FD20603D4026842F4005241
:101DD0000260CD6CCB68CA6815F0C00F64D0204695
:101DE000FFF7B2FD21686020086030060CD517F0BF
:101DF000800009D0606D40F480306065204600F0BE
:101E00007FF9216880200860F0050DD517F48070F7
:101E10000AD0606D40F4003060652046FFF798FD01
:101E200021684FF480700860B0050DD517F400707C
:101E30000AD0606D40F4802060652046FFF78AFD7F
:101E400021684FF400700860F00615D517F01000F7
:101E500012D0606B10B1C868C0070BD0606D40F441
:101E600080606065A06D40F00200A0652046FFF72D
:101E700047FF216810200860700513D517F48060B3
:101E800010D0606D4FF4806240F480406065A06DBA
:101E900040F00800A06520460A6001B0BDE8F040AF
:101EA000FFF754BD01B0F0BD950105D503F44063C3
:101EB00002F400555B1992D10B685B067FF58FAF7A
:101EC00012F400127FF48BAF8A6812070CD44A68B0
:101ED00022F060024A60016821F4805101600168CB
:101EE000C9053FF57CAF05E0606D40F0100060650E
:101EF00004F15800016841F0010101606FE7000042
:101F0000B0B582B00446002001904CB1606D58B16C
:101F100021688868800012D48868C00019D54CE018
:101F2000012002B0B0BD00BF204600F0EBF8002059
:101F3000A06584F85000216888688000ECD5886826
:101F40004FF6C072C5F6FF72104088608868C00006
:101F500033D44FF6C0728868C5F6FF7202F1805222
:101F6000104000F18050886040F20800C2F200008A
:101F7000006842F663528009C0F23E52A0FB0202A2
:101F80009009022202EB400001900198A8B100BF25
:101F9000019801380190019878B1019801380190B9
:101FA000019850B1019801380190019828B1019829
:101FB0000138019001980028EAD18868C00009D44E
:101FC000606D40F010006065A06D40F00100A065FC
:101FD000012000E000208A68636D02F0040203F033
:101FE0001003D218626D71D122F4817202326265DF
:101FF0008A68D20712D140F208324FF60053C5F278
:102000000402CFF6FF73D358DB0707D1D4F804C01E
:10201000136823F47C1343EA0C03136094F819E06B
:10202000636BD4E902C243EA4E331A4394F820307A
:1020300042EA0C02012B42EA034207D1D4F824C041
:102040000023CFF6FE7303EB4C431A43A36A33B16C
:10205000D4F82CC003F4707343EA0C031A43D1F88C
:102060000CC04CF20703CFF6F07303EA0C031A43DB
:10207000CA608A688B6802F0040203F00803D21871
:102080002DD194F83030227E5B0094F838C043EABA
:10209000823ECB6844F2020223EA020242EA0E02C6
:1020A000CA600A69BCF1010F16D140F2FD7322EA41
:1020B000030CD4E90F32D4E911E543EA0C031A43C7
:1020C00042EA0E022A4342F0010207E042F0100108
:1020D0000120616502B0B0BD22F001020A612269EF
:1020E0000B6B012A23F00F0202D1E369013B1A4373
:1020F0000A63616D012262F30101616502B0B0BD46
:102100007047000070B59CB004460020CDE91A006D
:1021100002A820303421FEF7FCF920680021C5F226
:102120000401884202D01CB070BD00BF4FF4804053
:1021300002904FF080500A2114900220059107214F
:102140000390CDE9061008904FF0807001250990AA
:1021500002A8049500F064FD002818BFFFF782FB79
:1021600041F24C00C4F202000168002641F4005123
:102170000160016801F4005101910199016841F089
:1021800001010160006817A900F0010001900198A9
:102190000B2018904FF090401795199600F07EFA9A
:1021A00044F2E8050820C2F20005C4F202008021D2
:1021B000C5E9000605F110004FF480724FF480630A
:1021C0004FF0200C80E80E102846C5E902662E620A
:1021D00000F096F9002818BFFFF744FB12200021F9
:1021E0000022E564AC6200F091FC122000F07CFC5F
:1021F0001CB070BD70B5044600688068400703D409
:1022000094F85000012801D1022070BD012084F80B
:102210005000204615460E46FFF79EFA20B10020DA
:1022200084F85000012070BD606D40F60171884354
:1022300000F580706065606D41F25963C0044FF035
:10224000000044BFA06D20F00600A065E06C41F2E4
:10225000D5612268C0F60003C0F6000141F2BD6EF0
:102260004FF0000CC0F6000EC0E90B311C21C0F885
:1022700034E0116084F850C051682B4641F01001E1
:102280005160D16841F00101D16002F14001324654
:1022900000F09CF921684FF6C0738A68C7F6FF7397
:1022A0001A4004328A6070BDF0B581B004464079AE
:1022B00001284FF0020000F087800D460121617176
:1022C000207128681646042826D100F0C9FA07466E
:1022D000BEB100BF2068406BB0F1FF3F2CDC00F0C6
:1022E000BFFAC01B0228F5D3206940F00800206126
:1022F0000320207101B0F0BD00F0B2FAC01B02282B
:10230000F2D22068406B0004F6D4012000F0B2F94C
:10231000A9692068016415E020682969012929D18B
:10232000826B06F010011F236F698B409A4307FAF6
:1023300001F31A4382631FE0012000F09BF9A969B1
:1023400020684164816C06F0100240F2FF33D5E949
:10235000077C9340994307FA02F319438164C16CE7
:10236000FF23934099430CFA02F21143C164296997
:102370000129D5D006F01001C26B07238B409A4388
:10238000D5E90037D5E9026533432B438B401A4327
:10239000C2634FF4804203688A4023EA020202606B
:1023A000026840F6FC738B409A4307FA01F31A4324
:1023B0000260C022036802FA01F123EA0101016010
:1023C000012020710020607101B0F0BD002804BF21
:1023D0000120704710B50446007920B900206071D3
:1023E000204600F007F80220207100200121206122
:1023F000217110BD80B586B0006847F20042C4F27A
:102400000002002190420591049101D006B080BDE8
:1024100041F24C00C4F20200C26842F00052C260B5
:10242000C26802F000520092009A026842F0010273
:102430000260006800F001000090009810200190F8
:102440000320CDE9020101A94FF0904000F026F9E8
:1024500006B080BDB0B5D0E910C30268DCF800104A
:1024600003F01C030424D2F800E09C400C4218BF87
:102470001EF0040522D102249C400C4218BF1EF01D
:10248000020529D1D940090724D51EF0080108BF4B
:10249000B0BD116821F00E011160012101FA03F2B3
:1024A000CCF80420C16380F82510416B002280F82D
:1024B000242079B1BDE8B040084700BF1168890603
:1024C00003D4116821F004011160CCF80440016BC1
:1024D0000029EFD1B0BD00BF1168890606D411688C
:1024E00021F00A011160012180F82510CCF8044088
:1024F000C16A0022002980F82420DBD1EAE700002D
:10250000002804BF012070472DE9F04740F2000C7D
:10251000C4F2020C02684FF6F8310CF5816ECBF66E
:10252000FD71724538BF01F580614CF6CD43114411
:10253000CCF6CC43A1FB03136FF003010CF58067CD
:1025400001EA93084FF00203D0E9024AD0F8109054
:102550003CBF0027C4F20207C0E9107880F825309C
:10256000136847F6F077BB43D0E9057143EA0A03E5
:1025700043EA0903D0E907653B4319433143294343
:102580002143B4F5804F116015D04FF4956408F0E5
:102590001C010F23724538BFA8245CF804208B402F
:1025A0009A434CF8042042685CF8043002FA01F1C6
:1025B00019434CF8041000210122C16380F8252042
:1025C00080F82410BDE8F0470846704790F824C012
:1025D000BCF1010F04BF02207047F0B54FF0010EAF
:1025E00080F824E090F825C0BCF1010F2AD14FF00B
:1025F000020C80F825C04FF0000CC0F83CC0D0F8A9
:1026000000C08468056B066CDCF80070102C27F0A5
:102610000107CCF80070406C00F01C000EFA00F0CE
:1026200070600846CCF8043004BF10460A46CCF867
:102630000800CCF80C20DCF800004DB140F00E0092
:102640000EE000BF002180F824100220F0BD00BF82
:1026500020F00400CCF80000DCF8000040F00A0094
:10266000CCF80000DCF8000040F00100CCF80000DD
:102670000020F0BDB0B5044600F0F2F8054640F287
:102680000000C2F200000078611C18BF044400BFC3
:1026900000F0E6F8401BA042FAD3B0BD2DE9F04FA0
:1026A00082B00D68002D00F0CF8040F2004E40F661
:1026B0000002C4F2010EC4F6000207234FF0000C22
:1026C000012400260027904208BF022300934DE01A
:1026D00040F20042C4F60002DDF800A0904208BFBC
:1026E0004FF0010A0CF00C030F2404FA03F529EA59
:1026F00005050AFA03F3BA082B434BF82230DEF83B
:1027000008204B6842EA080540F20C49DC0258BF39
:1027100022EA0805CEF80850C4F20109D9F80020D1
:102720009D0242EA080458BF22EA0804C9F80040A2
:10273000DEF804209D0342EA080458BF22EA080498
:10274000CEF80440DEF80020DB0342EA080458BF5C
:1027500022EA0804CEF8004001240D68013735FA5A
:1027600007F206F102060CF1040C6DD004FA07F230
:1027700015EA0208F1D0D1F804A003250AF0030BF2
:10278000ABF10103B540012B6FEA050910D883684E
:10279000CD6803EA0903B5402B438360436823EA0D
:1027A0000202CAF30013BB401A43426006E000BFB6
:1027B000BBF1030F02D14FF0030B20E0C2688B681E
:1027C00002EA0902B3401A43BBF1020FC26016D1FC
:1027D0006FF0030202EA570202440CF01C050F23BB
:1027E000D2F820A003FA05FB0B692AEA0B0AAB40DA
:1027F00043EA0A031362D1F804A00AF0030B02684B
:102800000BFA06F302EA09021A431AF4403F026087
:10281000A3D041F26003C4F202031A68AEF57E7BD6
:1028200042F001021A601A68B0F1904F02F0010202
:102830000192019A27F003025BF802907FF448AFFF
:102840004FF0000A4EE700BF02B000F000B830BC05
:10285000BDE8C08F1823002A08BF2823C150704745
:1028600044F25420C2F200000068704790F8412002
:10287000202A03D190F84020012A01D1022070477C
:10288000242280F841200268136823F001031360BA
:10289000136823F48053136013681943116011689F
:1028A00041F001011160202180F84110002180F8E1
:1028B000401008467047000090F84120202A03D1BC
:1028C00090F84020012A01D102207047242280F88C
:1028D00041200268136823F001031360136823F496
:1028E000706343EA01211160116841F00101116038
:1028F000202180F84110002180F8401008467047E0
:10290000002804BF0120704710B5044690F841002C
:1029100028B9002084F84000204600F043F8242025
:1029200084F8410094E80910E2680168012A21F066
:102930000101016023F070610161816821F40041AF
:10294000816003D14CF40041816007E04CF4044104
:10295000022A816004BF4FF400614160416804F1C4
:10296000100C41F0007141F400414160C16821F454
:102970000041C1609CE80E10114341EA0321C1608F
:10298000216A41EA0C010160016841F00101016026
:1029900000202021606484F84110206384F8420004
:1029A00010BD000010B59CB0044602A804305021B0
:1029B000FDF7AFFD206845F20041C4F200018842F6
:1029C00002D01CB010BD00BF4020029002A800F051
:1029D00027F9002818BFFEF745FF41F24C04C4F266
:1029E0000204206817A940F001002060206800F070
:1029F0000100179017984FF4C0601790122018909C
:102A00000020199003201A9004201B904FF0904052
:102A1000FFF744FEE06840F40010E060E06800F476
:102A20000010019001981CB010BD000040F20000A1
:102A300044F25421C2F20000C2F2000100780A6898
:102A4000104408607047000080B5032000F08AF849
:102A50000F2000F009F800281CBF012080BD00F005
:102A600029F8002080BD000070B540F20006C2F2D7
:102A700000063178E1B1044640F20800C2F20000DD
:102A80004FF47A720068B2FBF1F1B0FBF1F000F0A4
:102A9000CBFF0F2C4FF0010508D838B94FF0FF30AD
:102AA00021460022002500F031F87460284670BDF0
:102AB000012070BD82B041F25800C4F2020081686A
:102AC00041F001018160816801F0010101910199EA
:102AD000016841F080510160006800F08050009072
:102AE000009802B070470000002848BF704700F00F
:102AF0001F01012202FA01F11C2202EAD0004EF26B
:102B00000012CEF2000281507047000010B54EF660
:102B10000C5CCEF2000CDCF80030C3F3022E8EF019
:102B20000704042C28BF0424BEF103034FF0FF3E2A
:102B30000EFA04F438BF0023A14399400EFA03F3C0
:102B40009A43114300F00F0200F160430901043A77
:102B500003F564436244002848BF02F10C03197076
:102B600010BD00004EF60C51CEF200010A684FF67F
:102B7000FF031A4060F30A2242F0806040F0FD70CB
:102B80000860704747F20001C4F200010A68B0F51E
:102B9000007F02F4C06031D1B0F5007F2CD008680E
:102BA000012262F34A20086040F20800C2F20000ED
:102BB0000068322250434DF68362C4F21B32A0FB00
:102BC0000202900C4A69520511D5421C0FD04A6985
:102BD00052050CD558B14A69520508D5012806D0CE
:102BE0004A69520503D50228A0F10400EAD14869D8
:102BF000400544BF0320704700207047B0F5806F48
:102C0000FAD00868022262F34A2008600020704768
:102C100047F20000C4F20000006800F4C060704792
:102C20002DE9F04381B00446407841F2880700075F
:102C3000C4F202071ED5E06B80B1B0F5400F14D08E
:102C4000B0F5000F40F0148157F87C0C40F4803050
:102C500047F87C0C4FF4000007E000BF201D002166
:102C600001F0BEFE814638B9E06B396821F44001BD
:102C7000084338604FF00009A078800752D557F814
:102C8000300C5FEAC0080BD457F8300C40F080508D
:102C900047F8300C57F8300C00F080500090009846
:102CA00047F20005C4F20005286840F480702860EF
:102CB000FFF7D6FD064600BF2868C00508D4FFF719
:102CC000CFFD801B0228F7D94FF0030921E000BF98
:102CD000B9F1000F1DD1B86810F4407011D0216D0A
:102CE00088420BD0B868B96820F4407041F4803154
:102CF000B960B96821F48031B960B860C00740F0AC
:102D0000BF80B868216D20F4407008434FF000097F
:102D1000B860B8F1000F05D457F8300C20F080509F
:102D200047F8300C2168C8070ED1880714D48806EC
:102D30001AD4880520D4480526D448062CD4C805C2
:102D400032D4880438D449E03868226A20F003007D
:102D5000104338608807EAD53868626A20F00C00B2
:102D6000104338608806E4D53868A26A20F44060D1
:102D7000104338608805DED53868626B20F4402047
:102D8000104338604805D8D53868A26B20F440104D
:102D9000104338604806D2D53868E26A20F44050C3
:102DA00010433860C805CCD53868226B20F4403019
:102DB00010433860880411D53A68206C22F04062D4
:102DC0000243B0F1806F3A601ED0B0F1006F05D1C0
:102DD00057F87C0C40F4801047F87C0C480327D54A
:102DE0003A68606C22F040620243B0F1806F3A6052
:102DF00016D0B0F1006F1BD157F87C0C40F4801056
:102E000047F87C0C14E000BF201D012101F0E8FD13
:102E10002168002818BF81464803E1D408E000BFBC
:102E2000201D012101F0DCFD2168002818BF81462A
:102E3000480410D53868A26C20F040501043B2F11D
:102E4000805F386007D1201D022101F0C9FD216893
:102E5000002818BF8146080405D53868E16C20F0C9
:102E6000804008433860484601B0BDE8F08300BFA9
:102E70004FF00109A07880073FF501AF52E700BF8E
:102E8000FFF7EEFC064641F288354FF0030900BF1C
:102E9000B86880073FF535AFFFF7E2FC801BA8421A
:102EA000F6D936E72DE9F04381B000286BD042F225
:102EB0000008C4F202080446D8F800000D4600F0ED
:102EC000070088420CD2D8F8000020F00700284301
:102ED000C8F80000D8F8000000F00700A84252D15E
:102EE000206841F2080910F00201C4F202090DD075
:102EF000A268D9F8003003F0F0039A4206D9D9F855
:102F0000003023F0F0031A43C9F80020C2072DD186
:102F100069B1A168D9F8002002F0F002914206D20E
:102F2000D9F8002022F0F0021143C9F80010D8F8B7
:102F3000001001F00701A9420CD9D8F8001021F0C7
:102F400007012943C8F80010D8F8001001F0070164
:102F5000A94218D141071BD4000723D4D9F8000097
:102F6000D9F8041010F00C002CD131E06068002872
:102F70005ED0022800F07E80032840F0818059F85E
:102F8000081C890158D4012001B0BDE8F08300BFBE
:102F9000D9F80010E26821F4E0611143C9F800108B
:102FA0000007DBD5D9F80000216920F4605040EA21
:102FB000C100C9F80000D9F80000D9F8041010F0D9
:102FC0000C0005D00C2829D101F00301012925D1DD
:102FD00059F8081C090703D4D9F88C10090A02E033
:102FE00059F8081C090945F65C6201F00F01C0F6AA
:102FF000000252F8211000280A4618BF00220C28AF
:1030000071D1D9F8040000F00300022846D003284B
:1030100004BF41F20021C0F27A0143E0042857D0F6
:1030200008285BD141F20022C0F27A025BE000BFC7
:1030300059F8081C8907A6D5D9F8001021F003011A
:103040000843C9F80000FFF70BFC064641F2883739
:10305000D9F80000616800F00C00B0EB810F15D0CA
:10306000FFF7FEFB801BB842F2D9032001B0BDE898
:10307000F08300BF59F8081C89037FF584AFDBE7B4
:1030800059F8081C49057FF57EAFD5E7206800F0A8
:10309000020100297FF43DAF49E700BF42F2004141
:1030A000C0F2F401D9F80400D9F80420C0F30210EA
:1030B000C2F306225143D9F804200130B1FBF0F0ED
:1030C000C2F34161022202EB4101B0FBF1F20AE0DE
:1030D00042F20042C0F2F40205E000BF00220021EB
:1030E0000C283FF48EAFD9F8000045F64461C0F3D8
:1030F0000310C0F60001085C00F01F0022FA00F186
:1031000040F20400C2F2000040F208020068C2F27D
:103110000002116001B0BDE8F043FFF7A5BC00005C
:1031200040F2080041F20801C2F20000C4F20201BC
:103130000068096845F65462C1F30221C0F6000236
:10314000515C01F01F01C8407047000040F20800C8
:1031500041F20801C2F20000C4F2020100680968ED
:1031600045F65462C1F3C221C0F60002515C01F081
:103170001F01C8407047000041F20C01C4F2020177
:1031800051F8040C10F00C02086805D00C2A29D163
:1031900000F00300012825D151F80C0C000703D4DE
:1031A000D1F88800000A02E051F80C0C000945F63D
:1031B0005C6300F00F00C0F6000353F82030002AD3
:1031C000184618BF00200C2A18BF7047086800F086
:1031D0000300022810D0032804BF41F20023C0F2EC
:1031E0007A030DE0042A1FD0082A23D141F20020DF
:1031F000C0F27A00704700BF42F20043C0F2F4030D
:1032000008680A68C0F30210C2F306220968013098
:103210005A43B2FBF0F0C1F34161022202EB4101DB
:10322000B0FBF1F0704700BF42F20040C0F2F40082
:10323000704700BF00200023C5E70000002804BF3E
:10324000012070472DE9F04383B041F200060446A7
:10325000C4F20206B068F168227800F00C09D006CA
:1032600001F003081ED42078C00700F08880B9F16F
:10327000080F00F07D80B9F10C0F08BFB8F1030F03
:1032800076D06068B0F5803F07D0B0F5A02F40F051
:103290005582306840F480203060306840F48030DF
:1032A000306056E2B9F1000F1CD0B9F10C0F08BF25
:1032B000B8F1010F16D0A1693068002900F0A08193
:1032C00040F001003060FFF7CBFA05463068800718
:1032D00000F1A881FFF7C4FA401B02284FF0030059
:1032E000F4D95CE33068800703D5A069002800F0BA
:1032F000EF82256A3068000700F14A81D6F8940011
:10330000000900F0F000854200F248813068B9F110
:10331000000F40F008003060306820F0F00040EA14
:10332000050030607068E16920F47F4040EA0120C8
:10333000706040F0BA82B06DC00000F15782B06D8D
:1033400040F08050B065B06D00F08050029002985F
:10335000FFF75EFCB16D21F08051B165B0F5007FE3
:1033600000F04A82802D40F2878203208FE200BF66
:103370003068800303D56068002800F0A9822078B7
:1033800080072DD5B9F1040F1CD0B9F10C0F08BF7F
:10339000B8F1020F16D0E1683068002900F0E8812A
:1033A00040F480703060FFF75BFA054630684005F6
:1033B0000FD4FFF755FA401B02284FF00300F5D950
:1033C000EDE200BF3068400503D5E068002800F05A
:1033D0007F827068216920F0F85040EA01607060D7
:1033E0002078000760D42078400779D420788006C0
:1033F00000F1B280A06A002800F01283022840F099
:103400002381F068E16A00F003028A4240F03481CF
:10341000226B6FF00F0300F0700103EB0212914278
:1034200040F02A81616B00F4FE42B2EB012F40F0C4
:103430002381A16B00F07842B2EBC16F40F01C8198
:10344000E26B0023CFF6E07303EA025200F4C001FE
:10345000A2F50012914240F00F81216C4FF07E42A4
:1034600002EA016100F0C06001F17E41884240F053
:1034700003813068800100F1D382306840F08070B1
:103480003060F06840F08070F060FFF7E9F90446C2
:103490003068800100F1C482FFF7E2F9001B0228C6
:1034A0004FF00300F4D97AE26169D6F8940000295C
:1034B00000F0908040F00100C6F89400FFF7D0F9CA
:1034C000054600BFD6F8940080078CD4FFF7C8F9F2
:1034D000401B0228F6D9032003B0BDE8F08300BFEB
:1034E000B06D5FEAC00808D4B06D40F08050B065A0
:1034F000B06D00F080500090009847F20007C4F2D1
:1035000000073868C00513D4386840F4807038600C
:10351000FFF7A6F9054600BF3868C00508D4FFF7D5
:103520009FF9401B02284FF00300F5D937E200BF96
:10353000A068012808D0052840F0DE80D6F8900069
:1035400040F00400C6F89000D6F8900040F001006A
:10355000C6F89000DEE000BF616AD6F89800002946
:1035600000F0B48040F00100C6F89800FFF778F949
:10357000054600BFD6F8980080073FF53BAFFFF740
:103580006FF9401B02284FF00300F3D907E200BF98
:10359000306800F0F00085427FF6B8AEB06DC00034
:1035A00000F18680B06D40F08050B065B06D00F0E5
:1035B000805001900198FFF72BFBB16D21F08051F5
:1035C000B165B0F5007F79D0802D40F2E380032013
:1035D000EBE000BF20F00100C6F89400FFF740F9CF
:1035E000054600BFD6F8940080077FF5FCAEFFF7D4
:1035F00037F9401B02284FF00300F3D9CFE100BF99
:1036000020F001003060FFF72BF905463068800795
:103610007FF529AEFFF724F9401B02284FF0030085
:10362000F4D9BCE1306840F0080030603068D4E97B
:10363000071220F0F00010433060706820F47F40E3
:1036400040EA012070600EE6B9F10C0F00F04081F5
:10365000306820F080703060FFF702F9044600BF48
:103660003068800140F1EC80FFF7FAF8001B022877
:103670004FF00300F4D992E1B9F10C0F00F028816A
:103680003068400100F12481306820F080703060A3
:10369000FFF7E6F8054600BF3068800140F18281FF
:1036A000FFF7DEF8401B02284FF00300F4D976E163
:1036B000FFF7AEFAB0F5007F7FF486AF812D73D3AC
:1036C0000120A02D88BF02206FE000BF20F0010084
:1036D000C6F89800FFF7C4F8054600BFD6F8980072
:1036E00080077FF587AEFFF7BBF8401B02284FF03D
:1036F0000300F3D953E100BFD6F89010002821F061
:103700000101C6F89010D6F8901021F00401C6F817
:10371000901079D0FFF7A4F8054641F2883700BF32
:10372000D6F89000800700F18180FFF799F8401BE0
:10373000B842F5D9032003B0BDE8F0833168002812
:1037400021F480313160316821F48021316000F052
:103750008380FFF785F80546306880033FF50FAE9C
:10376000FFF77EF8401B64284FF00300F4D916E100
:1037700020F480703060FFF773F80546306840052C
:103780007FF52EAEFFF76CF8401B02284FF00300C8
:10379000F4D904E1A5F17000B0FA80F04009802D61
:1037A00008BF022001E000BF002042F20001C4F285
:1037B00002010A6822F0070202440A60096801F067
:1037C0000701814240F08480306840F0080030609A
:1037D0003068D4E9071220F0F000104330607068C0
:1037E00020F47F4040EA012070605EE0FFF710FAAD
:1037F000B0F5007F7FF4B6AD812D47D30120A02D19
:1038000088BF022043E000BFFFF72AF8054641F2D7
:10381000883700BFD6F89000800707D5FFF720F85B
:10382000401BB8424FF00300F4D9B8E0B8F1000FE4
:103830003FF5DCADB06D20F08050B065D6E500BF3F
:10384000F0684FF6FC71CFF6EE610840F0600020A2
:1038500003B0BDE8F08300BFFFF702F8054600BFE4
:10386000306880037FF58BADFEF7FAFF401B6428BC
:103870004FF00300F4D992E0A5F17000B0FA80F0A7
:103880004009802D08BF022001E000BF002042F265
:103890000001C4F202010A6822F0070202440A6031
:1038A000096801F00701814212D1B068F16810F097
:1038B0000C0005D00C282BD101F00301012927D1E0
:1038C0003168090708D4D6F89410090A06E000BF49
:1038D000012003B0BDE8F0833168090945F65C6258
:1038E00001F00F01C0F6000252F8211000280A462C
:1038F00018BF00220C2837D1F06800F0030002281E
:1039000010D0032804BF41F20021C0F27A010DE07B
:1039100004281FD0082823D141F20022C0F27A02E5
:1039200022E000BF42F20041C0F2F401F068F26808
:10393000C0F30210C2F306225143F2680130B1FB1A
:10394000F0F0C2F34161022202EB4101B0FBF1F25F
:103950000AE000BF42F20042C0F2F40204E000BFFD
:10396000002200210C28C7D0B06845F64461C0F39E
:103970000310C0F60001085C00F01F0022FA00F1FD
:1039800040F20400C2F2000040F208020068C2F2F5
:1039900000021160FFF768F800283FF464AC03B040
:1039A000BDE8F083F06848F28C01C0F29D1104F18B
:1039B0002C0700EA010C8ECF6FF00F00D4E90F54F2
:1039C00000EB02100022CFF6E07241EA0C0102EA9D
:1039D00005520843A2F500124FF07E4540EA03204D
:1039E00005EA0465104305F17E4540EAC7602843B7
:1039F000F060306840F080703060F06840F08070B7
:103A0000F060FEF72DFF04463068800108D4FEF711
:103A100027FF001B02284FF00300F5D9BFE700BFC6
:103A2000002003B0BDE8F083411E0020B0EB116F11
:103A30001CBF012070474EF21002CEF2000251600E
:103A40004EF62351CEF20001F0230B700721906057
:103A50001160704790F83C20012A04BF0220704793
:103A600010B5D1E90232D1E900CE22F47C5223F420
:103A700070531A4348F2FF73CFF6F07303EA0E0354
:103A800042EA030E0A692CF477234EEA030C22F46F
:103A900076224B6942EA0C021A438B6A22F47422A2
:103AA00023F4702342EA030C8B69D0F800E042F65D
:103AB0000042C4F2010296454CEA03430FD123F0C1
:103AC0007C72D1E9073C496A0024CFF6F04404EA4D
:103AD0000151114323F00072114341EA0C0300210C
:103AE000CEF8443080F83C10BDE8104008467047DE
:103AF00090F83C20012A4FF002022DD010B580F83A
:103B00003D20026842F6004C5368D2F808E0C4F247
:103B1000010C624503D14C6823F4700323430C6805
:103B200023F070032343B2F1804F536007D044F277
:103B30000003C4F201039A4201D0624504D18968AE
:103B40002EF08003194391600121002280F83D107E
:103B500080F83C20BDE8104010467047002804BFA4
:103B600001207047B0B5044690F83D0028B9002008
:103B700084F83C00204600F063F8022084F83D0001
:103B8000206842F6004E0268C4F2010E704502D071
:103B9000B0F1804F03D1A36822F070021A4343F6BC
:103BA000FF73C4F2010344F2004C9842C4F2010CCA
:103BB00006DCB0F1804F0BD0704509D00CE000BF9F
:103BC000604505D044F20003C4F20103984203D1DA
:103BD000236922F440721A43A16922F080026368CB
:103BE000E568114370450160C562836218BF604596
:103BF0001ED16169016301214161002084F84810F0
:103C000084F83E1084F83F1084F8401084F8411086
:103C100084F8421084F8431084F8441084F8451066
:103C200084F8461084F8471084F83D10B0BD00BFFA
:103C300044F20001C4F201018842DAD0DBE700005F
:103C4000006842F60041C4F20101884218BF704783
:103C500081B041F26000C4F20200016841F40061E9
:103C60000160006800F400600090009801B07047A7
:103C700090F83D10012925D1022180F83D100168FE
:103C8000B1F1804F0BD044F20000C4F20100814238
:103C900005D042F60040C4F2010081420CD1886890
:103CA0000722C0F201020240062A4FF000000AD0AB
:103CB000B2F5803F08BF7047086840F00100086017
:103CC000002070470120704790F83C20012A4FF0F7
:103CD000020200F0C58080B580F83D20D0F800C019
:103CE0008822DCF80830CFF6FE721A40CCF80820A3
:103CF0000B684F2B28DC1F2B44DD202B45D0302BAD
:103D000043D0402B40F0AE80D1F804E0C968DCF825
:103D10002030DCF8202022F00102CCF82020DCF852
:103D2000182022F0F00242EA011123F00A0242EACE
:103D30000E02CCF81810CCF82020DCF8081041F066
:103D4000470121F0300180E06F2B27DDB3F5005FE4
:103D500048D0B3F5805F7AD0702B40F08380D1E9F2
:103D600001E3C968DCF8082043EA0E0322F47F422D
:103D700043EA01211143CCF80810DCF8081041F0A7
:103D8000770162E00BB1102B6CD1DCF8081021F048
:103D90007001194341F0070157E000BF502B35D0A7
:103DA000602B5FD1D1F804E0C968DCF8203023F043
:103DB0001003CCF82030DCF81830DCF8202023F495
:103DC000704322F0A00243EA013142EA0E12CCF81D
:103DD0001810CCF82020DCF8081041F0670121F021
:103DE000100132E0D1E901E3C968DCF8082043EAB8
:103DF0000E0322F47F4243EA01211143CCF808105C
:103E0000DCF8081041F480411FE000BFD1F804E065
:103E1000C968DCF82030DCF8202022F00102CCF860
:103E20002020DCF8182022F0F00242EA011123F0F1
:103E30000A0242EA0E02CCF81810CCF82020DCF876
:103E4000081041F0570121F02001CCF808100022A1
:103E5000012180F83D10002180F83C10BDE8804031
:103E6000104670470122F3E790F83C30012B04BF65
:103E7000022070474FEAB202052A61D82DE9F041CD
:103E8000DFE812F006006400B000FE003E017E0193
:103E9000036842F600461A6AC4F2010622F00102E3
:103EA0001A621D6A1A46D3F804C052F818EF8F68D8
:103EB000D1F8008025F00205B34245EA07050BD092
:103EC00044F20047C4F20107BB4205D044F20007A8
:103ED000C4F20107BB4205D1CF6825F00C0527F0DD
:103EE00004073D43B3420BD044F20046C4F201063E
:103EF000B34205D044F20006C4F20106B34206D133
:103F0000D1E905672CF44074264346EA070C4FF6C6
:103F10008C74CFF6FE740EEA040747EA0807C3F86C
:103F200004C09F614F6809695F631D629F6947F024
:103F300008079F619F6927F004079F6161E100BF47
:103F40000121002280F83C2008467047036842F6B1
:103F500000461A6AC4F2010622F010021A621F6AB1
:103F60001A465D6852F818CF8C6827F02007B342D4
:103F700047EA041408D124F0C00ECC686FF0400763
:103F800007EA041444EA0E04D1F800E0B3420BD06F
:103F900044F20046C4F20106B34205D044F20006E2
:103FA000C4F20106B34206D1D1E9056725F44065A4
:103FB0003E4345EA860548F6FF46CFF6FF660CEA23
:103FC000060747EA0E275D609F614F6809699F6396
:103FD0001C629F6947F400679F619F6927F48067AF
:103FE0009F610DE1036842F600461A6AC4F20106B9
:103FF00022F480721A621F6A1A465D6852F81CCF5A
:104000008C6827F40077B34247EA042409D1CF68CB
:1040100024F4406E3F0240F2FF4427EA040444EADD
:104020000E04D1F800E0B3420BD044F20046C4F2D3
:104030000106B34205D044F20006C4F20106B342C1
:1040400006D1D1E9056725F440553E4345EA0615FA
:104050004FF68C76CFF6FE760CEA060747EA0E0797
:104060005D60DF614F680969DF631C62DF6947F0EB
:104070000807DF61DF6927F00407DF61C1E000BFE7
:10408000036842F600471A6AC4F2010722F480521C
:104090001A621A461C6A5D6852F81CCFD1F800E01B
:1040A0008E68BB420BD044F20047C4F20107BB420A
:1040B00005D044F20007C4F20107BB4204D14F69A6
:1040C00025F4804545EA871524F4005444EA063473
:1040D00048F6FF46CFF6FF660CEA060747EA0E27CA
:1040E0005D60DF614F6809691F641C62DF6947F426
:1040F0000067DF61DF6927F48067DF6180E000BF70
:10410000036842F600471A6AC4F2010722F48032BB
:104110001A621A461C6A5D6852F854EFD1F800C062
:104120008E68BB420BD044F20047C4F20107BB4289
:1041300005D044F20007C4F20107BB4204D14F6925
:1041400025F4803545EA072524F4003444EA064482
:104150004FF68C76CFF6FE7603360EEA060747EA70
:104160000C075D605F654F6809699F651C625F6D44
:1041700047F008075F655F6D27F004075F6540E063
:10418000036842F600471A6AC4F2010722F480125B
:104190001A621A461C6A5D6852F854EFD1F800C0E2
:1041A0008E68BB420BD044F20047C4F20107BB4209
:1041B00005D044F20007C4F20107BB4204D14F69A5
:1041C00025F4802545EA872524F4001444EA0654A2
:1041D00048F6FF46CFF6FF6606F540760EEA06077C
:1041E00047EA0C275D605F654F680969DF651C62FF
:1041F0005F6D47F400675F655F6D27F480675F65FB
:1042000009021368194311600021BDE8F041002242
:1042100080F83C2008467047002804BF0120704702
:10422000B0B5044690F83D0028B9002084F83C0061
:10423000204600F063F8022084F83D00206842F632
:10424000004E0268C4F2010E704502D0B0F1804FFA
:1042500003D1A36822F070021A4343F6FF73C4F23D
:10426000010344F2004C9842C4F2010C06DCB0F1A8
:10427000804F0BD0704509D00CE000BF604505D0E1
:1042800044F20003C4F20103984203D1236922F4EB
:1042900040721A43A16922F080026368E568114305
:1042A00070450160C562836218BF60451ED16169B7
:1042B000016301214161002084F8481084F83E1018
:1042C00084F83F1084F8401084F8411084F84210BC
:1042D00084F8431084F8441084F8451084F846109C
:1042E00084F8471084F83D10B0BD00BF44F20001CF
:1042F000C4F201018842DAD0DBE700007047000019
:1043000071B10A1F8B0743EA9202032A12D8DFE831
:1043100002F00315191D00BF00F13F0318E000BFB4
:1043200090F83E20012A1CBF01207047022280F82D
:104330003E202CE000F143030AE000BF00F14003FF
:1043400006E000BF00F1410302E000BF00F14203BC
:104350001B78012B1CBF01207047032A08D8DFE817
:1043600002F0030B0F1300BF022280F83F200EE083
:10437000022280F843200AE0022280F8402006E072
:10438000022280F8412002E0022280F842200268E6
:1043900001F01F000121136A01FA00F023EA000175
:1043A0001162116A084343F6FF71C4F201018A42A7
:1043B000106209DCB2F1804F22D042F60040C4F214
:1043C000010082420CD028E044F20040C4F2010017
:1043D000824205D044F20000C4F2010082421CD1A6
:1043E000506C44F20001C4F2010140F400408A42E2
:1043F000506405D042F60040C4F2010082420CD164
:1044000090680721C0F20101014006294FF0000029
:1044100008D0B1F5803F08BF7047106840F0010038
:104420001060002070470000002804BF0120704782
:10443000B0B582B00446806F28B9002084F87400BB
:10444000204600F059F82420A0672068016821F078
:1044500001010160204600F0EDFB18B1012002B01F
:10446000B0BD00BF606A10B1204600F06DFB20684F
:10447000416821F490414160816821F02A01816006
:10448000016841F0010101600020C4F88000FEF7DE
:10449000E7F9216805460A68120710D56FF07E4CCF
:1044A00020464FF4001100222B46CDF800C000F04A
:1044B000C1FC18B1032002B0B0BD00BF216808687C
:1044C00040070FD56FF07E4C20464FF4800100224C
:1044D0002B46CDF800C000F0ADFC18B1032002B0AF
:1044E000B0BD00BF2020A067E0670020206684F8F0
:1044F000740002B0B0BD0000F0B59BB0044601A846
:1045000004305021FCF705F8206844F20041C4F261
:104510000001884202D01BB0F0BD00BF022501A8F7
:104520000195FEF77DFB002818BFFDF79BF941F2CE
:104530004C00C4F20200C16816AC41F40031C16005
:10454000C168002601F4003116911699016803270D
:1045500041F0010101600068214600F00100169061
:1045600016980420CDE9160507201A904FF09040C8
:1045700018961997FEF792F84FF4004016A9E1C17A
:104580004FF0904021461A97FEF788F81BB0F0BD17
:104590002DE9F04182B00446806F20280BD10D46F2
:1045A00000294FF001005AD01746002A57D094F83E
:1045B0007400012804D1022002B0BDE8F08100BFE0
:1045C000012084F874000020C4F88000212098465F
:1045D000A067FEF745F9A4F85070A4F85270A168DE
:1045E0000746B1F5805F01D1206918B12E4600253C
:1045F00001E000BF0026002084F874000BE000BF3B
:1046000035F8021B00266FF35F210185B4F85200D4
:104610000138A4F85200B4F8520078B12046802145
:1046200000223B46CDF8008000F004FC78B92068F9
:10463000002EE5D016F8011BE7E700BF2046402119
:1046400000223B46CDF8008000F0F4FB20B10320AF
:1046500002B0BDE8F08100BF2020A067002002B0BA
:10466000BDE8F081FEE70000B0B586B044F270000E
:104670000021C2F20000C5F204010024C0E90014C8
:104680004FF48071042501830121C0E90244C0E98F
:104690000445C16180F82040C0E90A4480F83040F8
:1046A000446380F83840FDF72BFC002818BFFDF765
:1046B000D9F82020C1F2F04000900620CDE9010594
:1046C0007F20CDE9030544F27000C2F20000694684
:1046D0000594FDF741F9002818BFFDF7C3F806B0AF
:1046E000B0BD000010B58AB044F2D40047F20041DA
:1046F0000024C2F20000C4F20001CDE90844CDE973
:1047000006440160FDF762FE002818BFFDF7AAF815
:1047100044F2D400C2F2000001A900220594CDE9C0
:104720000344CDE90144FDF7BFFD002818BFFDF7A4
:1047300099F80AB010BD000080B582B041F248007F
:10474000C4F202000168002241F00101016000682A
:10475000002100F00100019001980B20FEF7D6F92E
:104760000B2002B0BDE88040FEF7BEB970B586B040
:10477000002541F24C000595C4F20200016840F2A8
:10478000004441F0040101600168C4F6000401F036
:104790000401009100990168002241F001010160CB
:1047A0000168082601F0010100910099016841F0BB
:1047B000020101600068082100F0020000900098EA
:1047C0002046FEF747F80120CDE9020501A9204661
:1047D00001960495FDF762FF06B070BD80B544F206
:1047E000301045F20041C2F20000C4F2000149F667
:1047F000EC420023C1F290024FF0010C80E80E1051
:10480000C0E90433C0E906330362FEF779F80028F3
:1048100018BFFDF727F844F23010C2F20000002163
:10482000FEF724F8002818BFFDF71CF844F23010FA
:10483000C2F200000021FEF73FF8002808BF80BD4B
:10484000BDE88040FDF70EB8B0B59EB042F6004519
:10485000002468462C21C4F201051894CDE91644C1
:10486000CDE91344CDE91144CDE90F44CDE90D4420
:10487000CDE90B44FBF74DFE44F28410C2F2000078
:1048800007216322C0E90051C0E90242C0E90444A3
:104890008461FFF763F9002818BFFCF7E3FF4FF4CA
:1048A0008050159044F28410C2F2000015A9FFF761
:1048B0000BFA002818BFFCF7D5FF44F28410C2F2AF
:1048C0000000FFF7A9FC002818BFFCF7CBFF44F25B
:1048D00084100024C2F2000012A9CDE912441494FD
:1048E000FFF706F9002818BFFCF7BCFF60200B900B
:1048F0003220CDE90C0444F28410C2F200000BA96E
:104900000022CDE90E44CDE91044FFF7ADFA0028AE
:1049100018BFFCF7A7FF00204FF4005144F28414A5
:10492000CDE905104FF00071C2F200040490CDE90A
:104930000200CDE900000790CDE908100A90694611
:104940002046FFF787F8002818BFFCF78BFF206888
:10495000A84201D01EB0B0BD41F24C00C4F202002A
:10496000016841F001010160006819A900F001002F
:10497000199019984FF48070199002201A90002015
:10498000CDE91B0001201D904FF09040FDF786FE01
:104990001EB0B0BD80B544F2D01044F20041C2F266
:1049A0000000C4F2000100234FF00C0C4FF4612210
:1049B00080E80E00C0E90333C0E905C3C0E907334E
:1049C0004362FFF731FD002808BF80BDBDE880408D
:1049D000FCF748BFFEE70000FEE70000704700005C
:1049E000F0B581B041F20007C4F20207FA680D4643
:1049F0009107044614D0F868216800F0030088424B
:104A00004FF0010040F08F80002900F08C80F868A2
:104A10006168C0F30210013088420BD120E000BF72
:104A2000206803280AD002283CD0012802D1396826
:104A300089070AD4012001B0F0BD00BF396889039D
:104A40005CBF39685FEA4131F4D5F96862686FF09C
:104A50000F0321F0730103EB021211430843F860C6
:104A6000386820F080603860FDF7FAFE064600BF27
:104A70003868000106D5FDF7F3FE801B0228F7D940
:104A800048E000BF012D11D015BB386948F2FF0185
:104A9000C0F2FF71D4E90223084040EA022040EA54
:104AA000C36026E039684905C4D5CEE748F2FF0166
:104AB0003869CFF6FF112269002301F1B461CFF606
:104AC000E0730840A16803EA0252A2F500120DE06B
:104AD000386948F2FF016269CFF6FF114FF07E435B
:104AE0000840A16803EA026202F17E4240EA012026
:104AF00010433861386840F080603860FDF7B0FEE0
:104B0000054600BF3868000108D4FDF7A9FE401B28
:104B10000228F7D9032001B0F0BD00BFA0693969B0
:104B200008433861002001B0F0BD0000704700006C
:104B3000FDF77CBF4EF68850CEF20000016841F4CC
:104B40007001016070470000416ACA070ED18A07F0
:104B500017D44A0720D40A0729D4CA0632D48A06B1
:104B60003BD480B54A0644D458E000BF0268D0F870
:104B700028C0536823F4003343EA0C0353608A07C8
:104B8000E7D50268D0F82CC0536823F4803343EA99
:104B90000C0353604A07DED50268D0F830C0536872
:104BA00023F4802343EA0C0353600A07D5D5026837
:104BB000D0F834C0536823F4004343EA0C03536035
:104BC000CA06CCD50268D0F838C0936823F4805365
:104BD00043EA0C0393608A06C3D50268D0F83CC050
:104BE000936823F4005343EA0C03936080B54A06AC
:104BF00014D50268D0F840C05368BCF5801F23F478
:104C0000801343EA0C03536008D1D2F804C0D0F8F3
:104C100044E02CF4C00343EA0E035360090658BF76
:104C200080BD0168806C4A6822F40022104348600D
:104C300080BD0000B0B5054605F108041ECC006833
:104C4000194341EA0403D5F81CE0046846F6F31161
:104C5000CEF6FF712140194341EA0E01016041681F
:104C600048F2000C21F4405111434160AA69C4F29A
:104C7000000C60451CBF296A0A43816821F4306139
:104C8000114344F20042C4F20002904281600FD00E
:104C9000604515D043F60001C4F2010188424BD1B2
:104CA00041F28801C4F202010B685EA212E000BF6B
:104CB00041F28801C4F2020109688B0806E000BFD6
:104CC00041F28801C4F2020109688B0A45F68C6240
:104CD000C0F6000203F0030152F82130604542F2B1
:104CE0000040C0F2F4002ED0BEF5004F12D1082BC8
:104CF0004FF0010100F29180DFE803F00656608F6B
:104D00005A8F8F8F5E0000BFFEF70AFA002855D138
:104D10007FE000BF082B4FF0010100F27E80DFE84A
:104D200003F005616B7C657C7C7C6900FEF7F8F91B
:104D3000002861D16DE000BF1023604542F20040C1
:104D4000C0F2F400D0D1082B4FF0010165D8DFE8A4
:104D500003F005640F64096464640D00FEF7E0F974
:104D600030B956E0FEF708FA10B952E04FF40040AF
:104D70006A6802EB420188424FF001014DD31303F0
:104D800098424AD8010E000210EB520041F1000196
:104D90000023FBF7D7FA4FF60052A0F54071C0F29E
:104DA0000F02914233D337E0FEF7D0F930B930E04B
:104DB000FEF7E2F910B92CE04FF4004069684A08A8
:104DC00002EB4000B0FBF1F04FF6EF72A0F11001E2
:104DD000914221D84FF6F0710140C0F342000844DF
:104DE00015E000BFFEF7B2F930B912E0FEF7C4F9E2
:104DF00010B90EE04FF4004069684FF6EF7200EB17
:104E00005100B0FBF1F0A0F11001914204D82968E3
:104E1000C860002101E000BF0121002208466A6647
:104E2000AA66B0BD010000000400000002000000FE
:104E3000080000002DE9F041044600681546C269EB
:104E40000E461140891BB1FA81F14909A94240F08F
:104E50009E80DDF81880B8F1000F27D018F101010D
:104E600040F07E80C1693140891BB1FA81F1490966
:104E7000A94240F08C80C1693140891BB1FA81F1AF
:104E80004909A94240F08380C1693140891BB1FAC8
:104E900081F14909A9427AD1C1693140891BB1FA2E
:104EA00081F14909A942DDD071E000BFFDF7D8FCCE
:104EB000206850E8000F216820F4D07041E800021B
:104EC000BAB3206850E8000F216820F4D07041E8A0
:104ED000000272B3206850E8000F216820F4D070FF
:104EE00041E800022AB3206850E8000F216820F44E
:104EF000D07041E80002002ADAD11AE0206850E8B8
:104F0000020F216820F0010041E80202DAB12068B6
:104F100050E8020F216820F0010041E8020292B13E
:104F2000206850E8020F216820F0010041E80202E9
:104F30004AB1206850E8020F216820F0010041E8E2
:104F40000202002ADAD12020A06704F17C0020218F
:104F50000160002084F874000320BDE8F08100BFE8
:104F60001F4600BFFDF77CFCC01B4045A0D8206851
:104F70000168490744BFC1695FEA01510AD4C069A9
:104F80003040801BB0FA80F04009A842EAD00020EF
:104F9000BDE8F0814FF40061016200BF206850E875
:104FA000000F216820F4D07041E80002BAB32068F5
:104FB00050E8000F216820F4D07041E8000272B37D
:104FC000206850E8000F216820F4D07041E800020A
:104FD0002AB3206850E8000F216820F4D07041E81F
:104FE0000002002ADAD11AE0206850E8020F216896
:104FF00020F0010041E80202DAB1206850E8020F17
:10500000216820F0010041E8020292B1206850E8D6
:10501000020F216820F0010041E802024AB1206835
:1050200050E8020F216820F0010041E80202002A46
:10503000DAD12020A067E06704F1800087E7000054
:10504000FEE700002DE9F04F81B02DED028B42F21A
:105050007000C2F20000011D002040F6FE7240F612
:10506000C51B40F2DB5C40F2DD5E40F2DC5840F2F2
:10507000E63A40F6C4190027002405E00130023A60
:1050800001F1040100F096800E885E4520D266454D
:1050900044D831F8025C75451ED2002554EA070356
:1050A00040D000BF631E18BF01232B4348D0012FFF
:1050B0006CD15E454FF000074FF0000338BF012769
:1050C0004E4588BF012318444E885E453ED207E016
:1050D00031F8025C654521D801304E885E4535D2F5
:1050E000664537D80B884345C8D8002554EA0703DE
:1050F00034D000BF631E18BF01232B4338D0012FCB
:1051000041D15E454FF000074FF0000338BF012743
:105110004E4588BF01231844B1E700BF012554EA7A
:105120000703BFD1A6F2DD53534525D831F8024C11
:1051300000274C4530D901244E885E4506D2CFE782
:10514000013000244E885E45CAD300BF0B886345FA
:105150007FF694AF012554EA0703CBD1A6F2DD53C5
:1051600053450FD80C8800274C451DD9012486E7EC
:105170000130002483E700BF002400274E885E45ED
:10518000E4D2ADE70024002779E700BF00274E886E
:105190005E45DBD2A4E700BF444538BF01270024A9
:1051A0004E885E459CD3D1E7444538BF0127002493
:1051B00065E700BF00EE100AB8EEC00AB6EE001AAE
:1051C00020EE010A9FED0B1A9FED0B2A20EE010A3B
:1051D00080EE028A18EE100A00F034FD024607A0A5
:1051E0000B4600F077F8B0EE480ABDEC028B01B038
:1051F00000F010B8A8C2A24900E07F4543616C638B
:10520000756C6174656420467265713A252E32664C
:105210000A00000030BCBDE8C08F000096B0FDF76A
:1052200013FC05A804302421FBF773F94FF4007038
:10523000FDF7A8FC20B1EFF3108072B6FEE700BFC7
:105240004FF48071089110210991012111910A21D7
:105250000220129107210590CDE90F00CDE913102E
:10526000159005A8FDF7EAFF20B1EFF3108072B6A4
:10527000FEE700BF0F200090032001900020CDE941
:105280000200049068460421FDF70CFE20B1EFF304
:10529000108072B6FEE700BFFFF768FAFFF74CFA1E
:1052A000FFF7E2F9FFF71EFAFFF798FAFFF772FB34
:1052B000FFF7CAFA00F02EF844F28414C2F2000498
:1052C0002046FEF7D5FC20460021FFF719F800BF65
:1052D000FEE7000083B010B5A1B0844623A801AC5E
:1052E0000EC023AB2046802162460093FBF7A2F854
:1052F0002046FBF7BDF882B244F2D010C2F20000A3
:1053000021464FF0FF33FFF743F921B0BDE81040CD
:1053100003B0704710B53AA0FFF7DCFF40F200443D
:10532000C4F60004204608210122FDF793FA4FF449
:10533000FA70FDF79FF9204608210022FDF78AFA4E
:105340004FF4FA70FDF796F9204608210122FDF787
:1053500081FA4FF4FA70FDF78DF9204608210022FA
:10536000FDF778FA4FF4FA70FDF784F9204608212A
:105370000122FDF76FFA4FF4FA70FDF77BF9204632
:1053800008210022FDF766FA4FF4FA70FDF772F972
:10539000204608210122FDF75DFA4FF4FA70FDF76F
:1053A00069F9204608210022FDF754FA4FF4FA70FB
:1053B000FDF760F9204608210122FDF74BFA4FF472
:1053C000FA70FDF757F9204608210022FDF742FA4E
:1053D0004FF4FA70FDF74EF944F27004C2F2000483
:1053E00020467F21FCF744FA40F27001C2F200012E
:1053F00020464FF48052BDE81040FCF7FBBE00BFD2
:1054000053797374656D2053746172740D0A0000D2
:105410005FEA400C08BF91F0000F4FEA8C234FEA7F
:10542000C12243EA51514FEA1C5018BF00F5F04029
:105430004FEA300018BF41F000415FEA6C5C00F0B9
:105440002980BCF1FF3F08BF40F080407047130C3B
:1054500006BF12044FF0100C4FF0000C130E04BFE7
:1054600012020CF1080C130F04BF12010CF1040C12
:10547000930F04BF92000CF1020CD30F04BF520033
:105480000CF1010C11464FF00002A0F11F00A0EB3F
:105490000C00704711F0004F08BF704731F0004119
:1054A0003FF4D5AF0B0C06BF09044FF0100C4FF0C2
:1054B000000C0B0E04BF09020CF1080C0B0F04BF0B
:1054C00009010CF1040C8B0F04BF89000CF1020CD4
:1054D000CB0F04BF49000CF1010CCCF1200322FAE0
:1054E00003F341EA030102FA0CF2A0EB0C0000F115
:1054F0000100704723F07F4720F07F4C80EA0300D3
:1055000000F00040ACEB070303F57C5303F1FF030D
:105510002DE9804909B44FEA144324EA03484FEACD
:10552000154B25EA0B4E0FF2042606EB13273E78A7
:1055300003FB0667C7F5000707FB06F64FEAD646EA
:1055400006F102064FEA543707FB066CCCF1005C0B
:105550004FEA1C472CEA074C0CFB06F507FB06F448
:1055600004EB15464FEA961649085FEA320234BF4B
:1055700000204FF000404FEAD13706FB07FC4FEA0E
:105580001C4C0CFB0BF7D21B03FB0CF761EB070168
:105590000CFB0EF7B0EB074072EB17420CFB08F761
:1055A00034BFA2EB0742B2EB074261EB17414FEA6F
:1055B0000C444FEA910706FB07FC4FEA1C4C0CFB1E
:1055C0000BF7B0EBC74072EB573203FB0CF734BF5D
:1055D000A2EBC742B2EBC74261EB57310CFB0EF7AF
:1055E000B0EBC70072EB57720CFB08F734BFA2EBAD
:1055F000C702B2EBC70261EB57714FEA816141EA22
:1056000092114FEA826242EA90124FEA806004EB04
:10561000CC04039F4FEAD13706FB07FC4FEA1C4C32
:105620000CFB0BF7D21B03FB0CF761EB07010CFB28
:105630000EF7B0EB074072EB17420CFB08F734BFD4
:10564000A2EB0742B2EB074261EB17414FEA8C55E0
:1056500004EB9C244FEA910706FB07FC4FEA1C4C25
:105660000CFB0BF7B0EBC74072EB573203FB0CF7A8
:1056700034BFA2EBC742B2EBC74261EB57310CFB20
:105680000EF7B0EBC70072EB57720CFB08F734BF94
:10569000A2EBC702B2EBC70261EB57714FEA81611F
:1056A00041EA92114FEA826242EA90124FEA806028
:1056B00015EB4C2544F100044FEAD13706FB07FCFB
:1056C0004FEA1C4C0CFB0BF7D21B03FB0CF761EBF6
:1056D00007010CFB0EF7B0EB074072EB17420CFB17
:1056E00008F734BFA2EB0742B2EB074261EB174168
:1056F0004FEA813141EA92414FEA823242EA9042D6
:105700004FEA80304FEA0C7615EB1C1544F100048B
:1057100048EA03434EEA0B484FF0000EB2EB080C88
:1057200071EB030724BF624639464EEB0E0E4FF075
:10573000000B0018524149414BEB0B0BB2EB080C2C
:1057400071EB03077BF1000B24BF624639464EEB39
:105750000E0E4FF0000B0018524149414BEB0B0B62
:10576000B2EB080C71EB03077BF1000B24BF624620
:1057700039464EEB0E0E51EA020718BF46F00106FD
:1057800016EB0E7655F1000254F1000103D5BDE889
:105790008901BDE80088BDE88901BDE80048B61967
:1057A000524141EB0101A3F10103704780807F7EEC
:1057B0007D7C7B7A79787776767574737271717087
:1057C0006F6E6E6D6C6C6B6A6A6968686766666539
:1057D0006464636362616160605F5F5E5E5D5D5CC7
:1057E0005C5B5B5A5A595958585757565655555538
:1057F0005454535352525251515050504F4F4F4E98
:105800004E4D4D4D4C4C4C4B4B4B4A4A4A494949E5
:105810004848484747474746464645454544444427
:105820004443434343424242424141419C46002B50
:1058300030D477002BD04FEA37071CB503B44FF0B4
:1058400010004FF01001BAF1000F06D0BCF1000FAC
:10585000DCBF40F0080040F008014FF000000FBC32
:10586000BDE810400BF1010BBBF1010F08BF5FEA6F
:10587000170722BF12F1010211F101014FF000419F
:1058800043F1000300F0004043EA00007047F9D301
:105890005708D0E746EA06464FEA164613F1400F8E
:1058A0001FDD13F1200FDFBF16430A46002120330E
:1058B0005B42BED0C3F1200746EA06464FEA1646D1
:1058C00002FA07F746EA070622FA03F2C3F12007B5
:1058D00001FA07F742EA070221FA03F14FF0000349
:1058E000A7E746EA020646EA06464FEA164646EAB1
:1058F0000106BCBF46EA0646360C4FF000034FF0E7
:1059000000024FF0000194E72DE9804C70B49A46F4
:10591000934691E8380007C831EA400C48BF34EAA2
:10592000430C03D5FFF7E6FDFFF780FFF0BCBDE8B1
:10593000008C2DE9804C70B49A46934691E838006B
:1059400007C810F0804F08BF13F0804F03D100F05C
:1059500005F8FFF76BFFF0BCBDE8008C20F07F4737
:1059600023F07F4C80EA030000F0004007EB0C03BB
:10597000A3F57C53A3F1FE0392F0000F00F0B38077
:1059800095F0000F00F077802DE901494FEA1140B2
:1059900021EA00484FEA144624EA064700FB06FCC9
:1059A00008FB06F607FB08F818EB06484CEB164C0C
:1059B00000FB07F718EB07484CEB17404FEA124B78
:1059C00022EA0B4E4FEA154625EA06470BFB06FC7A
:1059D0000EFB06F607FB0EFE1EEB064E4CEB164CBE
:1059E0000BFB07F71EEB074E4CEB174B18EB0B08A6
:1059F00040F1000018EB0E0B58EB000840F10000DE
:105A00008F1A4FF000014FF000063CBFC943661BE0
:105A100014BFB5EB040C00213CBFC943F61B4FEA91
:105A2000174427EA04454FEA1C472CEA074C04FBBD
:105A3000076205FB07F70CFB05F616EB074642EB82
:105A4000174204FB0CFC16EB0C4642EB1C421BEB12
:105A5000060658EB020241414EEA8E0E46EA9E06C9
:105A600001D5BDE80189B619524141EB0101A3F10D
:105A70000103BDE801894FEA144524EA05464FEACF
:105A8000114721EA074C05FB07F406FB07F70CFB5F
:105A900006F111EB074144EB174405FB0CFC11EB3D
:105AA0000C4144EB1C444FEA124722EA074C05FB29
:105AB00007F206FB07F70CFB06F616EB074642EB70
:105AC000174205FB0CFC16EB0C4642EB1C456A1812
:105AD00054F1000148BF7047B619524141EB010132
