:020000040800F2
:10000000484900202503000857550008A54E000860
:1000100055550008491F0008B7600008000000009F
:1000200000000000000000000000000083570008EE
:10003000872200080000000081570008855700084B
:100040003F0300083F0300083F0300083F03000888
:100050003F0300083F0300083F0300083F03000878
:100060003F0300083F0300083F030008CD210008BC
:100070003F0300083F0300083F0300083F03000858
:100080003F03000800000000CD1D00083F030008EA
:100090003F0300083F0300083F0300083F03000838
:1000A0003F0300083F0300083F0300083F03000828
:1000B0003F0300083F0300083F0300083F03000818
:1000C0003F0300083F0300083F0300083F03000808
:1000D0003F0300083F0300083F0300083F030008F8
:1000E0003F0300083F0300083F0300083F030008E8
:1000F0003F0300083F0300083F0300080000000022
:10010000000000003F030008000000003F0300085B
:100110003F03000800000000FD5700083F030008EF
:10012000D92100083F0300083F0300083F030008EF
:100130003F03000800000000000000003F0300082B
:100140003F0300083F03000800000000000000001B
:10015000000000000000000000000000000000009F
:100160000000000000000000000000003F03000845
:100170003F03000800000000000000000000000035
:10018000000000003F030008000000000000000025
:10019000000000000000000000000000000000005F
:1001A00000000000000000003F0300083F030008BB
:1001B0003F0300083F0300083F0300080000000061
:1001C000000000003F0300080000000000000000E5
:1001D0003F0300083F03000800F002F800F092F827
:1001E0000AA090E8000C82448344AAF10107DA4592
:1001F00001D100F087F8AFF2090EBAE80F0013F052
:10020000010F18BFFB1A43F001031847D06C000020
:10021000F06C0000103A24BF78C878C1FAD85207B1
:1002200024BF30C830C144BF04680C607047000070
:100230000023002400250026103A28BF78C1FBD8EF
:10024000520728BF30C148BF0B6070476E2900F0CD
:100250002782702900F07183662906F0898165295B
:1002600006F08681672906F08381612906F0828184
:1002700003681B0A28BF41F08001692900F0D4817E
:10028000642900F0D181752900F0CE816F2900F03A
:10029000FE82782900F03D83E92900F09982E42963
:1002A00000F09682F52900F09382EF2900F0FB829E
:1002B000F82900F03C830368DB0928BF41F0800186
:1002C000632901F03F80732901F04480E32901F0A4
:1002D0004F80F32901F05480002070471FB506F0CD
:1002E00042F901F0A3F804000020002106F0AEF866
:1002F000401C60600020002106F092F8E0601FBD05
:1003000010B510BD01F064F81146FFF7E7FF06F0E5
:1003100001F801F041F903B4FFF7F2FF03BC01F06B
:1003200085F900000948804709480047FEE7FEE7D5
:10033000FEE7FEE7FEE7FEE7FEE7FEE7FEE7FEE795
:1003400004480549054A064B70470000ED57000870
:10035000D9010008484300204849002048450020B2
:100360004845002053EA020C00F069802DE9F04B6B
:100370004FF00006002B1FBFB3FA83F503FA05F414
:1003800024FA05F65E4012BF1643B2FA82F502FA6D
:1003900005F4C5F120051EBF22FA05FC44EA0C0451
:1003A000203556EA044C4FEA144418BF641C4FF041
:1003B00000084FF00009904271EB030C39D300297B
:1003C00019BFB1FA81F701FA07F6B0FA80F700FA1F
:1003D00007F6C7F120071EBF20FA07FC46EA0C0605
:1003E0002037B6FBF4FCA7EB0507103F07F01F0B07
:1003F000CBF120060CFA0BFB2CFA06F644BFB346F1
:100400000026202FA4BF5E464FF0000B5BEA060CCF
:1004100008BF4FF0010B19EB0B09ABFB027C48EB5B
:100420000608C01B06FB02CC0BFB03CC71EB0C01D6
:10043000C1E70B46024641464846BDE8F08B13B57E
:100440004FF000004FF00001AFF30080BDE81C400A
:10045000704710B54C1084EA530404D54042C1F1F2
:10046000000138BF491E1B4204D55242C3F10003AC
:1004700038BF5B1EFFF776FF14F0804F04D0404278
:10048000C1F1000138BF491E14F0004F04D05242A0
:10049000C3F1000338BF5B1E10BD00007CB51D46D4
:1004A00016460C00009001D02044401E074B7B44B0
:1004B0002A4669460190304600F00BF905461CB10A
:1004C0000020694600F018F928467CBD5102000062
:1004D00010B5431C02E010F8011B71B18107FAD17D
:1004E0004FF0013202C88C1A8C4314EAC211F9D0C1
:1004F000C01A0A0603D0C01E10BDC01A10BD0A04DF
:1005000001D0801E10BD0902FCD0401E10BD4FF06E
:10051000000200B5134694469646203922BFA0E853
:100520000C50A0E80C50B1F12001BFF4F7AF09075F
:1005300028BFA0E80C5048BF0CC05DF804EB890050
:1005400028BF40F8042B08BF704748BF20F8022B93
:1005500011F0804F18BF00F8012B704770477047AB
:10056000704770B5044685690068C10601D530261C
:1005700000E02026C00707D070BDD4E90121304635
:100580009047206A401C20626D1EF6D570BD70B584
:10059000044685690078C00707D170BDD4E9012100
:1005A00020209047206A401C20626D1EF6D570BD49
:1005B00009684A0501D540B27047C905FCD500B2AB
:1005C000704709684A0501D5C0B27047C905FCD516
:1005D00080B2704770B50C460546012A05D02878D0
:1005E000800600D5EA69002302E0012305E05B1CD8
:1005F000934202D2E05C0028F9D1A869E618C01A3B
:10060000A861286A184428622846FFF7AAFF04E078
:10061000D5E9012114F8010B9047B442F8D32846DC
:10062000FFF7B5FF70BD00002DE9F041064600243C
:1006300010687529314616A510D0FFF7B9FF0028BC
:1006400002DA404213A507E031688A0701D512A5F6
:1006500002E0490704D511A5012401E0FFF7B1FF2D
:1006600000210A2206F1240709E0B0FBF2FCB0FBEE
:10067000F2F302FB1C00303078541846491C002865
:10068000F3D123462A463046BDE8F04100F069BA6E
:10069000000000002D0000002B00000020000000E2
:1006A00011680268006A530501D508700AE0D30595
:1006B00001D5088006E0130603D5C217C1E9000280
:1006C00000E008600120704701694A1C0261087857
:1006D000704700B58FB0CDE9013100210591054982
:1006E0007944CDE903101146684600F031F90FB0A6
:1006F00000BD0000E5FFFFFF0A6802F8010B0A6079
:100700007047D1E900239A4202D2531C0B6010704B
:10071000704700002DE9FF5F15468A460446DFF862
:10072000AC80F8440027D8E900103E46CDE900101F
:1007300010E03AF816106A4602A800F025FE411CA7
:1007400007D02178890603D5E269391891420DD87E
:100750000744761C2078800602D5E069B84205DDA2
:10076000AE42E6DB3AF816000028E2D1A069C01BD1
:10077000A0612046FFF7F5FED8E90010CDE9001092
:10078000002017E03AF818106A4602A800F0FCFDB5
:10079000B0F1FF3F81460BD000250DF1080B05E0BD
:1007A000D4E901211BF8050090476D1C4D45F7D396
:1007B00008F10100B0428046E4DB206A3844206240
:1007C0002046FFF7E4FEBDE8FF9F0000BA66000088
:1007D0002DE9F0418046D21D22F007020025D2E922
:1007E0000002F52915A614D0011E72F1000106DAE7
:1007F0000023D0EB030063EB020211A608E0D8F857
:1008000000108B0701D50FA602E0490701D50EA6FF
:1008100001251146002408F1240704E000F05CF9EA
:1008200030323A55641C50EA0102F7D12B46324669
:1008300021464046BDE8F04100F093B900000000B9
:100840002D0000002B0000002000000030B400212B
:1008500000F1240408E002F00705D208303542EA2E
:100860004372DB086554491C52EA0305F3D104685E
:10087000002310A2250707D5A40600D421B1C4691E
:1008800001230DA2641EC46130BC00F06AB910B52A
:10089000044621461068FFF794FE02462046BDE854
:1008A00010400023D2E7D21D22F00701D1E9002336
:1008B000CCE700000000000030000000F0B40D465E
:1008C0000188090502D5214C7C4402E01F4C7C4480
:1008D0000E34002100F1240608E002F00F0712098F
:1008E000E75D42EA03721B097754491C52EA030789
:1008F000F3D102780023120704D5702D06D009B178
:10090000022311342246F0BC00F02BB9012310342D
:10091000F8E770B504460D4621461068FFF751FE12
:10092000024629462046BDE870400023C6E7D21D96
:1009300022F00703D3E90023C0E70368126843F0FD
:10094000200303600823C3610023B7E71C65000090
:100950002DE9F05F894604464FF0000ADFF874B1D4
:10096000FB44C0F820A02046E1688847002874D0E6
:10097000252806D0D4E901219047206A401C206236
:10098000F1E700265F462046E168884720280546B3
:1009900007DB312D05D2781910F8200C08B1064379
:1009A000F1E7B00701D526F00406C4F81CA0002723
:1009B000C4F818A02A2D09D0284605F0A5FB38B3A5
:1009C00004EB8708303DC8F8185019E059F8041BAB
:1009D000204604EB87029161E1688847012F0546B4
:1009E00018D1E069002820DA26F020061DE0D8F8AA
:1009F000180000EB800005EB40003038C8F8180004
:100A00002046E1688847054605F07EFB0028EED1C8
:100A1000012F0AD02E2D08D12046E16888477F1C7F
:100A20000546022F46F02006C4DBA069002803DA41
:100A3000404246F00106A061F00701D026F0100602
:100A40006C2D0BD0682D09D04C2D39D06A2D35D0A6
:100A5000742D35D07A2D33D016E038E0E1682F467A
:100A600020468847B842054609D16C2F26D04FF45E
:100A70008060E168064320468847054604E06C2F05
:100A80001AD04FF4807006430DB3A5F14100192828
:100A900002D8203546F400664A462946204626609C
:100AA0004E46FFF7D3FB80B101280BD0F61D26F090
:100AB000070000F1080956E74020E4E78020D8E766
:100AC0000020D6E706F104094DE7284652E7206AE0
:100AD000BDE8F09FAC64000030B5B0F10A024FEA07
:100AE000900E71F100034EEA817EB0EB0E0061EBD7
:100AF00091014FEA101E4EEA017E10EB0E0041EB11
:100B000011114FEA102E4EEA016E10EB0E0041EB70
:100B100011214FEA104E4EEA014E10EB0E0041EB50
:100B20001141401841F100014FEAD00040EA417004
:100B30004FEAD10110EB80054FEA810444EA90743A
:100B400044EB01046D1944EB0404521BA3414FF024
:100B5000000348BF0A3200D530BD401C41F10001FE
:100B600030BD2DE9F0470D4699469246044600F106
:100B700024080168880604D5E06921F0100121608D
:100B800000E00120A84201DD471B00E00027A16929
:100B90007A1902EB0900081AA0612078C00602D475
:100BA0002046FFF7DEFC002608E0D4E901211AF810
:100BB00006009047206A401C761C20624E45F4DBFC
:100BC0002078C0060AD52046FFF7CBFC06E0D4E922
:100BD000012130209047206A401C2062381EA7F176
:100BE0000107F4DC07E0D4E9012118F8050090477B
:100BF000206A401C2062281EA5F10105F3DC204676
:100C0000FFF7C5FC2078000602D50220BDE8F0877A
:100C10000120FBE770472DE9FF4F0C461E464FF0C1
:100C2000FF378BB0D2E90001DDF860800A908A4678
:100C3000C1F30A5505B93D46002108464FF00000B2
:100C4000BAF1000F00F4400005DA00EB80004FF429
:100C5000400101EA50004FEA9059B9F1010F00DD5F
:100C6000B9460A9850EA4A000ED044F61050A5F250
:100C7000FF3545432F14B8F1000F1ED07542291ED1
:100C80001EDDC9F100021CE0B8F1010F4FF00000B9
:100C900001D0302103E0F24305E02154401CB04272
:100CA000FBDB30460022002121540B99C1F808805B
:100CB000C1E900200FB0BDE8F08FBD1B6D1CDEE761
:100CC0004A4600DA694206A800F0F4FB06AB93E856
:100CD000070003AB83E8070050460A9900F0ADFC1B
:100CE0008DE80700A0F500501F3800900398002DF4
:100CF0000ADD42F21F014A460844002303A903907B
:100D0000684600F016FF09E0A0F500504A461F387B
:100D1000002303A90390684600F020FF8DE8070038
:100D20000004000C03D04FF0FF30410800E01046F3
:100D3000B8F1000F03D00022009215461EE0751E88
:100D400005D4FFF7C9FE303262556D1EF9D5B346A2
:100D50000122084302D000227F1C04E020783028C2
:100D600001D100227F1E002A099784D01DE0112D99
:100D700007DAFFF7B1FE303262556D1C50EA01020E
:100D8000F5D1084302D00098C8B10EE00021681EDA
:100D900005E0235C625C63542254401E491C81427E
:100DA000F7DBAB46A81B401E0990002004F80B009F
:100DB0000B98099AC0F80880C0E9002B7AE7112641
:100DC0004FF0000857E72DE9F04F88460446D21D42
:100DD00022F0070191B0D1E90001CDE90A0105F047
:100DE0006BF902460B98C00F01D02D2007E0206858
:100DF000810701D52B2002E0202101EAC000032A4F
:100E0000099001D0072A05DB03464146204600F041
:100E100011FB0BE12078800601D5E06900E0062097
:100E2000B8F1650F814606D0B8F1660F18D0B8F159
:100E3000670F70D131E00020B9F1110F009001DB94
:100E4000112301E009F101030AAA01A90CA8FFF787
:100E5000E2FEDDE90C70002609F10105834647E05A
:100E600001204B4600904FF000470AAA01A90CA8A8
:100E7000FFF7D1FEDDE90DB00C995D46002610B9F3
:100E800009F101000D18B9EB050003D4C0F1FF36DC
:100E900009F10105A5EB09002BE0B9F1010F01DA19
:100EA0004FF001090020B9F1110F0090484601DD13
:100EB000112300E003460AAA01A90CA8FFF7ABFE24
:100EC000DDE90C704D4600268346207800070AD4E1
:100ED000AB4500DA5D4601A8012D04DD411911F88A
:100EE000011C302907D04F4502DA17F1040F04DA4C
:100EF000012082460FE06D1EEEE7002F02DCED1BA5
:100F00003E4403E0781CA84200DD7D1CB81B00F1C4
:100F1000010A4FF000472078000703D4AA4501DBFF
:100F20004FF0FF3A0021B7F1004F0DF143088DF863
:100F3000431024D002202B23002F01DA7F422D23DF
:100F40000A21021EA0F1010000DC5FB197FBF1FC59
:100F500097FBF1F201FB1C7C17460CF1300C08F8F2
:100F600001CDEEE7A8F1010003702188090501D544
:100F7000452100E06521A0F1010800F8011C099855
:100F80000FA9A1EB0807FF1D00B10120411901EBDA
:100F9000EA70A1693844081A401EA0612078C00692
:100FA00002D42046FFF7DDFA099828B1D4E90121DF
:100FB0009047206A401C20622078C00622D5204637
:100FC000FFF7CFFA1EE0002E04DBB34502DD01A8D7
:100FD000805D00E03020D4E901219047206A401C68
:100FE0002062761CAAF101005FEA000A0AD100F033
:100FF0001DFAC0680168405CD4E901219047206A6D
:10100000401C2062281EA5F10105DCDC07E0D4E9C4
:10101000012118F8010B9047206A401C2062381EFD
:10102000A7F10107F3DC2046FFF7B1FA032011B066
:1010300041E600002DE9F04F04460D46D21D22F096
:10104000070089B0D0E900974846394605F034F8E2
:101050000246F80F01D02D2307E02068810701D553
:101060002B2302E0202101EAC0038DF820300BB1D0
:10107000012000E00020032A824601D0072A04DB79
:101080002946204600F0D6F93FE12078800601D4B9
:101090000D2500E0E569C7F30A560D2D49DA002158
:1010A0004FEA175B08464FF00000002F00F44000A5
:1010B00007DA00EB80004FF4400100EBD07001EA4A
:1010C00060008115012901DD4FF0FF3100224FEA58
:1010D000850CBCF1180F06D31346ACF118004FF085
:1010E0008052C24003E04FF4801323FA0CF30CF15A
:1010F0000C0CBCF1200F04D3ACF1200C09FA0CF05D
:1011000001E007FA0CF000294FF0004801DD18B9A2
:101110000FE00ED140450CD319EB02095F4121B914
:10112000404502D19F4329EA0209BBEB175F00D07B
:10113000761C2088000502D57B48784402E07A4876
:101140007844193808AA302302F80A30037C0AF1DF
:101150000101002E0AF1020A53546A4602DC4FF0E4
:10116000300101E04FF031014FF001088DF800101F
:1011700002D0A6F2FF3603E059EA470100D06B4ED9
:10118000002D02DC2178090704D54FF002082E213A
:101190008DF80110C44600210BE0C7F303433F0163
:1011A000C35C491C6D1E02F80830052908F10108CE
:1011B00001DA002DF1DC00210CE000EB1973491C71
:1011C0001B786D1E082902F808304FEA091908F14A
:1011D000010801DA002DF0DC21688B0602D516E04B
:1011E000A8F10108E04505DD02EB080313F8013C16
:1011F000302BF5D0B8F1000F09DD02EB080313F82E
:10120000013C2E2B03D1090701D4A8F10108002DC0
:1012100005DD3E2102F808106D1E08F10108407C32
:10122000002E02F8080008F1010804DA2D207642A9
:1012300002F8080002E02B2002F808000A214FF40F
:101240007A70864208F101080BDB96FBF0F330332D
:1012500002F8083096FBF0F308F1010800FB136672
:1012600001E0642E0CDB642096FBF0F3303302F8CF
:10127000083096FBF0F308F1010800FB136601E06B
:101280000A2E06DB96FBF1F0303002F8080008F178
:10129000010896FBF1F001FB1060303002F8080005
:1012A000A16908F1010808EB050202EB0A00081A1F
:1012B000A0612078C00602D42046FFF752F9216AC7
:1012C00008AE01EB0A00206204E0D4E9012116F81F
:1012D000010B9047BAF1010AF7D22078C00602D577
:1012E0002046FFF73EF96E4609E016F8010B3E284E
:1012F0000FD0D4E901219047206A401C2062B8F148
:101300000108F2D22046FFF742F909B00320BDE8F8
:10131000F08F206A2844206203E0D4E901213020C4
:1013200090476D1EEBD3F8E7F65C000002FCFFFF70
:1013300010B5436913B1AFF3008001E0FFF74AF93C
:10134000012010BD127800F124010A7000224A70B9
:101350000122EDE711684FF0FF32E9E710B543696C
:1013600013B1AFF3008001E0FFF7D4F9012010BD05
:10137000128800F1240182840022C2840122EDE758
:1013800011684FF0FF32E9E770B516460C46054686
:1013900000F044F8036893F80101012806D0FF2CFF
:1013A0000FD8185D68B101202C7070BDD3F807010B
:1013B0003246214603F2071303442846BDE8704035
:1013C00018474FF0FF3070BD00487047E4420020DE
:1013D0007546FFF7F9FFAE4605006946534620F013
:1013E0000700854618B020B5FEF7AAFFBDE82040EB
:1013F0004FF000064FF000074FF000084FF0000BD1
:1014000021F00701AC46ACE8C009ACE8C009ACE883
:10141000C009ACE8C0098D467047000010B500F067
:1014200005F8001D10BD00BF2550000000487047A2
:10143000044300202DE9F0411F46044603260168BD
:10144000072A01F4006004DB08B116A505E016A523
:1014500003E008B115A500E015A521F010002060FB
:10146000A069C01EA0610FB1401EA0612046FFF719
:1014700078F84FB1D4E9012138469047206A401CE2
:101480002062C01C206206E0206AFAE7D4E901214C
:1014900015F8010B9047761EF8D22046FFF777F833
:1014A000BDE8F0814E414E006E616E00494E46002F
:1014B000696E66002DE9F047814616468AB03548C8
:1014C00078440DC88DE80D0032487844801C03AC88
:1014D0000DC884E80D0041F69B300844372190FB8D
:1014E000F1F290FBF1F5A5F1800501FB12041B3C24
:1014F00002D56442012000E00020DFF898A0804679
:101500000027FA44AAF1BE0A0EE0E0070AD03246EC
:10151000684607EB470101230AEB810100F01EFB3F
:101520008DE8070064107F1C002CEED1194F7F441A
:10153000AE3F19E0E80715D007EB04100DF1180ACB
:1015400090E80E008AE80E00C068F04201D19819B8
:1015500008903246012306A903A800F0FFFA03AB66
:1015600083E807006D10641C002DE3D14FF00103E8
:1015700032466946B8F1000F03A802D000F0D9FA4C
:1015800001E000F0EBFAC9E90001C9F808200AB04F
:10159000BDE8F087005A000010B50446AFF30080A4
:1015A0002046BDE81040FEF7B6BE00004FF0013CFB
:1015B00050F8042B51F8043B9A4221D1A2EB0C03C2
:1015C000934313EACC1317D150F8042B51F8043B82
:1015D0009A4215D1A2EB0C03934313EACC130BD11F
:1015E00050F8042B51F8043B9A4209D1A2EB0C03AA
:1015F000934313EACC13DBD04FF00000704700BFD9
:10160000D01A01BAB1FA81F101F0180122FA01F001
:10161000CB40C1F12001DBB2C0B2C01A2CFA01F3F9
:10162000D11A914311EAC311E6D17047014918203C
:10163000ABBEFEE72600020070475FEA400C08BF21
:1016400091F0000F4FEA8C234FEAC12243EA515137
:101650004FEA1C5018BF00F5F0404FEA300018BFA9
:1016600041F000415FEA6C5C00F02980BCF1FF3F73
:1016700008BF40F080407047130C06BF12044FF0C3
:10168000100C4FF0000C130E04BF12020CF1080CEA
:10169000130F04BF12010CF1040C930F04BF92004E
:1016A0000CF1020CD30F04BF52000CF1010C1146D7
:1016B0004FF00002A0F11F00A0EB0C00704711F0EA
:1016C000004F08BF704731F000413FF4D5AF0B0C1D
:1016D00006BF09044FF0100C4FF0000C0B0E04BFB6
:1016E00009020CF1080C0B0F04BF09010CF1040CEA
:1016F0008B0F04BF89000CF1020CCB0F04BF490013
:101700000CF1010CCCF12003A0EB0C0022FA03F346
:1017100002FA0CF241EA030100F10100704720F0E7
:101720007F4C80EA030023F07F47ACEB070303F50F
:101730007C5300F0004003F1FF032DE980494FEA9C
:10174000154B09B44FEA144325EA0B4E24EA03482B
:101750000FF2042606EB132749083E785FEA3202AF
:1017600003FB0667C7F5000707FB06F64FEA543789
:101770004FEAD64606F1020607FB066CCCF1005C88
:101780004FEA1C472CEA074C07FB06F40CFB06F556
:1017900004EB15464FEA961634BF00204FF0004088
:1017A0004FEAD13706FB07FC4FEA1C4C0CFB0BF74A
:1017B000D21B03FB0CF761EB07010CFB0EF7B0EB40
:1017C000074072EB17420CFB08F734BFA2EB07424D
:1017D000B2EB074261EB17414FEA0C444FEA910725
:1017E00006FB07FC4FEA1C4C0CFB0BF7B0EBC740A9
:1017F00072EB573203FB0CF734BFA2EBC742B2EBDC
:10180000C74261EB57310CFB0EF7B0EBC70072EB30
:1018100057720CFB08F734BFA2EBC702B2EBC7024A
:1018200061EB5771039F4FEA816141EA921104EB2A
:10183000CC044FEAD1374FEA826206FB07FC42EA4A
:1018400090124FEA80604FEA1C4C0CFB0BF7D21B46
:1018500003FB0CF761EB07010CFB0EF7B0EB074045
:1018600072EB17420CFB08F734BFA2EB0742B2EB56
:10187000074261EB17414FEA8C554FEA910704EBA1
:101880009C2406FB07FC4FEA1C4C0CFB0BF7B0EB4F
:10189000C74072EB573203FB0CF734BFA2EBC742D1
:1018A000B2EBC74261EB57310CFB0EF7B0EBC70050
:1018B00072EB57720CFB08F734BFA2EBC702B2EB16
:1018C000C70261EB577115EB4C254FEA816141EA84
:1018D00092114FEA82624FEAD13742EA901206FB38
:1018E00007FC44F100044FEA80604FEA1C4C0CFBFB
:1018F0000BF7D21B03FB0CF761EB07010CFB0EF798
:10190000B0EB074072EB17420CFB08F734BFA2EBB9
:101910000742B2EB074261EB174115EB1C154FEA8A
:10192000813141EA92414FEA823242EA90424FEAE3
:1019300080304FEA0C7644F1000448EA03434EEA53
:101940000B484FF0000EB2EB080C71EB030724BFFD
:10195000624639464EEB0E0E4FF0000B0018524116
:1019600049414BEB0B0BB2EB080C71EB03077BF11E
:10197000000B24BF624639464EEB0E0E4FF0000BB3
:101980000018524149414BEB0B0BB2EB080C71EBC9
:1019900003077BF1000B24BF624639464EEB0E0E67
:1019A00051EA020718BF46F0010616EB0E7655F114
:1019B000000254F1000103D5BDE88901BDE80088AB
:1019C000BDE88901BDE80048B619524141EB01016B
:1019D000A3F10103704780807F7E7D7C7B7A7978DC
:1019E000777676757473727171706F6E6E6D6C6CE4
:1019F0006B6A6A6968686766666564646363626186
:101A00006160605F5F5E5E5D5D5C5C5B5B5A5A5906
:101A10005958585757565655555554545353525272
:101A20005251515050504F4F4F4E4E4D4D4D4C4CCA
:101A30004C4B4B4B4A4A4A49494948484847474713
:101A40004746464645454544444444434343434250
:101A5000424242414141002B9C4630D477002BD07A
:101A60001CB54FEA370703B44FF010004FF01001D8
:101A7000BAF1000F06D0BCF1000FDCBF40F0080047
:101A800040F008014FF000000FBCBDE810400BF122
:101A9000010BBBF1010F08BF5FEA170722BF12F16C
:101AA000010211F101014FF0004143F1000300F088
:101AB000004043EA00007047F9D35708D0E746EAF0
:101AC000064613F1400F4FEA16461FDD13F1200FB3
:101AD000DFBF16430A46002120335B42BED0C3F16C
:101AE000200746EA064602FA07F74FEA164646EA94
:101AF0000706C3F1200722FA03F201FA07F721FAD9
:101B000003F14FF0000342EA0702A7E746EA0206A4
:101B100046EA06464FEA164646EA0106BCBF46EAD2
:101B20000646360C4FF000034FF000024FF0000164
:101B300094E72DE9804C9A46934670B491E83800BA
:101B400007C831EA400C48BF34EA430C03D5FFF71D
:101B5000E6FDFFF780FFF0BCBDE8008C2DE9804C6E
:101B60009A46934670B491E8380007C810F0804F49
:101B700008BF13F0804F03D100F005F8FFF76BFFAB
:101B8000F0BCBDE8008C20F07F4780EA030023F022
:101B90007F4C07EB0C03A3F57C5300F00040A3F14E
:101BA000FE0392F0000F00F0B38095F0000F00F0FC
:101BB00077802DE901494FEA11404FEA144621EAA6
:101BC000004800FB06FC24EA064708FB06F607FB74
:101BD00008F800FB07F718EB06484CEB164C4FEAE9
:101BE000124B18EB07484FEA15464CEB174022EA18
:101BF0000B4E0BFB06FC25EA06470EFB06F607FB21
:101C00000EFE0BFB07F71EEB064E4CEB164C4FF08F
:101C100000061EEB074E4CEB174B18EB0B0840F180
:101C2000000018EB0E0B58EB000840F100008F1A73
:101C30004FF000013CBFC943661B14BFB5EB040C59
:101C400000213CBFC943F61B4FEA17444EEA8E0EF3
:101C500027EA04454FEA1C4704FB07622CEA074CBD
:101C600005FB07F70CFB05F604FB0CFC16EB07461F
:101C700042EB174216EB0C4642EB1C421BEB0606EE
:101C800058EB0202414146EA9E0601D5BDE80189B2
:101C9000B619524141EB0101A3F10103BDE80189ED
:101CA0004FEA14454FEA114724EA054621EA074C5A
:101CB00005FB07F406FB07F70CFB06F105FB0CFC24
:101CC00011EB074144EB17444FEA124711EB0C416B
:101CD00044EB1C4422EA074C05FB07F206FB07F71E
:101CE0000CFB06F605FB0CFC16EB074642EB174215
:101CF00016EB0C4642EB1C456A1854F1000148BF34
:101D00007047B619524141EB0101A3F1010370473D
:101D100095F0000F37D04FEA11424FEA144721EAFD
:101D2000024624EA074C02FB07F106FB07F70CFB0F
:101D300006F402FB0CFC14EB074441EB17414FEA9D
:101D4000154714EB0C4441EB1C4125EA074C02FB00
:101D500007F506FB07F70CFB06F602FB0CFC16EB7F
:101D6000074645EB174516EB0C4645EB1C4212198E
:101D700051F1000148BF7047B619524141EB0101D2
:101D8000A3F1010370474FEA14454FEA114724EAD3
:101D9000054621EA074C05FB07F106FB07F70CFB9C
:101DA00006F24FF0000605FB0CFC12EB074241EB7C
:101DB000174112EB0C4251EB1C4148BF704792187F
:101DC00041EB0101A3F1010370470000014800F05D
:101DD00059BD00002C00002010B5846AE16D11F09F
:101DE000500F06D0E16DC90625D5204600F049FD0B
:101DF00010BDE06D40F40070E065206801680907DF
:101E000016D503F0C7F978B12068C06880040028AF
:101E10000ADBE06D20F48070E065E06DC00403D45F
:101E2000E06D40F00100E065204600F0F7FC10BDD9
:101E3000C0688007EBE7616D496BBDE8104008475B
:101E400010B5806AC16D41F04001C165016E41F07D
:101E50000401016600F015FD10BD10B5806A00F0A8
:101E60000FFD10BD70B50446006881688268C1F33B
:101E7000400112F0010F28D039BB816801F00D013B
:101E8000012914D18168124A1140891C816021689E
:101E90000320086001F0BAFB054612E001F0B6FB32
:101EA000401B02280DD920688068C00709D0E06D6A
:101EB00040F01000E065206E40F001002066012037
:101EC00070BD20688068C007E8D1002070BD0000A8
:101ED000C0FFFF7F70B504460068816811F0010FF4
:101EE0002DD18168174A11421AD18168D543294002
:101EF000491C816001F08AFB06461BE0816811F0F5
:101F0000010F03D181682940491C816001F07EFBEB
:101F1000801B02280ED920680068C043C00709D082
:101F2000E06D40F01000E065206E40F0010020669A
:101F3000012070BD20680168C943C907DED10020B7
:101F400070BD00003F000080FEE70000F0B52DED01
:101F5000028B85B004F06EF9B0EE408A18EE100ADC
:101F600004F090FA41EC100B50A053EC102B04F04D
:101F7000F1F90024102355A206212046009403F015
:101F8000AFFB1020BCEEC80ACDE90004062310EE1A
:101F9000102A1946282003F069FB10234DA20621C0
:101FA0006E20009403F09CFB4FF4806502AA294642
:101FB000494804F0D4F8002303AA2946464804F00F
:101FC000AAF8002304AA2946434804F0B6F8BDF94C
:101FD0000C70BDF91060BDF90850B81B00EE100A76
:101FE000F8EEC00A00EE105AB8EEC00A80EE208A61
:101FF00018EE100A04F046FACDE9000133463A46DD
:10200000294636A004F0A6F910233FA202210020A1
:10201000009403F065FBBDF9080064280ADA3FA0CC
:1020200004F098F9102343A204210020009403F047
:1020300057FB38E018EE100A4249084442498842EA
:102040000ED242A004F086F9102346A204210020FB
:10205000009403F045FB002005B0BDEC028BF0BD01
:1020600018EE100A3749C94388420BDA41A004F040
:1020700071F9102346A204210020009403F030FBE4
:102080000220E9E718EE100A454988420BDD45A019
:1020900004F060F9102349A204210020009403F009
:1020A0001FFB0120D8E70320D6E7000057617665C3
:1020B000666F726D204672657175656E63793A2040
:1020C000252E326620487A0D0A000000467265719E
:1020D0003A000000487A0000E20A0020524D533ACC
:1020E0002025642C204D61783A2025642C204D69F0
:1020F0006E3A2025642C20526174696F3A20252E97
:1021000034660D0A0000000050757265205369673F
:102110006E616C204D6F646500000000576176654C
:10212000666F726D3A204E6F205369676E616C0D59
:102130000A0000004E6F205369676E616C202020FA
:1021400020200000656666C1CBCC4C0057617665E7
:10215000666F726D3A2053696E6520576176650D22
:102160000A000000547970653A2053696E6520209A
:102170002020000057617665666F726D3A205472B8
:1021800069616E676C6520576176650D0A00000015
:10219000547970653A20547269616E676C6500000D
:1021A0006666E63E57617665666F726D3A205371DA
:1021B0007561726520576176650D0A005479706506
:1021C0003A2053717561726520200000014800F0CB
:1021D000DDBF000098000020014800F0D7BF0000DC
:1021E0000C0100200D4902688A4201D20C4901E02D
:1021F0000B492031D2B21423083AB2FBF3F2436CFC
:1022000002F01F0223F00303194481640449803162
:10221000C16401219140016570470000080402403B
:10222000000802400179074A02EB81024265054A33
:102230004432491E826501F01F0201219140C165AF
:1022400070470000FC08024030B5D0E913456560D6
:10225000446D14B1D0E91645656090F8444004F02F
:102260001F050124AC40056C6C60046863608368E2
:10227000102B036803D099600068C26030BD9A607B
:102280000068C16030BD704772B6FEE7F8B5002641
:102290000446009690F858000D4601280BD0012006
:1022A00084F858002046FFF7DDFD0100E06D04D002
:1022B00040F010002AE00220F8BD20F4885040F0E1
:1022C0000200E06520688268134B1A4005F08043E5
:1022D0001A4342F000428260104A20680EE0009BE0
:1022E0005B1C0093934209D3E06D20F0020040F0A4
:1022F0001000E06584F858600120F8BD8368DB0FAA
:10230000EDD1E06D20F0020040F00100E06584F8BE
:1023100058600846F8BD0000C0FFFF3F02DE040021
:102320007047704770477047704700002DE9F047CD
:10233000044690F858009CB00E464FF00009012862
:1023400015D0012084F858000025179518952068AD
:102350004FF0A04840450ED1284F0097384602F074
:1023600015FF8246206802F011FF60B10EE00220E6
:102370001CB0BDE8F087E06D40F02000E06584F817
:1023800058500120F4E7BAF1000F09D0E06D40F099
:102390002000E0654FF0010984F858504846E7E70F
:1023A0001748326840F61F71002A826822F46042A2
:1023B00016D094F8383042EA433273681A43826088
:1023C000D8F80820BB6802F0010203F001031A43A9
:1023D000E2D1B36832681A4383688B431A430BE037
:1023E0008260D8F80820BB6802F0010203F0010304
:1023F0001A43D1D182688A438260CDE70001005040
:10240000000300502DE9F84F00270446009790F88C
:102410005800DFF8D8930D46B846012811D00126A0
:1024200084F85860206802F0ADFE60B1E06D40F0C5
:102430002000E0655FF0010784F858803846BDE869
:10244000F88F0220FBE7D5E900210C23206803EA7E
:1024500091131844036B01F01F014FF01F0C0CFA8D
:1024600001FCC2F3846223EA0C038A401343036332
:10247000206802F087FE8246206802F07FFE5AEA5A
:1024800000003CD1AA6829682068B2F1004F37D01B
:1024900002F088FE2068416921F000414161206816
:1024A0006969C268C2F3C102520091402A69042AD4
:1024B00031D000EB82002B68026EDFF834C303F0EA
:1024C000F84302EA0C020B431A4342F00041016652
:1024D00020682A69A96900EB8200026E22F08072EE
:1024E0000A430266297F22682869012910D0002149
:1024F00002EB8000026E22F000720A4302667DE069
:10250000002202F04FFE2068416941F00041C5E71A
:102510004FF00071ECE7002102F02AFE4003206832
:102520004FF0000172D002F023FE90FAA0F0B0FA52
:1025300080F1286842036ED090FAA0F0B0FA80F0E3
:10254000814204D100221146206802F03AFE0121A6
:10255000206802F00DFE400320684FF001015DD0BD
:1025600002F006FE90FAA0F0B0FA80F1286842036B
:1025700059D090FAA0F0B0FA80F0814204D1002244
:102580000121206802F01DFE0221206802F0F0FD0A
:10259000400320684FF0020148D002F0E9FD90FAB4
:1025A000A0F0B0FA80F12868420344D090FAA0F07D
:1025B000B0FA80F0814204D100220221206802F0AA
:1025C00000FE0321206802F0D3FD400320684FF095
:1025D000030133D002F0CCFD90FAA0F0B0FA80F104
:1025E000286842032FD090FAA0F0B0FA80F0814220
:1025F00004D100220321206802F0E3FD20688168F5
:1026000011F0010F22D0A8E000E004E002F0B0FDDC
:10261000C0F384618DE7C0F3846091E702F0A8FD08
:10262000C0F38461A2E7C0F38460A6E702F0A0FDD6
:10263000C0F38461B7E7C0F38460BBE702F098FDA4
:10264000C0F38461CCE7C0F38460D0E7EB6829680D
:102650004B4550F8B03FC1F3120101D10B4300E0EC
:102660008B430360E868484577D1286841031CD054
:1026700090FAA0F1B1FA81F1491C01F01F0109297A
:102680004FEA403132D8002912D000BF90FAA0F1B1
:10269000B1FA81F101F1010101F01F0106FA01F621
:1026A00009D100BFC0F3846109E0C0F38461E3E7AE
:1026B000C0F38461EEE790FAA0F1B1FA81F101F183
:1026C000010101F01F0146EA816102D1C0F384607B
:1026D00003E090FAA0F0B0FA80F000F1010000F001
:1026E0001F0000EB400041EA005132E000290ED00B
:1026F00090FAA0F1B1FA81F101F1010101F01F019D
:1027000006FA01F606D100BFC0F3846106E0C0F30B
:102710008461F1E790FAA0F1B1FA81F101F10101D0
:1027200001F01F0146EA816102D1C0F3846003E039
:1027300090FAA0F0B0FA80F000F1010000F01F0064
:102740002C4A00EB400002EB005041EA000141F04E
:102750000071AA68206802F025FD27482A68024215
:102760003FF46AAE25488168254B01F0E0719A423A
:1027700002D0244B9A421CD10B021AD42268B2F127
:10278000A04F7FF459AE826841F4000122F0E0725C
:102790000A4382601C481D490068B0FBF1F0401CF0
:1027A00000EB4000800000E0401E00900028FBD1BC
:1027B00042E6174D174BAA4207D1CD0105D4226836
:1027C0009A42F5D041F0807109E0134DAA42EFD151
:1027D0004A02EDD422689A42EAD041F4800182682C
:1027E00022F0E0720A43826026E6000000007F408B
:1027F00000F0FF03000020FE0000088000030050EE
:10280000000021C31000C0900C000020400D030008
:10281000000052C700010050000084CB70B5006872
:10282000B0F1A04F24D100200121124A5FEA812398
:1028300032F81140491C20449942F9DDC11700EBE0
:10284000915081120C4C012004EB400632F81050DC
:10285000401C6D1A26F8025C9842F5DDFFF776FB06
:10286000BDE8704040F201420249044800F09EBABF
:1028700070BD0000E0020020E20A00202C000020D1
:10288000704770472DE9F05F0446006806684568A8
:10289000DFF854B2DBF8080000F01F07B0070ED5D0
:1028A000A8070CD5E06DC00603D4E06D40F40060CD
:1028B000E0652046FFF734FD216802200860DFF85C
:1028C0002CA270074FF0A04801D5680703D4300749
:1028D00037D5280735D5E06DC00603D4E06D40F448
:1028E0000070E065206802F055FC20B32068504578
:1028F00001D1424600E00246824208D03FB1052F96
:1029000005D0092F03D0504503D1414602E0C168EC
:1029100001E00146C96889040DD4016809070AD598
:1029200002F030FC58B3E06D40F01000E065206E1E
:1029300040F0010020662046FFF770FF21680C2060
:102940000860B00601D5A80603D4700658D56806FD
:1029500056D5E06DC00603D4E06D40F40050E0654C
:102960002068C16C11F4C07F1AD00021894602F0A2
:1029700011FC02462068504514D1434613E02068FC
:10298000416821F00C014160E06D20F48070E06549
:10299000E06DC004CFD4E06D40F00100E065CAE70F
:1029A0000121E3E70346834208D03FB1062F05D05B
:1029B000072F03D0504503D1414602E0C16801E032
:1029C0000146C968B9F1000F14D08B0102D58AB154
:1029D0008A040FD4026852060CD589020AD402F088
:1029E000CDFBE8B3E06D40F01000E065206E40F0F4
:1029F000010020662046FFF794FC216860200860F3
:102A000030060BD5280609D5E06D40F48030E0652E
:102A1000204600F06BF9216880200860F0050CD595
:102A2000E8050AD5E06D40F40030E0652046FFF788
:102A30007AFC21684FF480700860B0050CD5A805B9
:102A40000AD5E06D40F48020E0652046FFF76CFC7D
:102A500021684FF400700860F0062ED5E80600E00B
:102A600008E02AD5E06BD0B1AFB1DBF8080000F484
:102A7000604013E02068416821F060014160E06D32
:102A800020F48050E065E06DC005B3D4E06D40F007
:102A90000100E065AEE72068C068C00750B1E06D96
:102AA00040F48060E065206E40F002002066204621
:102AB000FFF7E7FE216810200860700512D5680551
:102AC00010D5E06D40F48040E065206E40F00800D5
:102AD000206621684FF4806008602046BDE8F05F02
:102AE000FFF720BCBDE8F09F00030050000100503C
:102AF000F8B54FF0000504002E46009502D0E06DB9
:102B000010B107E00120F8BD204600F0F1F826667C
:102B100084F8586020688168C1F3407119B18168F8
:102B20006A4A1140816020688168C1F3007189B9E7
:102B30008168674A114041F080518160654866496B
:102B40000068B0FBF1F04000801C00E0401E0090E7
:102B50000028FBD120688168C1F3007141B9E16DA3
:102B600041F01001E165216E41F00101216601256E
:102B700002F008FBE16DC90600D430B1E06D40F011
:102B80001000E06501252846F8BDE06D20F4807056
:102B900040F00200E0652068806810F0010F11D15C
:102BA0004FF0A04080684D4900F00100896801F0B5
:102BB0000101084306D14A486168826822F47C1208
:102BC0000A438260E168E06B627F0843A16841EAE2
:102BD0004231084394F8241040EA0140012904D10D
:102BE000218D404A02EB41410843E16A29B101F4D9
:102BF0007871226B014342EA01002168CA683A4BAE
:102C00001A400243CA6020680169626B21F040618A
:102C100011430161206802F0B5FA0646206802F00F
:102C2000ADFA30432ED1207F94F83810800340EA6B
:102C300041022068C16844F2020399431143C16014
:102C400020690028206801690AD041F480310161BF
:102C5000206850F8C01F22696FF30D01114307E08F
:102C600021F480310161206850F8C01F6FF30D011D
:102C7000016094F8400001280CD02068016921F01F
:102C800001010161606901282068016B21F00F01D9
:102C900011D013E0D4E911010843D4E91312114310
:102CA000084321680A6940F2FC739A43104340F0DC
:102CB00001000861E6E7226A521E11430163E06DDC
:102CC00020F0020040F00100E0655CE7C0FFFF5F1C
:102CD000C0FFFF7F0C000020400D030000010050EA
:102CE000000300500000FEFF0740F0FF70470000A7
:102CF00070B598B00546142111A8FDF708FC4421D1
:102D00006846FDF704FC2868B0F1A04F46D14FF4A7
:102D10000040009040030F90684600F023FF08B188
:102D2000FFF7B2FA1E49C86C40F40050C864C86C82
:102D300000F400501690C86C40F00100C864C86CE4
:102D4000002600F001001690012011900320CDE92B
:102D5000120611A94FF0904000F02EFB124C1148C2
:102D600020600520C4E901068020C4E9036040001A
:102D700060618000A0612020C4E90706204600F0C1
:102D800063FA08B1FFF780FA6C6500220321122074
:102D9000A56200F04FFE122000F03EFE18B070BD9C
:102DA0000010024008000240980000202DE9F04188
:102DB0000446344817468846806800F01F0520689E
:102DC00002F0E0F900285AD194F85800012856D0B2
:102DD000012084F85800002625B1052D02D0092DC8
:102DE00000D003E02046FFF775F818B184F858606A
:102DF000BDE8F081E06D40F60161884340F48070E9
:102E0000E06521492068884202D14FF0A04100E0EE
:102E10000146814200D01DB9E06D20F48010E065CC
:102E2000E06DC00404D5206E20F00600206600E0AE
:102E30002666616D1548C862616D15480863616D4D
:102E40001448486321681C20086084F85860206892
:102E5000416841F0100141602068C16841F0010102
:102E6000C16021683B4642464031606D00F04CFA3B
:102E700021688A68084B1A40121D8A60B8E7022050
:102E8000B6E700000003005000010050D91D000803
:102E90005B1E0008411E0008C0FFFF7F7047000056
:102EA0002DE9F0470446407990460D4601280BD0A5
:102EB0004FF0010984F8059002202071A96808F0FC
:102EC0001006042903D045E00220BDE8F08700F099
:102ED0009DFB07465FEA08004FF0030805D01CE0A1
:102EE00000F094FBC01B01280FD82068406B000441
:102EF000F6D4012000F04EFA2168686A086416E0F2
:102F000000F084FBC01B012807D9206940F00800AD
:102F1000206184F804800320D7E72068406B0028F4
:102F2000EEDB012000F036FA2168686A4864206808
:102F3000816C40F2FF32B2409143AA6AB240114321
:102F400081642068C16CFF22B2409143EA6AB240BA
:102F50001143C164E869012808D12268916B1F20E0
:102F6000B0408143286AB040084390632068C06B3A
:102F70000721B1408843A969012903D0022955D00E
:102F80006969E9B300216B69AA681A430A434FF4DF
:102F9000807101FA06F398432B79012B00D00021B0
:102FA00011434FF4007202FA06F398436B79012B38
:102FB00000D0002220F44047286842EA0108022895
:102FC00036D00743216808FA06F03843C863206802
:102FD00001684FF48042B240914301602268116859
:102FE00040F6FE70B0408143E868B040084310608E
:102FF00020680168C022B24091430160287B00E054
:1030000014E0297C2268C0F3830001F03C0140EA0F
:103010008110116E40F60F73B3409943B0400143E5
:10302000116684F80490002060714EE70121AAE740
:1030300000F0CAFF0549884202D947F40047C1E7BA
:1030400003498842BED947F48047BBE70068890935
:1030500000B4C404704770B50446006801684FF0BE
:103060000405890411D5416B89040ED525712169A8
:1030700041F001012161E90241632068016821F406
:10308000805101602046FFF7E5FF20680168890054
:1030900014D5416B890011D52571216941F00201D8
:1030A00021614FF0005141632068016821F0805197
:1030B00001602046BDE87040FFF7F0BE70BD70B5FE
:1030C000040003D02079002510B105E0012070BD77
:1030D0006571204600F008F802202071256101206A
:1030E0002071002070BD0000F0B587B005461421A6
:1030F0006846FDF70CFA2149286888423BD12049EF
:10310000C86C40F48030C864C86C00F4803005900E
:10311000C86C40F00100C864C86C102600F00100C3
:1031200005900320CDE900600027694602974FF023
:10313000904000F041F9144C124801C40620C1C46B
:10314000802044F81009800060614000A0612020C8
:10315000E061C00120620C4800F076F808B1FFF78A
:1031600093F8AC60002203213620A56200F062FCD7
:10317000362000F051FC07B0F0BD00000008005000
:1031800000100240080402400C010020F0B4016C61
:103190000C6801680D6890F8442002F01F060422B4
:1031A00002FA06F3234211D06B070FD50B689B067A
:1031B00003D40B6823F004030B6090F8441001F073
:1031C0001F018A40016C4A60016B1DE0022303FA73
:1031D00006F727424FF0000C4FF0010218D0AF075E
:1031E00016D50C68A40605D40C6824F00A040C60FB
:1031F00080F8252090F8441001F01F018B40016CED
:103200004B6080F824C0C16A00291AD0F0BC08477E
:103210000823B340234214D02B0712D50B6823F0A8
:103220000E030B6090F84410036C01F01F0102FACA
:1032300001F15960C26380F8252080F824C0416BF9
:10324000E2E7F0BC7047000070B504000CD02B4AD8
:1032500021681420914209D2294A0A44B2FBF0F0B5
:103260008000606427480AE0012070BD234A524272
:103270000A44B2FBF0F08000606420480838206403
:10328000022084F825000A6847F6F0708243D4E9EA
:1032900002031843D4E904352B431843A3691843A8
:1032A000E3691843236A1843104308602046FEF779
:1032B00099FFA0680025B0F5804F00D16560A16C32
:1032C00020790860D4E9130141606068401E03283A
:1032D00008D82046FEF7A6FF606D0560D4E9160108
:1032E000416002E06565A565E565E563012084F858
:1032F000250084F82450002070BD0000080402401E
:10330000F8FFFDBF0000024070B5044690F82400AD
:10331000002501280CD0012084F8240094F82560B1
:103320000020012E06D084F824000225284670BD16
:10333000022070BD022684F82560E06320680668DC
:1033400026F0010606602046FEF77EFF206B00286F
:103350002068016802D041F00E0106E021F004016E
:1033600001602068016841F00A010160A06C0168F9
:10337000C90303D5016841F480710160606D18B123
:10338000016841F4807101602068016841F0010129
:103390000160CBE770B5044600F038F90546601CC3
:1033A00002D004484068044400F030F9401BA042B9
:1033B000FAD370BD000000202DE9F04FDFF8209215
:1033C000002301260324A9F1040B85B00F2709F17E
:1033D000040AABF1040EFAE006FA03F52A407CD0A9
:1033E00091F804C00CF0030CBCF1010F02D0BCF149
:1033F000020F26D1D0F808C0CDF800C04FEA430C28
:1034000004FA0CF8CDF810C0DDF800C02CEA080C66
:10341000CDF800C0D1F80C80DDF810C008FA0CF827
:10342000DDF800C048EA0C08C0F80880D0F804C0F5
:103430002CEA050C0D79C5F300159D4045EA0C05F5
:1034400045600D79ED43AD070ED0C5684FEA4308DE
:1034500004FA08FC25EA0C05D1F808C00CFA08FCAF
:103460004CEA050CC0F80CC00D7905F00305022DDF
:1034700016D1DD0800EB850CCDF808C0DCF8208003
:103480005D074FEAD56C07FA0CF528EA05080D69C7
:1034900005FA0CF5DDF808C045EA0805CCF820501F
:1034A00005684FEA430CCDF808C004FA0CFC25EA85
:1034B0000C0591F804C00CF00308DDF808C008FA08
:1034C0000CF848EA0508C0F800804D6815F4403F44
:1034D0007CD0444DD5F860C000E077E04CF0010CA2
:1034E000C5F860C02D6E23F0030C05F001050095B2
:1034F0003D4D65440295AD684FEA837C4FEA1C78E8
:1035000007FA08FC25EA0C05B0F1904F06D0DFF869
:10351000DCC0604505D14FF0010C20E04FF0000CFD
:103520001DE0DFF8CCC0604502D14FF0020C16E080
:10353000DFF8C0C0604502D14FF0030C0FE0DFF8A8
:10354000B8C0604502D14FF0040C08E0DFF8ACC011
:10355000604502D14FF0050C01E04FF0060C0CFA6B
:1035600008FC4CEA050C029DC5F808C0D9F80050CB
:10357000CC46D1F8048095435FEAC82800D51543AE
:10358000CCF80050DAF80050D446D1F804809543C6
:103590005FEA882800D51543CCF80050DBF80050CE
:1035A000DC46D1F8048095435FEA883800D515439E
:1035B000CCF80050DEF80050F446D1F80480954372
:1035C0005FEAC83800D51543CCF800505B1C0A6888
:1035D00032FA03F57FF400AF05B0BDE8F08F0000CC
:1035E00008040140001002400000014000040048AF
:1035F00000080048000C0048001000480014004873
:103600000AB181617047816270470000014880689B
:10361000704700000000002090F84120202A24D1AB
:1036200090F84020012A20D0012280F84020242256
:1036300080F841200268136823F0010313600268D8
:10364000136823F480531360026813680B431360FC
:1036500001680A6842F001020A60202180F84110E6
:10366000002180F84010084670470220704790F80B
:103670004120202A22D190F84020012A1ED0012288
:1036800080F84020242280F841200268136823F04B
:10369000010313600268136823F4706343EA012195
:1036A000116001680A6842F001020A60202180F876
:1036B0004110002180F840100846704702207047F2
:1036C00070B5040004D094F84100002510B106E064
:1036D000012070BD84F84050204600F0F9F8242005
:1036E00084F841002068016821F0010101606068F0
:1036F000216820F0706008612068816821F4004131
:103700008160E0680128A06807D040F40440216887
:103710008860E068022803D006E040F40040F6E745
:1037200021684FF40060486020684168114A1143E5
:1037300041602068C16821F40041C160D4E90401FE
:103740000843A16940EA01202168C860D4E9070163
:103750000843216808602068016841F001010160A8
:103760006564202084F84100256384F842500020DD
:1037700070BD0000008000022DE9FF4F83B00446B9
:10378000DDE9108790F84100DDF848909A469346AD
:10379000202871D15FEA080014D09FB194F840004E
:1037A000012869D0012084F84000FFF72FFF06466A
:1037B000012200901923D103204601F05FFC00286C
:1037C0006ED103E04FF40070606469E0212084F85A
:1037D0004100402084F8420000256564C4F824803C
:1037E00067856563CDE9009653465A46204604999D
:1037F00001F0FAFB10B184F8405051E0608DFF27D2
:103800004FF080784FF0007AFF2804D927853A4698
:103810004346009505E0608D2085009594F82820AA
:1038200053462046049901F011FC32464946204691
:1038300001F076FCA0BB606A216800788862606A4B
:10384000401C6062608D401E6085208D401E80B2ED
:103850002085618DD9B1D0B94B4600228021204608
:10386000009601F00BFCD8B9608DFF2805D927859B
:103870003A464346009506E026E0608D2085009597
:1038800094F8282053462046049901F0DFFB608D10
:103890000028CAD132464946204601F01BFC18B127
:1038A000012007B0BDE8F08F20682021C1612068A9
:1038B0004268064B1A40426084F8411084F8425036
:1038C00084F840500020ECE70220EAE700E800FE20
:1038D000F0B597B00446142111A8FCF718FE442156
:1038E0006846FCF714FE20492068884239D1402000
:1038F000002500900695684600F034F908B1FEF7FF
:10390000C3FC1A4CE06C40F00100E064E06C00F095
:1039100001001690E06C40F00200E064E06C1226BA
:1039200000F00200169004274FF40040CDE9126524
:10393000CDE91457119011A9B006FFF73DFD802085
:10394000CDE91265CDE91457119011A90848FFF788
:1039500033FDA06D40F40010A065A06D00F40010D0
:10396000169017B0F0BD0000005400400010024057
:103970000004004802488168426811448160704731
:103980000000002010B50024032000F073F802208E
:1039900000F008F808B1012401E000F025F8204605
:1039A00010BD000070B50E4E05460024706898B139
:1039B0004FF47A71B1FBF0F00A490968B1FBF0F0FD
:1039C00000F068FD40B9102D06D200222946501E95
:1039D00000F030F8356000E00124204670BD0000A2
:1039E000000000200C0000200A4882B0016E41F067
:1039F00001010166016E01F001010091816D41F04C
:103A000080518165806D00F08050009002B000F020
:103A1000A1B8000000100240002809DB00F01F02DE
:103A2000012191404009800000F1E020C0F8001120
:103A300070470000F0B40E4B1B680C46C3F3022322
:103A4000C3F10705042D00D90425191D072901D24A
:103A5000002300E0DB1E012606FA05F1491E214085
:103A600099409E40761E16403143F0BC02F03CBBAC
:103A70000CED00E0064900F0070208684FF6FF036E
:103A8000184040EA0220034A1043086070470000D3
:103A90000CED00E00000FA052B492C4B0A6832219E
:103AA0004A432B4940B1B0F5007F086829D020F483
:103AB000C06040F480602CE00868C0F34120022818
:103AC00004D051F8800F20F4807022E0D1F88000FB
:103AD00020F48070C1F88000086820F4C06040F4D1
:103AE00000700860B2FBF3F0401C00E0401E4A6921
:103AF000520501D50028F9D1486940050AD50320AF
:103B00007047C0F34120022806D051F8800F40F4DE
:103B10008070086000207047D1F8800040F4807009
:103B2000C1F88000086820F4C06040F400700860AC
:103B3000B2FBF3F0401C00E0401E4A695205DBD5A1
:103B40000028F9D1D8E700000C00002040420F0007
:103B5000007000400248816841F4804181607047F4
:103B6000007000402DE9F8430446006800269D4D92
:103B700000035ED5A86D0027C00008D4A86D40F0F2
:103B80008050A865A86D012700F080500090DFF8F4
:103B90005892D9F8001041F48071C9F80010FFF76D
:103BA00035FD804606E000BFFFF730FDA0EB0800C2
:103BB00002282BD8D9F80000C005F5D5D5F890001B
:103BC00010F4407014D0216C814211D0D5F89000CF
:103BD000D5F8901020F4407041F48031C5F8901071
:103BE000D5F8901021F48031C5F89010C5F89000F8
:103BF000C00711D0FFF70AFD804641F2883907E07F
:103C0000FFF704FDA0EB0801494501D903260BE0AD
:103C1000D5F890008007F3D5D5F89000216C20F4FA
:103C200040700843C5F890001FB1A86D20F0805087
:103C3000A8652078C00707D0D5F88800616820F013
:103C400003000843C5F888002078800707D5D5F819
:103C50008800A16820F00C000843C5F8880020788F
:103C6000400707D5D5F88800E16820F03000084308
:103C7000C5F888002078000707D5D5F888002169A5
:103C800020F0C0000843C5F888002078800607D5DA
:103C9000D5F88800616920F440600843C5F88800C1
:103CA0002078400607D5D5F88800A16920F4405057
:103CB0000843C5F888002078000607D5D5F88800A5
:103CC000E16920F440400843C5F888002088C00519
:103CD00007D5D5F88800216A20F440300843C5F89C
:103CE00088002088800507D5D5F88800616A20F40F
:103CF00040200843C5F88800208840050FD5D5F836
:103D00008800A16A20F440100843C5F88800A06A22
:103D1000B0F5801F03D1E86840F48010E860208887
:103D200000050FD5D5F88800E16A20F4400008436B
:103D3000C5F88800E06AB0F5800F03D1E86840F468
:103D40008010E8602088C0040FD5D5F88800216B6A
:103D500020F040700843C5F88800206BB0F1807FE8
:103D600003D1E86840F48010E86020884FF00061DB
:103D700080040ED5D5F88800626B20F040601043B7
:103D8000C5F88800606B884203D1E86840F4801071
:103D9000E860208840040ED5D5F88800A26B20F09A
:103DA00040601043C5F88800A06B884203D1E868E2
:103DB00040F48010E860208800040FD5D5F8880012
:103DC000E16B20F040500843C5F88800E06BB0F18B
:103DD000805F03D1E86840F48030E8603046BDE899
:103DE000F883000000100240007000402DE9F04709
:103DF0000E4605004FF0000725D0DFF8AC81D8F85B
:103E0000000000F00F00B0420CD2D8F8001021F0F2
:103E10000F013143C8F80010D8F8000000F00F007F
:103E2000B04210D12968614CC80741F2883A5AD093
:103E30006868DFF87C91032808D0022820682DD01C
:103E4000400500282CDB0120BDE8F08720688001B8
:103E5000F9D5E06800F00302E068C0F30310401CED
:103E6000032A19D0534A00BFB2FBF0F0E268C2F354
:103E700006225043E268C2F34162521C5200B0FB7A
:103E8000F2F0484517D9A06810F0F00F0CD0880761
:103E900011D5A86840B10EE0474AE5E78003D0E7B6
:103EA00000F0BCF8484506D9A06820F0F00040F0CA
:103EB0008000A0608027A068696820F003000843A4
:103EC000A060FFF7A3FB814606E000BFFFF79EFB63
:103ED000A0EB090151453AD8A068696800F00C00D0
:103EE000B0EB810FF2D12868810714D5400703D5C4
:103EF000A06840F4E060A0602878000705D5A068BD
:103F000020F4605040F4E060A060A068A96820F050
:103F1000F000084304E0802F03D1A06820F0F000F7
:103F2000A060D8F80010404601F00F01B14216D948
:103F3000016821F00F0131430160FFF767FB07467D
:103F400007E000BFFFF762FBC11B514501D9032009
:103F50007AE7D8F8000000F00F00B042F2D12878DC
:103F6000400705D5A068E96820F4E0600843A06038
:103F70002878000706D5A068296920F4605040EA37
:103F8000C100A06000F04AF8A1680C4AC1F3031117
:103F9000515C01F01F01C8400949086009480068E8
:103FA000BDE8F047FFF7FEBC0020024000100240D1
:103FB00000B4C4040024F40000127A00A0650008D4
:103FC0000C0000200000002001480068704700003D
:103FD0000C0000200548064900688968054AC1F3BD
:103FE0000221515C01F01F01C84070470C00002005
:103FF00000100240B065000805480649006889685D
:10400000054AC1F3C221515C01F01F01C84070474D
:104010000C00002000100240B0650008184910B5DF
:104020008868C0F381021748012A0BD08A684310C0
:10403000C2F38102022A06D08A68C2F38102032AEF
:1040400003D0002010BD184610BDCA6802F003045A
:10405000CA68C2F30312521C032C02D0B0FBF2F068
:1040600001E0B3FBF2F0CA68C968C2F3062250430C
:10407000C1F34161491C4900B0FBF1F010BD0000E3
:10408000001002400024F4002DE9F84304007AD027
:104090002078FA4DC00747D0A868E96800F00C0006
:1040A00001F003010C2802D0082817D001E00329F1
:1040B00014D06068B0F5803F17D0B0F5A02F286805
:1040C00017D020F480302860286820F480202860F1
:1040D0006068E0B1FFF79AFA064614E028688003AA
:1040E00022D560680028D2D01EE0286840F48030D5
:1040F000EDE740F480202860F7E700BFFFF786FA7D
:10410000801B642870D828688003F7D50CE0FFF77F
:104110007DFA064605E000BFFFF778FA801B6428A9
:10412000F0D828688003F7D4207880074CD5A86899
:10413000E96800F00C0001F003010C2802D004280B
:104140000DD001E002290AD0E068002828682BD0B1
:1041500040F480702860FFF759FA064619E0286895
:10416000400502D5E068002891D06868217C20F0E5
:10417000FE4040EA01606860C1480068FFF712FC39
:10418000002800D120E076E1FFF740FA801B0228EA
:10419000B8D828684005F7D56868217C20F0FE4033
:1041A00040EA016068600FE020F480702860FFF74B
:1041B0002DFA064605E000BFFFF728FA801B02280B
:1041C000A0D828684005F7D42078000729D5606971
:1041D0000028D5F8940013D040F00100C5F89400F1
:1041E000FFF714FA064606E090E000BFFFF70EFA6C
:1041F000801B022886D8D5F894008007F6D510E0F9
:1042000020F00100C5F89400FFF700FA064604E02C
:10421000FFF7FCF9801B022878D8D5F894008007B6
:10422000F6D42078400761D5A86D0026C00008D4D8
:10423000A86D40F08050A865A86D012600F0805060
:10424000009090480168C90511D40168804641F486
:1042500080710160FFF7DAF9074604E0FFF7D6F94D
:10426000C01B022852D8D8F80000C005F6D5A068B7
:10427000012815D00528D5F8900016D020F00100AF
:10428000C5F89000D5F8900020F00400C5F8900023
:10429000A06841F28838B8B1FFF7B8F907460EE0D8
:1042A000D5F8900040F00100F0E740F00400C5F8B8
:1042B0009000F5E7FFF7AAF9C11B414526D8D5F8CC
:1042C00090008007F6D50CE0FFF7A0F9074604E060
:1042D000FFF79CF9C11B414518D8D5F8900080071D
:1042E000F6D41EB1A86D20F08050A8652078800615
:1042F00029D5A0690028D5F8980013D040F0010016
:10430000C5F89800FFF782F9064606E077E000BF9F
:10431000FFF77CF9801B022877D8D5F89800800732
:10432000F6D510E020F00100C5F89800FFF76EF90F
:10433000064604E0FFF76AF9801B022865D8D5F825
:1043400098008007F6D4E069F0B3A968C1F3810151
:10435000032961D00228286820F0807028600BD0E3
:10436000E86820F00300E860E86847490840E86032
:10437000FFF74CF904464BE0FFF748F9064604E026
:10438000FFF744F9801B02283FD828688001F7D442
:10439000F4E908016FF00F0202EB01110843218AD2
:1043A0005204490802EB4151A26841EA0221084344
:1043B000217D4FF07E42490802EB41610843217B99
:1043C00040EAC160E96800E062E0304A1140084319
:1043D000E860286840F080702860E86840F08070ED
:1043E000E860FFF713F9044605E000BFFFF70EF998
:1043F000001B022809D828688001F7D548E004E0AE
:10440000FFF704F9001B022802D90320BDE8F88356
:1044100028688001F4D43BE00128F7D0E868226ADC
:1044200000F00301914226D1616A00F0F002090117
:10443000103991421FD1A26A00F4FE41B1EB022F64
:1044400019D194F82C2000F07841B1EBC26F12D151
:10445000218E00F4C00249084905A1F500119142DE
:1044600009D194F8341000F0C06049084906A1F160
:10447000007181420CD00120C8E70000001002400A
:104480000000002000700040FFFFEEFE0C809F0146
:104490000020BBE710B5401EB0F1807F01D30120A2
:1044A00010BD4FF0E02460610F21601701F01CFE89
:1044B0000020A06107202061002010BD70477047D8
:1044C00070470000F0B590F83C20012A4AD0012244
:1044D00080F83C20CA688B6822F440721A434B680B
:1044E00022F480621A430B6822F400621A430B69BB
:1044F00022F480521A434B6922F400521A430B6B88
:1045000022F480421A430B8B22F4702242EA0342C7
:10451000154C03680026154DA34201D0AB4203D1D0
:10452000CF6922F080523A43A34201D0AB4214D16A
:104530000F8D22F4700242EA07520F6A22F0807255
:104540003A434F6A22F000723A43A34201D0AB4291
:1045500003D1C96A22F000520A435A6480F83C60D1
:104560000020F0BD0220F0BD002C014000340140CD
:104570007047704770470000F0B590F83C20012A62
:104580003AD0012580F83C50022280F83D20036893
:104590005A689C68194E1A4FB34201D0BB4204D1ED
:1045A00022F4700C4A6842EA0C02DFF858C002EAB2
:1045B0000C02D1F800C04CEA020CC3F804C0026837
:1045C000B2420DD0B2F1804F0AD00F4B9A4207D0C1
:1045D0000E4B9A4204D0BA4202D00D4B9A4204D1FB
:1045E000896824F080031943916080F83D500021D0
:1045F00080F83C100846F0BD0220F0BD002C0140C0
:10460000003401408FFFFFFD00040040000800401F
:1046100000400140704710B5040003D094F83D00FD
:1046200010B107E0012010BD002084F83C002046B6
:1046300000F022F8022084F83D00211D206801F0DE
:10464000EBF8012084F8480084F83E0084F83F002D
:1046500084F8400084F8410084F8420084F8430064
:1046600084F8440084F8450084F8460084F8470044
:1046700084F83D00002010BD08B500680B49884251
:1046800012D10B48816D41F010018165806D0022CF
:1046900000F01000009003213620FFF7CBF9BDE8B1
:1046A00008403620FFF7B8B908BD000000100040F0
:1046B0000010024090F83D10012901D00120704700
:1046C000022180F83D1000680F4988420ED0B0F1F9
:1046D000804F0BD00D49884208D00D49884205D043
:1046E0000C49884202D00C49884207D181680B4AA4
:1046F0001140062906D0B1F5803F03D0016841F092
:104700000101016000207047002C014000040040BE
:104710000008004000340140004001400700010053
:10472000704770B50446006801694FF00005C94341
:10473000890715D4C168C943890711D4E91E0161ED
:1047400001202077206880698007204602D0FFF78B
:10475000E7FF04E000F00EF9204600F0E3F92577CA
:1047600020680169C943490717D4C168C94349078B
:1047700013D46FF004010161022020772068806962
:1047800010F4407F204602D0FFF7CAFF04E000F09B
:10479000F1F8204600F0C6F9257720680169C94381
:1047A000090716D4C168C943090712D46FF008017C
:1047B0000161042020772068C0698007204602D06C
:1047C000FFF7AEFF04E000F0D5F8204600F0AAF9AC
:1047D000257720680169C943C90617D4C168C94350
:1047E000C90613D46FF010010161082020772068FA
:1047F000C06910F4407F204602D0FFF791FF04E02B
:1048000000F0B8F8204600F08DF92577206801699E
:10481000C943C90708D1C168C943C90704D1891E62
:104820000161204600F0FEF920680169C9430906CC
:1048300009D4C168C943090605D46FF0800101613C
:104840002046FFF73CFE20680169C943C90509D429
:10485000C168C943090605D46FF48071016120461F
:10486000FFF72CFE20680169C943490609D4C168D5
:10487000C943490605D46FF040010161204600F0AC
:10488000D2F920680169C943890609D4C168C943BE
:10489000890605D46FF0200101612046FFF710FE64
:1048A00020680169C943C90209D4C168C943C90262
:1048B00005D46FF4801101612046FFF75AFE20688D
:1048C0000169C943890209D4C168C943890205D471
:1048D0006FF4001101612046FFF74AFE206801696C
:1048E000C943490209D4C168C943490205D46FF4D8
:1048F000800101612046FFF73DFE20680169C94340
:1049000009020BD4C168C943090207D46FF400013E
:1049100001612046BDE87040FFF77CBE70BD00001D
:1049200010B586B0044614216846FBF7F0FD0F4928
:104930002068884217D10E48C16C41F00101C16462
:10494000C06C694600F0010005904FF48070009043
:1049500002200190002002900390062004904FF066
:104960009040FEF729FD06B010BD0000002C01406C
:1049700000100240704770B5044690F83C000026D5
:104980000D4601280BD0012084F83C000C2A4AD0A7
:1049900007DC82B1042A20D0082A06D131E00220A7
:1049A00070BD102A53D0142A63D00126002084F849
:1049B0003C00304670BD206800F094FF206881699B
:1049C00041F0080181612068816921F00401816161
:1049D000206881692A69114311E0206800F0D0FF46
:1049E0002068816941F4006181612068816921F456
:1049F00080618161206881692A6941EA02218161BF
:104A0000D4E7206801F004F82068C16941F008018A
:104A1000C1612068C16921F00401C1612068C169D8
:104A20002A69114311E0206801F03AF82068C16951
:104A300041F40061C1612068C16921F48061C161F4
:104A40002068C1692A6941EA0221C161AEE7206894
:104A500001F06EF82068016D41F0080101652068E1
:104A6000016D21F0040101652068016D2A6911437F
:104A700011E0206801F094F82068016D41F40061B4
:104A800001652068016D21F4806101652068016D78
:104A90002A6941EA0221016588E710B5040003D0C4
:104AA00094F83D0010B107E0012010BD002084F80B
:104AB0003C00204600F022F8022084F83D00211D31
:104AC000206800F0A9FE012084F8480084F83E0028
:104AD00084F83F0084F8400084F8410084F84200E4
:104AE00084F8430084F8440084F8450084F84600C4
:104AF00084F8470084F83D00002010BD08B5006828
:104B00000649884208D10648016E41F400610166F9
:104B1000006E00F40060009008BD0000002C014011
:104B2000001002407047000030B50446022269B10F
:104B3000042912D0082917D00C291CD0102921D003
:104B400094F84300012824D0012030BD94F83E00A1
:104B50000128F9D184F83E201DE094F83F00012897
:104B6000F2D184F83F2016E094F840000128EBD100
:104B700084F840200FE094F841000128E4D184F843
:104B8000412008E094F842000128DDD184F8422059
:104B900001E084F843200122206800F095FE194BC3
:104BA00020681949194A984209D0884207D0904292
:104BB00005D0174DA84202D0164DA84203D1456C2E
:104BC00045F400454564206898420CD0B0F1804F10
:104BD00009D0114B984206D0104B984203D088421E
:104BE00001D0904207D181680D4A1140062906D0B4
:104BF000B1F5803F03D0016841F001010160002060
:104C000030BD0000002C0140003401400040014054
:104C100000440140004801400004004000080040FA
:104C2000070001007047704790F88010012918D0E4
:104C3000012180F880102421C0F8841050F8641BF2
:104C40000A680B6823F001030B6022F00051002278
:104C5000026050F8643C196020210162027710461E
:104C600070470220704770B5044690F88000012814
:104C70001DD0012084F880002420C4F8840020681E
:104C80000568026822F0010202602068826822F052
:104C900060620A438260204600F0BAFF2068056027
:104CA0002020C4F88400002084F8800070BD022019
:104CB00070BD70B5044690F8800001281DD0012019
:104CC00084F880002420C4F8840020680568026805
:104CD00022F0010202602068826822F060420A43EA
:104CE0008260204600F094FF206805602020C4F810
:104CF0008400002084F8800070BD022070BD10B5D3
:104D0000040003D0D4F8840010B107E0012010BDE6
:104D1000002084F88000204600F026F82420C4F803
:104D200084002068016821F001010160204601F043
:104D300025F80128EBD0A06A10B1204600F08AFFC8
:104D40002068416821F4904141602068816821F029
:104D50002A0181602068016841F00101016020465C
:104D6000BDE8104000F0DABF10B598B00446142139
:104D700011A8FBF7CCFB44216846FBF7C8FB174999
:104D80002068884227D104200024009003946846BC
:104D9000FEF7E8FE08B1FDF777FA1148816D41F49E
:104DA00080218165816D01F480211691C16C41F0F3
:104DB0000201C164C06C11A900F0020016904FF40A
:104DC000406011900220CDE912040720CDE9144083
:104DD0000448FEF7F1FA18B010BD0000004800408A
:104DE00000100240000400482DE9F8430446D0F8C2
:104DF00084001F4616460D46202851D1DDB1D6B19C
:104E000094F8800001284BD0012084F880004FF0F6
:104E10000008C4F88C802120C4F884001834FEF700
:104E2000F5FBA6878146E68754F8100C183CB0F5D0
:104E3000805F03D004E00120BDE8F883206920B141
:104E40002E46002584F8808010E00026FAE78021B5
:104E5000204601F0CDF8B8B9C6B116F8010B2168AB
:104E60008862B4F85600401EA4F85600B4F8560004
:104E70004B464FF0000200970028E8D14FF0400168
:104E8000204601F0B5F830B10320D5E735F8020B24
:104E9000C0F30800E3E72020C4F884000020CBE73B
:104EA0000220C9E7FEE701688A69D243920701D46C
:104EB00000228A6200688169C943C90703D08169F9
:104EC00041F00101816170472DE9F0470446006817
:104ED0008A461746816900252E46C906A9464FF025
:104EE000200849D51021C16137E000BFBAF1FF3F6A
:104EF00033D0FEF78BFBC11B514502D8BAF1000F2E
:104F00002BD12068416894F8422001F480418369E4
:104F1000DB431B041CD4B1F5804F19D0202A17D0D5
:104F2000416841F480414160FEF770FB07460FE0A5
:104F3000FEF76CFBC01B19280AD9606C40F02000FA
:104F4000606484F8418084F8429084F840900125A0
:104F500020688069C0438006EAD420688069C04325
:104F6000800602D5002DC1D003E015B92168C1F833
:104F70001C8046F00406012521688869C20505D514
:104F80004FF4807246F00106CA610125410509D53A
:104F900022684FF4806146F00806D1610125800542
:104FA00002D40AE0800507D521684FF4007046F06E
:104FB0000206C861012500E08DB12046FFF773FFAE
:104FC00054F8240B4168074A11404160206A30437D
:104FD000206284F81D8084F81E9084F81C90284676
:104FE000BDE8F08700E800FE2DE9F84304461646C8
:104FF00015489846DDE90897DAB2C30200902046CA
:1050000000F024F83A464946204600F089F8B8B93D
:10501000F5B2B8F1010F08D02168300A88623A462B
:105020004946204600F07CF850B9206885624B461E
:10503000002280212046009700F020F8002800D0B0
:105040000120BDE8F88300000020008010B5C1F306
:10505000090141EA02410268029C19432143506858
:1050600021F000414FF4806303EA5453024C234380
:1050700098430843506010BDFF63FF032DE9F041E2
:105080001D4617460E460446DDF8188008E0681CE9
:1050900006D0FEF7BBFAA0EB0800A8420BD855B12A
:1050A0002068806936EA000012D00020B842EED0B5
:1050B0000020BDE8F08154F8440F40F0200044F88F
:1050C0000409202060700020A07020700120F0E70B
:1050D0000120EBE770B516460D4604460DE032465A
:1050E00029462046FFF7F0FE08B1012070BDFEF70B
:1050F0008DFA801BA84207D835B120688069C0436B
:105100008006ECD4002070BD54F8440F40F020001D
:1051100044F80409202060700020A0702070E4E7AB
:1051200070B516460D4604460FE032462946204625
:10513000FFF7CAFE08B1012070BD681C05D0FEF75C
:1051400065FA801BA84207D835B120688069C04342
:105150008007EAD4002070BD54F8440F40F02000CE
:1051600044F80409202060700020A0702070E2E75D
:1051700000EB8100006E00F0F84070478068C0F3DB
:10518000C00070478068C0F3800070478068C0F33B
:1051900080007047C06810F4406F01D00020704755
:1051A00001207047042303EAD15310B51844436922
:1051B000C1F3045107248C40A3438A401343436145
:1051C00010BD00EB8100016E21F00041114301662A
:1051D0007047000030B58BB000240894099420215A
:1051E00068460A94FBF793F91C484FF0A041042548
:1051F00001604FF40021C0E90114C4600461C0E9FA
:105200000545047701214177016280F82440C4629A
:10521000046380F83840C46380F84040FDF768FCC0
:1052200008B1FDF731F808A90C480894FDF77EF89D
:1052300008B1FDF729F80A4800900620CDE90105DC
:105240007F200594CDE9030569460448FDF7DAF8A7
:10525000002801D0FDF718F80BB030BD2C0000205D
:105260000200300400B58DB030216846FBF74FF9DD
:105270001249114808600846FDF721FF08B1FDF703
:1052800003F80220009000201E218DF80400CDE9D3
:1052900002018DF8050001210490CDE905010246C7
:1052A000079069460548FDF7FBFD002801D0FCF793
:1052B000EBFF0DB000BD000000080050F80000201A
:1052C000154808B5816C41F004018164816C01F0DE
:1052D00004010091816C41F001018164816C01F055
:1052E00001010091816C41F002018164806C002217
:1052F00000F00200009003210B20FEF79BFB0B2027
:10530000FEF78AFB002203213820FEF793FBBDE85D
:1053100008403820FEF780BB0010024010B586B070
:1053200014216846FBF7F3F81948C16C41F00401F9
:10533000C164C16C01F004010591C16C41F0200110
:10534000C164C16C01F020010591C16C41F0010103
:10535000C164C16C01F001010591C16C41F0020111
:10536000C164C06C0B4C00F002000590002240218B
:105370002046FEF745F94020009001200021CDE9AC
:105380000101039169462046FEF716F806B010BDEC
:105390000010024000080048134810B51149016090
:1053A0001249416000210122C0E9021201614161FC
:1053B0008161C1610162FEF783F908B1FCF764FF06
:1053C00000210948FEF728F908B1FCF75DFF00212C
:1053D0000548FEF74CF9002803D0BDE81040FCF763
:1053E00053BF10BD005400406C010020FBA7A0304B
:1053F00010B598B00024149415941C210DA816948F
:10540000FBF785F834216846FBF781F824482349E7
:1054100001601021C0E901146321C0E90314446153
:105420008461FFF73AFB08B1FCF72EFF1494159442
:1054300014A91B481694FFF79FF808B1FCF724FF46
:1054400060200D903220CDE90E0410941194129436
:1054500000220DA912481394FFF78DFA08B1FCF74A
:1054600013FF00944FF40050CDE90440039400036F
:10547000CDE9084001940294069407940A940B9491
:10548000694607480C94FFF71DF808B1FCF7FCFECD
:105490000348FFF745FA18B010BD0000002C01408A
:1054A000B80100203EB500240F48009401940D4936
:1054B0000294C0E90014A921C0E902418021816160
:1054C000FFF7A9F808B1FCF7DFFE2020009069463D
:1054D00002940548FFF750F8002801D0FCF7D4FEED
:1054E0003EBD00000010004004020020184810B526
:1054F000164901604FF4E1314160002181600C22C6
:10550000C160C0E904128161C161016241628162CE
:10551000FFF7F5FB08B1FCF7B7FE00210C48FFF7D9
:10552000C8FB08B1FCF7B0FE00210948FFF79BFB60
:1055300008B1FCF7A9FE0648FFF776FB002803D068
:10554000BDE81040FCF7A0BE10BD000000480040C0
:1055500050020020FEE7FEE770B5002404F1B00021
:10556000C0B200F0E9F8002000F0E6F8102000F0EA
:10557000E3F80025002000F0F1F86D1CEDB2802D5D
:10558000F8D3641CE4B2082CE8D370BD70B5C82011
:10559000FDF700FF044D0024285D00F0CDF8641CE9
:1055A000E4B2172CF8D370BD1400002010B50446E7
:1055B000B031C8B200F0C0F8102040EA141000F07A
:1055C000BBF804F00F00BDE8104000F0B5B80000D3
:1055D0002DE9F047203A0024089E0F468146D5B2B7
:1055E0007F2803D900208F1C8146FFB2102B39463B
:1055F00012D0FFF7DBFF1B4905EB450001EB40052F
:10560000285D0EB1C043C0B200F0A8F8641CE4B23B
:10561000062CF5D3BDE8F087FFF7C8FFDFF8488018
:1056200004EB051118F801000EB1C043C0B200F040
:1056300095F8641CE4B2082CF2D37F1CF9B24846FA
:10564000FFF7B4FF0024474604EB05103844007A06
:105650000EB1C043C0B200F081F8641CE4B2082C63
:10566000F2D3D7E7B8650008E06700082DE9FF4FDF
:1056700081B00026DDE90EA91D46934680463446DA
:105680004FEA5A0727E0281B401EC1B20A2000F04B
:1056900079FEBBFBF0F00A21B0FBF1F201FB120036
:1056A00026B9691E8C4201DA48B101263030C2B2F7
:1056B00007FB0480C0B25346CDF8009006E007FB1C
:1056C0000480C0B253462022CDF800900299FFF723
:1056D0007FFF641CE4B2AC42D5D305B0BDE8F08FC7
:1056E0002DE9F8431E461746894604460025DDF895
:1056F000208014E0334649462046CDF80080FFF76D
:1057000067FF0C2E10D00834E4B27A2C01D90C2E8D
:105710000CD0782C01D9102E08D06D1CEDB27A5D1A
:10572000002AE7D1BDE8F883A41DEDE709F10100E7
:10573000002400F0FF09F0E701B584B001214FF427
:10574000807204A88DE807000B46002278210248E9
:10575000FEF712F805B000BD6C01002001B584B061
:1057600001214FF4807204A88DE807000B46402207
:1057700078210248FEF700F805B000BD6C0100205A
:1057800070477047FEF7F6B810B594B038216846F8
:10579000FAF7BDFE14210EA8FAF7B9FE0020FEF7B5
:1057A0007BF9012000900004019002200324CDE940
:1057B00007045521CDE909010B900C900D90684626
:1057C000FEF762FC08B172B6FEE70F20CDE90E04C9
:1057D000002010901190129004210EA8FEF706FBF5
:1057E000002801D072B6FEE714B010BD024801686F
:1057F00041F470010160704788ED00E010B5044885
:10580000FEF78FFFBDE810400248FDF724BC000002
:1058100004020020F80000202DE9F0430268234B29
:10582000234D244E244C4FF08049984207D04845E0
:1058300005D0A84203D0B04201D0A04203D122F04B
:1058400070074A683A431D4FDFF874C0DFF8748070
:1058500098420DD048450BD0A84209D0B04207D09D
:10586000A04205D0B84203D0604501D0404503D1E5
:1058700022F44075CA682A434D6922F080022A4307
:1058800002608A68C2620A688262984207D0A042B7
:1058900005D0B84203D0604501D0404501D1096927
:1058A000016301214161BDE8F0830000002C01404B
:1058B0000004004000080040003401400040014066
:1058C000004401400048014010B501F01F030121D0
:1058D000046A99408C430462016A9A401143016250
:1058E00010BD00002DE9F043026A22F001020262BD
:1058F000056A436882691C4C25F0020522400C6849
:1059000022F0030214438A68194E2A43174D194F97
:10591000DFF864C0DFF86490A84207D0B04205D039
:10592000B84203D0604501D0484506D122F00808AE
:10593000CA6842EA080222F00402A84207D0B04234
:1059400005D0B84203D0604501D0484505D14D6926
:1059500023F440731D438B692B4343608461496882
:1059600041630262BDE8F0838FFFFEFF002C01401F
:105970000034014000400140004401400048014023
:10598000F0B5026A22F010020262056A4268836979
:10599000194C1B4E23400C6823F4407343EA042443
:1059A00025F020038D6843EA0513144DA84201D069
:1059B000B04206D1CF6823F0800343EA071323F0F7
:1059C0004003A8420AD0B04208D00E4DA84205D0EC
:1059D0000D4DA84202D00D4DA84207D14D6922F4C9
:1059E000406242EA85028D6942EA85024260846132
:1059F000496881630362F0BDFF8FFFFE002C014008
:105A00000034014000400140004401400048014092
:105A1000F0B5026A22F480720262056A4368C269C4
:105A2000194C1B4E22400C6822F00302144325F44B
:105A300000728D6842EA0522144DA84201D0B0429E
:105A400006D1CF6822F4006242EA072222F4806283
:105A5000A8420AD0B04208D00E4DA84205D00E4D43
:105A6000A84202D00D4DA84207D14D6923F44053FE
:105A700043EA05138D6943EA05134360C46149682D
:105A8000C1630262F0BD00008FFFFEFF002C0140E9
:105A90000034014000400140004401400048014002
:105AA000F0B5026A22F480520262056A4268C36954
:105AB000194C1B4E23400C6823F4407343EA042422
:105AC00025F400538D6843EA0533144DA84201D0F4
:105AD000B04206D1CF6823F4004343EA073323F4EE
